{"abi":[{"type":"constructor","inputs":[{"name":"_pair","type":"address","internalType":"address"},{"name":"_ve","type":"address","internalType":"address"}],"stateMutability":"nonpayable"},{"type":"receive","stateMutability":"payable"},{"type":"function","name":"DOMAIN_SEPARATOR","inputs":[],"outputs":[{"name":"","type":"bytes32","internalType":"bytes32"}],"stateMutability":"view"},{"type":"function","name":"RATIO","inputs":[],"outputs":[{"name":"","type":"uint256","internalType":"uint256"}],"stateMutability":"view"},{"type":"function","name":"_isExcludedMaxTransactionAmount","inputs":[{"name":"","type":"address","internalType":"address"}],"outputs":[{"name":"","type":"bool","internalType":"bool"}],"stateMutability":"view"},{"type":"function","name":"allowance","inputs":[{"name":"owner","type":"address","internalType":"address"},{"name":"spender","type":"address","internalType":"address"}],"outputs":[{"name":"","type":"uint256","internalType":"uint256"}],"stateMutability":"view"},{"type":"function","name":"approve","inputs":[{"name":"spender","type":"address","internalType":"address"},{"name":"amount","type":"uint256","internalType":"uint256"}],"outputs":[{"name":"","type":"bool","internalType":"bool"}],"stateMutability":"nonpayable"},{"type":"function","name":"automatedMarketMakerPairs","inputs":[{"name":"","type":"address","internalType":"address"}],"outputs":[{"name":"","type":"bool","internalType":"bool"}],"stateMutability":"view"},{"type":"function","name":"balanceOf","inputs":[{"name":"account","type":"address","internalType":"address"}],"outputs":[{"name":"","type":"uint256","internalType":"uint256"}],"stateMutability":"view"},{"type":"function","name":"blacklist","inputs":[{"name":"_addr","type":"address","internalType":"address"}],"outputs":[],"stateMutability":"nonpayable"},{"type":"function","name":"blacklistLiquidityPool","inputs":[{"name":"lpAddress","type":"address","internalType":"address"}],"outputs":[],"stateMutability":"nonpayable"},{"type":"function","name":"blacklistRenounced","inputs":[],"outputs":[{"name":"","type":"bool","internalType":"bool"}],"stateMutability":"view"},{"type":"function","name":"buyLiquidityFee","inputs":[],"outputs":[{"name":"","type":"uint256","internalType":"uint256"}],"stateMutability":"view"},{"type":"function","name":"buyRevShareFee","inputs":[],"outputs":[{"name":"","type":"uint256","internalType":"uint256"}],"stateMutability":"view"},{"type":"function","name":"buyTeamFee","inputs":[],"outputs":[{"name":"","type":"uint256","internalType":"uint256"}],"stateMutability":"view"},{"type":"function","name":"buyTotalFees","inputs":[],"outputs":[{"name":"","type":"uint256","internalType":"uint256"}],"stateMutability":"view"},{"type":"function","name":"deadAddress","inputs":[],"outputs":[{"name":"","type":"address","internalType":"address"}],"stateMutability":"view"},{"type":"function","name":"decimals","inputs":[],"outputs":[{"name":"","type":"uint8","internalType":"uint8"}],"stateMutability":"view"},{"type":"function","name":"decreaseAllowance","inputs":[{"name":"spender","type":"address","internalType":"address"},{"name":"subtractedValue","type":"uint256","internalType":"uint256"}],"outputs":[{"name":"","type":"bool","internalType":"bool"}],"stateMutability":"nonpayable"},{"type":"function","name":"disableStaking","inputs":[],"outputs":[],"stateMutability":"nonpayable"},{"type":"function","name":"eip712Domain","inputs":[],"outputs":[{"name":"fields","type":"bytes1","internalType":"bytes1"},{"name":"name","type":"string","internalType":"string"},{"name":"version","type":"string","internalType":"string"},{"name":"chainId","type":"uint256","internalType":"uint256"},{"name":"verifyingContract","type":"address","internalType":"address"},{"name":"salt","type":"bytes32","internalType":"bytes32"},{"name":"extensions","type":"uint256[]","internalType":"uint256[]"}],"stateMutability":"view"},{"type":"function","name":"enableStaking","inputs":[],"outputs":[],"stateMutability":"nonpayable"},{"type":"function","name":"enableTrading","inputs":[],"outputs":[],"stateMutability":"nonpayable"},{"type":"function","name":"excludeFromFees","inputs":[{"name":"account","type":"address","internalType":"address"},{"name":"excluded","type":"bool","internalType":"bool"}],"outputs":[],"stateMutability":"nonpayable"},{"type":"function","name":"excludeFromMaxTransaction","inputs":[{"name":"updAds","type":"address","internalType":"address"},{"name":"isEx","type":"bool","internalType":"bool"}],"outputs":[],"stateMutability":"nonpayable"},{"type":"function","name":"increaseAllowance","inputs":[{"name":"spender","type":"address","internalType":"address"},{"name":"addedValue","type":"uint256","internalType":"uint256"}],"outputs":[{"name":"","type":"bool","internalType":"bool"}],"stateMutability":"nonpayable"},{"type":"function","name":"initialize","inputs":[],"outputs":[],"stateMutability":"nonpayable"},{"type":"function","name":"isBlacklisted","inputs":[{"name":"account","type":"address","internalType":"address"}],"outputs":[{"name":"","type":"bool","internalType":"bool"}],"stateMutability":"view"},{"type":"function","name":"isExcludedFromFees","inputs":[{"name":"account","type":"address","internalType":"address"}],"outputs":[{"name":"","type":"bool","internalType":"bool"}],"stateMutability":"view"},{"type":"function","name":"limitsInEffect","inputs":[],"outputs":[{"name":"","type":"bool","internalType":"bool"}],"stateMutability":"view"},{"type":"function","name":"maxTransactionAmount","inputs":[],"outputs":[{"name":"","type":"uint256","internalType":"uint256"}],"stateMutability":"view"},{"type":"function","name":"maxWallet","inputs":[],"outputs":[{"name":"","type":"uint256","internalType":"uint256"}],"stateMutability":"view"},{"type":"function","name":"migrate","inputs":[],"outputs":[],"stateMutability":"nonpayable"},{"type":"function","name":"name","inputs":[],"outputs":[{"name":"","type":"string","internalType":"string"}],"stateMutability":"view"},{"type":"function","name":"nonces","inputs":[{"name":"owner","type":"address","internalType":"address"}],"outputs":[{"name":"","type":"uint256","internalType":"uint256"}],"stateMutability":"view"},{"type":"function","name":"owner","inputs":[],"outputs":[{"name":"","type":"address","internalType":"address"}],"stateMutability":"view"},{"type":"function","name":"pair","inputs":[],"outputs":[{"name":"","type":"address","internalType":"address"}],"stateMutability":"view"},{"type":"function","name":"permit","inputs":[{"name":"owner","type":"address","internalType":"address"},{"name":"spender","type":"address","internalType":"address"},{"name":"value","type":"uint256","internalType":"uint256"},{"name":"deadline","type":"uint256","internalType":"uint256"},{"name":"v","type":"uint8","internalType":"uint8"},{"name":"r","type":"bytes32","internalType":"bytes32"},{"name":"s","type":"bytes32","internalType":"bytes32"}],"outputs":[],"stateMutability":"nonpayable"},{"type":"function","name":"preMigrationPhase","inputs":[],"outputs":[{"name":"","type":"bool","internalType":"bool"}],"stateMutability":"view"},{"type":"function","name":"preMigrationTransferrable","inputs":[{"name":"","type":"address","internalType":"address"}],"outputs":[{"name":"","type":"bool","internalType":"bool"}],"stateMutability":"view"},{"type":"function","name":"removeLimits","inputs":[],"outputs":[{"name":"","type":"bool","internalType":"bool"}],"stateMutability":"nonpayable"},{"type":"function","name":"renounceBlacklist","inputs":[],"outputs":[],"stateMutability":"nonpayable"},{"type":"function","name":"renounceOwnership","inputs":[],"outputs":[],"stateMutability":"nonpayable"},{"type":"function","name":"sellLiquidityFee","inputs":[],"outputs":[{"name":"","type":"uint256","internalType":"uint256"}],"stateMutability":"view"},{"type":"function","name":"sellRevShareFee","inputs":[],"outputs":[{"name":"","type":"uint256","internalType":"uint256"}],"stateMutability":"view"},{"type":"function","name":"sellTeamFee","inputs":[],"outputs":[{"name":"","type":"uint256","internalType":"uint256"}],"stateMutability":"view"},{"type":"function","name":"sellTotalFees","inputs":[],"outputs":[{"name":"","type":"uint256","internalType":"uint256"}],"stateMutability":"view"},{"type":"function","name":"setAutomatedMarketMakerPair","inputs":[{"name":"_pair","type":"address","internalType":"address"},{"name":"value","type":"bool","internalType":"bool"}],"outputs":[],"stateMutability":"nonpayable"},{"type":"function","name":"setPreMigrationTransferable","inputs":[{"name":"_addr","type":"address","internalType":"address"},{"name":"isAuthorized","type":"bool","internalType":"bool"}],"outputs":[],"stateMutability":"nonpayable"},{"type":"function","name":"swapEnabled","inputs":[],"outputs":[{"name":"","type":"bool","internalType":"bool"}],"stateMutability":"view"},{"type":"function","name":"swapTokensAtAmount","inputs":[],"outputs":[{"name":"","type":"uint256","internalType":"uint256"}],"stateMutability":"view"},{"type":"function","name":"symbol","inputs":[],"outputs":[{"name":"","type":"string","internalType":"string"}],"stateMutability":"view"},{"type":"function","name":"tokensForLiquidity","inputs":[],"outputs":[{"name":"","type":"uint256","internalType":"uint256"}],"stateMutability":"view"},{"type":"function","name":"tokensForRevShare","inputs":[],"outputs":[{"name":"","type":"uint256","internalType":"uint256"}],"stateMutability":"view"},{"type":"function","name":"tokensForTreasury","inputs":[],"outputs":[{"name":"","type":"uint256","internalType":"uint256"}],"stateMutability":"view"},{"type":"function","name":"totalSupply","inputs":[],"outputs":[{"name":"","type":"uint256","internalType":"uint256"}],"stateMutability":"view"},{"type":"function","name":"tradingActive","inputs":[],"outputs":[{"name":"","type":"bool","internalType":"bool"}],"stateMutability":"view"},{"type":"function","name":"transfer","inputs":[{"name":"to","type":"address","internalType":"address"},{"name":"amount","type":"uint256","internalType":"uint256"}],"outputs":[{"name":"","type":"bool","internalType":"bool"}],"stateMutability":"nonpayable"},{"type":"function","name":"transferFrom","inputs":[{"name":"from","type":"address","internalType":"address"},{"name":"to","type":"address","internalType":"address"},{"name":"amount","type":"uint256","internalType":"uint256"}],"outputs":[{"name":"","type":"bool","internalType":"bool"}],"stateMutability":"nonpayable"},{"type":"function","name":"transferOwnership","inputs":[{"name":"newOwner","type":"address","internalType":"address"}],"outputs":[],"stateMutability":"nonpayable"},{"type":"function","name":"unblacklist","inputs":[{"name":"_addr","type":"address","internalType":"address"}],"outputs":[],"stateMutability":"nonpayable"},{"type":"function","name":"updateBuyFees","inputs":[{"name":"_revShareFee","type":"uint256","internalType":"uint256"},{"name":"_liquidityFee","type":"uint256","internalType":"uint256"},{"name":"_teamFee","type":"uint256","internalType":"uint256"}],"outputs":[],"stateMutability":"nonpayable"},{"type":"function","name":"updateMaxTxnAmount","inputs":[{"name":"newNum","type":"uint256","internalType":"uint256"}],"outputs":[],"stateMutability":"nonpayable"},{"type":"function","name":"updateMaxWalletAmount","inputs":[{"name":"newNum","type":"uint256","internalType":"uint256"}],"outputs":[],"stateMutability":"nonpayable"},{"type":"function","name":"updateSellFees","inputs":[{"name":"_revShareFee","type":"uint256","internalType":"uint256"},{"name":"_liquidityFee","type":"uint256","internalType":"uint256"},{"name":"_teamFee","type":"uint256","internalType":"uint256"}],"outputs":[],"stateMutability":"nonpayable"},{"type":"function","name":"updateSwapEnabled","inputs":[{"name":"enabled","type":"bool","internalType":"bool"}],"outputs":[],"stateMutability":"nonpayable"},{"type":"function","name":"updateSwapTokensAtAmount","inputs":[{"name":"newAmount","type":"uint256","internalType":"uint256"}],"outputs":[{"name":"","type":"bool","internalType":"bool"}],"stateMutability":"nonpayable"},{"type":"function","name":"ve","inputs":[],"outputs":[{"name":"","type":"address","internalType":"address"}],"stateMutability":"view"},{"type":"function","name":"veEnabled","inputs":[],"outputs":[{"name":"","type":"bool","internalType":"bool"}],"stateMutability":"view"},{"type":"function","name":"withdrawStuckEth","inputs":[{"name":"toAddr","type":"address","internalType":"address"}],"outputs":[],"stateMutability":"nonpayable"},{"type":"function","name":"withdrawStuckPINT","inputs":[],"outputs":[],"stateMutability":"nonpayable"},{"type":"function","name":"withdrawStuckToken","inputs":[{"name":"_token","type":"address","internalType":"address"},{"name":"_to","type":"address","internalType":"address"}],"outputs":[],"stateMutability":"nonpayable"},{"type":"event","name":"Approval","inputs":[{"name":"owner","type":"address","indexed":true,"internalType":"address"},{"name":"spender","type":"address","indexed":true,"internalType":"address"},{"name":"value","type":"uint256","indexed":false,"internalType":"uint256"}],"anonymous":false},{"type":"event","name":"EIP712DomainChanged","inputs":[],"anonymous":false},{"type":"event","name":"ExcludeFromFees","inputs":[{"name":"account","type":"address","indexed":true,"internalType":"address"},{"name":"isExcluded","type":"bool","indexed":false,"internalType":"bool"}],"anonymous":false},{"type":"event","name":"Initialized","inputs":[{"name":"version","type":"uint8","indexed":false,"internalType":"uint8"}],"anonymous":false},{"type":"event","name":"OwnershipTransferred","inputs":[{"name":"previousOwner","type":"address","indexed":true,"internalType":"address"},{"name":"newOwner","type":"address","indexed":true,"internalType":"address"}],"anonymous":false},{"type":"event","name":"SetAutomatedMarketMakerPair","inputs":[{"name":"pair","type":"address","indexed":true,"internalType":"address"},{"name":"value","type":"bool","indexed":true,"internalType":"bool"}],"anonymous":false},{"type":"event","name":"SwapAndLiquify","inputs":[{"name":"tokensSwapped","type":"uint256","indexed":false,"internalType":"uint256"},{"name":"ethReceived","type":"uint256","indexed":false,"internalType":"uint256"},{"name":"tokensIntoLiquidity","type":"uint256","indexed":false,"internalType":"uint256"}],"anonymous":false},{"type":"event","name":"Transfer","inputs":[{"name":"from","type":"address","indexed":true,"internalType":"address"},{"name":"to","type":"address","indexed":true,"internalType":"address"},{"name":"value","type":"uint256","indexed":false,"internalType":"uint256"}],"anonymous":false},{"type":"event","name":"UpdateUniswapV2Router","inputs":[{"name":"newAddress","type":"address","indexed":true,"internalType":"address"},{"name":"oldAddress","type":"address","indexed":true,"internalType":"address"}],"anonymous":false},{"type":"error","name":"ZeroAmount","inputs":[]}],"bytecode":{"object":"0x60e06040527358fb30a61c218a3607e9273d52995a49ff2697ee60c052610102805463ff0000001916905534801562000036575f80fd5b50604051620040063803806200400683398101604081905262000059916200008d565b6001600160a01b039182166080521660a052620000c3565b80516001600160a01b038116811462000088575f80fd5b919050565b5f80604083850312156200009f575f80fd5b620000aa8362000071565b9150620000ba6020840162000071565b90509250929050565b60805160a05160c051613ee0620001265f395f818161140401526114b901525f818161051a01526134b601525f818161094e015281816111120152818161113d0152818161158c01528181611e0f0152818161345a01526135470152613ee05ff3fe6080604052600436106103f8575f3560e01c806384b0196e1161020a578063c17b5b8c1161011e578063dd62ed3e116100a8578063f2fde38b11610078578063f2fde38b14610b9f578063f637434214610bbe578063f8b45b0514610bd4578063f9f92be414610b54578063fe575a8714610bea575f80fd5b8063dd62ed3e14610b35578063e19b282314610b54578063e2f4560514610b73578063f11a24d314610b89575f80fd5b8063d11aca62116100ee578063d11aca6214610ab7578063d257b34f14610acb578063d505accf14610aea578063d729715f14610b09578063d85ba06314610b1f575f80fd5b8063c17b5b8c14610a4e578063c18bc19514610a6d578063c8c8ebe414610a8c578063cc2ffe7c14610aa1575f80fd5b8063a457c2d71161019f578063b62496f51161016f578063b62496f5146109ae578063b787510b146109dd578063bbc0c742146109f1578063bc205ad314610a10578063c024666814610a2f575f80fd5b8063a457c2d71461091e578063a8aa1b311461093d578063a9059cbb14610970578063aa0e43881461098f575f80fd5b8063924de9b7116101da578063924de9b7146108b657806395d89b41146108d55780639a7a23d6146108e95780639c2e4ac614610908575f80fd5b806384b0196e1461084a5780638a8c523c146108715780638da5cb5b146108855780638fd3ab80146108a2575f80fd5b8063395093511161030c57806370a082311161029657806375e3661e1161026657806375e3661e146107ba5780637ca8448a146107d95780637ecebe00146107f85780638095d564146108175780638129fc1c14610836575f80fd5b806370a082311461073f578063715018a614610773578063751039fc146107875780637571336a1461079b575f80fd5b80634fbee193116102dc5780634fbee193146106a957806359e741d2146106e15780635f189361146106f55780636a486a8e146107095780636ddd17131461071f575f80fd5b806339509351146106205780633dc599ff1461063f5780634a62bb65146106605780634e29e5231461067a575f80fd5b80631f8507161161038d57806327c8f8351161035d57806327c8f835146105aa57806328696de2146105bf5780632a5af8b7146105d3578063313ce567146105f15780633644e5151461060c575f80fd5b80631f85071614610509578063203e727e1461055457806323b872dd1461057557806324b9f3c114610594575f80fd5b8063156c2f35116103c8578063156c2f35146104a557806318160ddd146104c957806319eab042146104dd5780631a8145bb146104f3575f80fd5b806306fdde0314610403578063095ea7b31461042d5780630e922ca71461045c57806310d5de5314610476575f80fd5b366103ff57005b5f80fd5b34801561040e575f80fd5b50610417610c22565b604051610424919061389d565b60405180910390f35b348015610438575f80fd5b5061044c6104473660046138c3565b610cb2565b6040519015158152602001610424565b348015610467575f80fd5b506101125461044c9060ff1681565b348015610481575f80fd5b5061044c6104903660046138ed565b6101106020525f908152604090205460ff1681565b3480156104b0575f80fd5b506104bb6101055481565b604051908152602001610424565b3480156104d4575f80fd5b506067546104bb565b3480156104e8575f80fd5b506104bb6101095481565b3480156104fe575f80fd5b506104bb61010d5481565b348015610514575f80fd5b5061053c7f000000000000000000000000000000000000000000000000000000000000000081565b6040516001600160a01b039091168152602001610424565b34801561055f575f80fd5b5061057361056e366004613908565b610ccb565b005b348015610580575f80fd5b5061044c61058f36600461391f565b610d8b565b34801561059f575f80fd5b506104bb61010c5481565b3480156105b5575f80fd5b5061053c61dead81565b3480156105ca575f80fd5b50610573610dae565b3480156105de575f80fd5b5060fe5461044c90610100900460ff1681565b3480156105fc575f80fd5b5060405160128152602001610424565b348015610617575f80fd5b506104bb610dc3565b34801561062b575f80fd5b5061044c61063a3660046138c3565b610dd1565b34801561064a575f80fd5b506101025461044c906301000000900460ff1681565b34801561066b575f80fd5b506101025461044c9060ff1681565b348015610685575f80fd5b5061044c6106943660046138ed565b6101136020525f908152604090205460ff1681565b3480156106b4575f80fd5b5061044c6106c33660046138ed565b6001600160a01b03165f90815261010f602052604090205460ff1690565b3480156106ec575f80fd5b506104bb600a81565b348015610700575f80fd5b50610573610df2565b348015610714575f80fd5b506104bb6101085481565b34801561072a575f80fd5b506101025461044c9062010000900460ff1681565b34801561074a575f80fd5b506104bb6107593660046138ed565b6001600160a01b03165f9081526065602052604090205490565b34801561077e575f80fd5b50610573610e10565b348015610792575f80fd5b5061044c610e23565b3480156107a6575f80fd5b506105736107b536600461396a565b610e3d565b3480156107c5575f80fd5b506105736107d43660046138ed565b610e70565b3480156107e4575f80fd5b506105736107f33660046138ed565b610e99565b348015610803575f80fd5b506104bb6108123660046138ed565b610f00565b348015610822575f80fd5b506105736108313660046139a1565b610f1d565b348015610841575f80fd5b50610573610fa0565b348015610855575f80fd5b5061085e61132d565b60405161042497969594939291906139ca565b34801561087c575f80fd5b506105736113c6565b348015610890575f80fd5b506033546001600160a01b031661053c565b3480156108ad575f80fd5b506105736113ed565b3480156108c1575f80fd5b506105736108d0366004613a61565b611544565b3480156108e0575f80fd5b50610417611569565b3480156108f4575f80fd5b5061057361090336600461396a565b611578565b348015610913575f80fd5b506104bb6101075481565b348015610929575f80fd5b5061044c6109383660046138c3565b611631565b348015610948575f80fd5b5061053c7f000000000000000000000000000000000000000000000000000000000000000081565b34801561097b575f80fd5b5061044c61098a3660046138c3565b6116ab565b34801561099a575f80fd5b506105736109a936600461396a565b6116b8565b3480156109b9575f80fd5b5061044c6109c83660046138ed565b6101116020525f908152604090205460ff1681565b3480156109e8575f80fd5b506105736116f8565b3480156109fc575f80fd5b506101025461044c90610100900460ff1681565b348015610a1b575f80fd5b50610573610a2a366004613a7c565b6117f1565b348015610a3a575f80fd5b50610573610a4936600461396a565b611931565b348015610a59575f80fd5b50610573610a683660046139a1565b611998565b348015610a78575f80fd5b50610573610a87366004613908565b611a1d565b348015610a97575f80fd5b506104bb60ff5481565b348015610aac575f80fd5b506104bb61010e5481565b348015610ac2575f80fd5b50610573611acd565b348015610ad6575f80fd5b5061044c610ae5366004613908565b611ae6565b348015610af5575f80fd5b50610573610b04366004613aa8565b611c15565b348015610b14575f80fd5b506104bb61010b5481565b348015610b2a575f80fd5b506104bb6101045481565b348015610b40575f80fd5b506104bb610b4f366004613a7c565b611d76565b348015610b5f575f80fd5b50610573610b6e3660046138ed565b611da0565b348015610b7e575f80fd5b506104bb6101005481565b348015610b94575f80fd5b506104bb6101065481565b348015610baa575f80fd5b50610573610bb93660046138ed565b611ef3565b348015610bc9575f80fd5b506104bb61010a5481565b348015610bdf575f80fd5b506104bb6101015481565b348015610bf5575f80fd5b5061044c610c043660046138ed565b6001600160a01b03165f908152610103602052604090205460ff1690565b606060688054610c3190613b19565b80601f0160208091040260200160405190810160405280929190818152602001828054610c5d90613b19565b8015610ca85780601f10610c7f57610100808354040283529160200191610ca8565b820191905f5260205f20905b815481529060010190602001808311610c8b57829003601f168201915b5050505050905090565b5f33610cbf818585611f69565b60019150505b92915050565b610cd361208c565b670de0b6b3a76400006103e8610ce860675490565b610cf3906005613b5f565b610cfd9190613b76565b610d079190613b76565b811015610d735760405162461bcd60e51b815260206004820152602f60248201527f43616e6e6f7420736574206d61785472616e73616374696f6e416d6f756e742060448201526e6c6f776572207468616e20302e352560881b60648201526084015b60405180910390fd5b610d8581670de0b6b3a7640000613b5f565b60ff5550565b5f33610d988582856120e6565b610da3858585612158565b506001949350505050565b610db661208c565b60fe805461ff0019169055565b5f610dcc612996565b905090565b5f33610cbf818585610de38383611d76565b610ded9190613b95565b611f69565b610dfa61208c565b610102805463ff00000019166301000000179055565b610e1861208c565b610e215f61299f565b565b5f610e2c61208c565b50610102805460ff19169055600190565b610e4561208c565b6001600160a01b03919091165f90815261011060205260409020805460ff1916911515919091179055565b610e7861208c565b6001600160a01b03165f90815261010360205260409020805460ff19169055565b610ea161208c565b5f816001600160a01b0316476040515f6040518083038185875af1925050503d805f8114610eea576040519150601f19603f3d011682016040523d82523d5f602084013e610eef565b606091505b5050905080610efc575f80fd5b5050565b6001600160a01b0381165f90815260cb6020526040812054610cc5565b610f2561208c565b61010583905561010682905561010781905580610f428385613b95565b610f4c9190613b95565b61010481905560051015610f9b5760405162461bcd60e51b8152602060048201526016602482015275213abc903332b2b99036bab9ba103132901e1e901a9760511b6044820152606401610d6a565b505050565b5f54610100900460ff1615808015610fbe57505f54600160ff909116105b80610fd75750303b158015610fd757505f5460ff166001145b61103a5760405162461bcd60e51b815260206004820152602e60248201527f496e697469616c697a61626c653a20636f6e747261637420697320616c72656160448201526d191e481a5b9a5d1a585b1a5e995960921b6064820152608401610d6a565b5f805460ff19166001179055801561105b575f805461ff0019166101001790555b6110a1604051806040016040528060068152602001652824a72a2b1960d11b815250604051806040016040528060068152602001652824a72a2b1960d11b8152506129f0565b6110c8604051806040016040528060068152602001652824a72a2b1960d11b815250612a2f565b6110d0612a55565b6101028054600160ff19918216811790925561011280549091168217905561110d90737a250d5630b4cf539739df2c5dacb4c659f2488d90610e3d565b6111387f00000000000000000000000000000000000000000000000000000000000000006001610e3d565b6111637f00000000000000000000000000000000000000000000000000000000000000006001612a83565b6a084595161401484a00000060ff8190556101015560026001818082816a52b7d2dcc80cd2e400000061271061119a826005613b5f565b6111a49190613b76565b61010055610105879055610106869055610107859055846111c58789613b95565b6111cf9190613b95565b6101045561010984905561010a83905561010b829055816111f08486613b95565b6111fa9190613b95565b6101085561121d73ec3de41d5ead4cebffd656f7fc9d1a8d8ff0f8c06001611931565b611228306001611931565b61123561dead6001611931565b61125473ec3de41d5ead4cebffd656f7fc9d1a8d8ff0f8c06001610e3d565b61125f306001610e3d565b61126c61dead6001610e3d565b73ec3de41d5ead4cebffd656f7fc9d1a8d8ff0f8c05f8190526101136020527f781104449b143e435fb102fc142c9f59e2f929290c8f8e6bb569be4278b55cfc805460ff191660011790556112c090611ef3565b6112de73ec3de41d5ead4cebffd656f7fc9d1a8d8ff0f8c082612ad7565b50505050505050801561132a575f805461ff0019169055604051600181527f7f26b83ff96e1f2b6a682f133852f6798a09c465da95921460cefb38474024989060200160405180910390a15b50565b5f6060805f805f60606097545f801b1480156113495750609854155b61138d5760405162461bcd60e51b81526020600482015260156024820152741152540dcc4c8e88155b9a5b9a5d1a585b1a5e9959605a1b6044820152606401610d6a565b611395612b96565b61139d612ba5565b604080515f80825260208201909252600f60f81b9b939a50919850469750309650945092509050565b6113ce61208c565b610102805462ffff00191662010100179055610112805460ff19169055565b6040516370a0823160e01b81523360048201525f907f00000000000000000000000000000000000000000000000000000000000000006001600160a01b0316906370a0823190602401602060405180830381865afa158015611451573d5f803e3d5ffd5b505050506040513d601f19601f820116820180604052508101906114759190613bbc565b9050805f0361149757604051631f2a200560e01b815260040160405180910390fd5b6040516323b872dd60e01b8152336004820152306024820152604481018290527f00000000000000000000000000000000000000000000000000000000000000006001600160a01b0316906323b872dd906064016020604051808303815f875af1158015611507573d5f803e3d5ffd5b505050506040513d601f19601f8201168201806040525081019061152b9190613bd3565b505f611538600a83613b76565b9050610efc3382612ad7565b61154c61208c565b6101028054911515620100000262ff000019909216919091179055565b606060698054610c3190613b19565b61158061208c565b816001600160a01b03167f00000000000000000000000000000000000000000000000000000000000000006001600160a01b0316036116275760405162461bcd60e51b815260206004820152603960248201527f54686520706169722063616e6e6f742062652072656d6f7665642066726f6d2060448201527f6175746f6d617465644d61726b65744d616b65725061697273000000000000006064820152608401610d6a565b610efc8282612a83565b5f338161163e8286611d76565b90508381101561169e5760405162461bcd60e51b815260206004820152602560248201527f45524332303a2064656372656173656420616c6c6f77616e63652062656c6f77604482015264207a65726f60d81b6064820152608401610d6a565b610da38286868403611f69565b5f33610cbf818585612158565b6116c061208c565b6001600160a01b0382165f90815261011360205260409020805460ff19168215151790556116ee8282611931565b610efc8282610e3d565b61170061208c565b6040516370a0823160e01b815230600482018190525f916370a0823190602401602060405180830381865afa15801561173b573d5f803e3d5ffd5b505050506040513d601f19601f8201168201806040525081019061175f9190613bbc565b60405163a9059cbb60e01b815233600482015260248101829052909150309063a9059cbb906044016020604051808303815f875af11580156117a3573d5f803e3d5ffd5b505050506040513d601f19601f820116820180604052508101906117c79190613bd3565b5060405133904780156108fc02915f818181858888f19350505050158015610efc573d5f803e3d5ffd5b6117f961208c565b6001600160a01b03821661184f5760405162461bcd60e51b815260206004820152601a60248201527f5f746f6b656e20616464726573732063616e6e6f7420626520300000000000006044820152606401610d6a565b6040516370a0823160e01b81523060048201525f906001600160a01b038416906370a0823190602401602060405180830381865afa158015611893573d5f803e3d5ffd5b505050506040513d601f19601f820116820180604052508101906118b79190613bbc565b60405163a9059cbb60e01b81526001600160a01b038481166004830152602482018390529192509084169063a9059cbb906044016020604051808303815f875af1158015611907573d5f803e3d5ffd5b505050506040513d601f19601f8201168201806040525081019061192b9190613bd3565b50505050565b61193961208c565b6001600160a01b0382165f81815261010f6020908152604091829020805460ff191685151590811790915591519182527f9d8f7706ea1113d1a167b526eca956215946dd36cc7df39eb16180222d8b5df7910160405180910390a25050565b6119a061208c565b61010983905561010a82905561010b819055806119bd8385613b95565b6119c79190613b95565b61010881905560051015610f9b5760405162461bcd60e51b815260206004820152601760248201527f53656c6c2066656573206d757374206265203c3d20352e0000000000000000006044820152606401610d6a565b611a2561208c565b670de0b6b3a76400006103e8611a3a60675490565b611a4590600a613b5f565b611a4f9190613b76565b611a599190613b76565b811015611ab45760405162461bcd60e51b8152602060048201526024808201527f43616e6e6f7420736574206d617857616c6c6574206c6f776572207468616e20604482015263312e302560e01b6064820152608401610d6a565b611ac681670de0b6b3a7640000613b5f565b6101015550565b611ad561208c565b60fe805461ff001916610100179055565b5f611aef61208c565b620186a0611afc60675490565b611b07906001613b5f565b611b119190613b76565b821015611b7e5760405162461bcd60e51b815260206004820152603560248201527f5377617020616d6f756e742063616e6e6f74206265206c6f776572207468616e60448201527410181718181892903a37ba30b61039bab838363c9760591b6064820152608401610d6a565b6103e8611b8a60675490565b611b95906005613b5f565b611b9f9190613b76565b821115611c0b5760405162461bcd60e51b815260206004820152603460248201527f5377617020616d6f756e742063616e6e6f742062652068696768657220746861604482015273371018171a92903a37ba30b61039bab838363c9760611b6064820152608401610d6a565b5061010055600190565b83421115611c655760405162461bcd60e51b815260206004820152601d60248201527f45524332305065726d69743a206578706972656420646561646c696e650000006044820152606401610d6a565b5f7f6e71edae12b1b97f4d1f60370fef10105fa2faae0126114a169c64845d6126c9888888611c938c612bb4565b6040805160208101969096526001600160a01b0394851690860152929091166060840152608083015260a082015260c0810186905260e0016040516020818303038152906040528051906020012090505f611ced82612bdb565b90505f611cfc82878787612c07565b9050896001600160a01b0316816001600160a01b031614611d5f5760405162461bcd60e51b815260206004820152601e60248201527f45524332305065726d69743a20696e76616c6964207369676e617475726500006044820152606401610d6a565b611d6a8a8a8a611f69565b50505050505050505050565b6001600160a01b039182165f90815260666020908152604080832093909416825291909152205490565b611da861208c565b610102546301000000900460ff1615611e0d5760405162461bcd60e51b815260206004820152602160248201527f5465616d20686173207265766f6b656420626c61636b6c6973742072696768746044820152607360f81b6064820152608401610d6a565b7f00000000000000000000000000000000000000000000000000000000000000006001600160a01b0316816001600160a01b031614158015611e6c57506001600160a01b038116737a250d5630b4cf539739df2c5dacb4c659f2488d14155b611ecf5760405162461bcd60e51b815260206004820152602e60248201527f43616e6e6f7420626c61636b6c69737420746f6b656e277320763220726f757460448201526d32b91037b9103b19103837b7b61760911b6064820152608401610d6a565b6001600160a01b03165f90815261010360205260409020805460ff19166001179055565b611efb61208c565b6001600160a01b038116611f605760405162461bcd60e51b815260206004820152602660248201527f4f776e61626c653a206e6577206f776e657220697320746865207a65726f206160448201526564647265737360d01b6064820152608401610d6a565b61132a8161299f565b6001600160a01b038316611fcb5760405162461bcd60e51b8152602060048201526024808201527f45524332303a20617070726f76652066726f6d20746865207a65726f206164646044820152637265737360e01b6064820152608401610d6a565b6001600160a01b03821661202c5760405162461bcd60e51b815260206004820152602260248201527f45524332303a20617070726f766520746f20746865207a65726f206164647265604482015261737360f01b6064820152608401610d6a565b6001600160a01b038381165f8181526066602090815260408083209487168084529482529182902085905590518481527f8c5be1e5ebec7d5bd14f71427d1e84f3dd0314c0f7b2291e5b200ac8c7c3b925910160405180910390a3505050565b6033546001600160a01b03163314610e215760405162461bcd60e51b815260206004820181905260248201527f4f776e61626c653a2063616c6c6572206973206e6f7420746865206f776e65726044820152606401610d6a565b5f6120f18484611d76565b90505f19811461192b578181101561214b5760405162461bcd60e51b815260206004820152601d60248201527f45524332303a20696e73756666696369656e7420616c6c6f77616e63650000006044820152606401610d6a565b61192b8484848403611f69565b6001600160a01b03831661217e5760405162461bcd60e51b8152600401610d6a90613bee565b6001600160a01b0382166121a45760405162461bcd60e51b8152600401610d6a90613c33565b6001600160a01b0383165f908152610103602052604090205460ff16156122025760405162461bcd60e51b815260206004820152601260248201527114d95b99195c88189b1858dadb1a5cdd195960721b6044820152606401610d6a565b6001600160a01b0382165f908152610103602052604090205460ff16156122625760405162461bcd60e51b8152602060048201526014602482015273149958d95a5d995c88189b1858dadb1a5cdd195960621b6044820152606401610d6a565b6101125460ff16156122e8576001600160a01b0383165f908152610113602052604090205460ff166122e85760405162461bcd60e51b815260206004820152602960248201527f4e6f7420617574686f72697a656420746f207472616e73666572207072652d6d60448201526834b3b930ba34b7b71760b91b6064820152608401610d6a565b805f036122fa57610f9b83835f612c2f565b6101025460ff161561266b576033546001600160a01b0384811691161480159061233257506033546001600160a01b03838116911614155b801561234657506001600160a01b03821615155b801561235d57506001600160a01b03821661dead14155b801561236c575060fe5460ff16155b1561266b5761010254610100900460ff16612405576001600160a01b0383165f90815261010f602052604090205460ff16806123c057506001600160a01b0382165f90815261010f602052604090205460ff165b6124055760405162461bcd60e51b81526020600482015260166024820152752a3930b234b7339034b9903737ba1030b1ba34bb329760511b6044820152606401610d6a565b6001600160a01b0383165f908152610111602052604090205460ff16801561244657506001600160a01b0382165f908152610110602052604090205460ff16155b1561252a5760ff548111156124bb5760405162461bcd60e51b815260206004820152603560248201527f427579207472616e7366657220616d6f756e742065786365656473207468652060448201527436b0bc2a3930b739b0b1ba34b7b720b6b7bab73a1760591b6064820152608401610d6a565b610101546001600160a01b0383165f908152606560205260409020546124e19083613b95565b11156125255760405162461bcd60e51b815260206004820152601360248201527213585e081dd85b1b195d08195e18d959591959606a1b6044820152606401610d6a565b61266b565b6001600160a01b0382165f908152610111602052604090205460ff16801561256b57506001600160a01b0383165f908152610110602052604090205460ff16155b156125e15760ff548111156125255760405162461bcd60e51b815260206004820152603660248201527f53656c6c207472616e7366657220616d6f756e742065786365656473207468656044820152751036b0bc2a3930b739b0b1ba34b7b720b6b7bab73a1760511b6064820152608401610d6a565b6001600160a01b0382165f908152610110602052604090205460ff1661266b57610101546001600160a01b0383165f908152606560205260409020546126279083613b95565b111561266b5760405162461bcd60e51b815260206004820152601360248201527213585e081dd85b1b195d08195e18d959591959606a1b6044820152606401610d6a565b305f90815260656020526040902054610100548110801590819061269857506101025462010000900460ff165b80156126a7575060fe5460ff16155b80156126cc57506001600160a01b0385165f908152610111602052604090205460ff16155b80156126f157506001600160a01b0385165f90815261010f602052604090205460ff16155b801561271657506001600160a01b0384165f90815261010f602052604090205460ff16155b1561273b5760fe805460ff19166001179055612730612d5e565b60fe805460ff191690555b60fe546001600160a01b0386165f90815261010f602052604090205460ff9182161591168061278257506001600160a01b0385165f90815261010f602052604090205460ff165b1561278a57505f5b5f8115612982576001600160a01b0386165f908152610111602052604090205460ff1680156127bb57505f61010854115b15612880576127e160646127db6101085488612f8390919063ffffffff16565b90612f95565b90506101085461010a54826127f69190613b5f565b6128009190613b76565b61010d5f8282546128119190613b95565b90915550506101085461010b546128289083613b5f565b6128329190613b76565b61010e5f8282546128439190613b95565b9091555050610108546101095461285a9083613b5f565b6128649190613b76565b61010c5f8282546128759190613b95565b909155506129649050565b6001600160a01b0387165f908152610111602052604090205460ff1680156128aa57505f61010454115b15612964576128ca60646127db6101045488612f8390919063ffffffff16565b90506101045461010654826128df9190613b5f565b6128e99190613b76565b61010d5f8282546128fa9190613b95565b909155505061010454610107546129119083613b5f565b61291b9190613b76565b61010e5f82825461292c9190613b95565b909155505061010454610105546129439083613b5f565b61294d9190613b76565b61010c5f82825461295e9190613b95565b90915550505b801561297557612975873083612c2f565b61297f8186613c76565b94505b61298d878787612c2f565b50505050505050565b5f610dcc612fa0565b603380546001600160a01b038381166001600160a01b0319831681179093556040519116919082907f8be0079c531659141344cd1fd0a4f28419497f9722a3daafe3b4186f6b6457e0905f90a35050565b5f54610100900460ff16612a165760405162461bcd60e51b8152600401610d6a90613c89565b6068612a228382613d1f565b506069610f9b8282613d1f565b5f54610100900460ff1661132a5760405162461bcd60e51b8152600401610d6a90613c89565b5f54610100900460ff16612a7b5760405162461bcd60e51b8152600401610d6a90613c89565b610e21613013565b6001600160a01b0382165f8181526101116020526040808220805460ff191685151590811790915590519092917fffa9187bf1f18bf477bd0ea1bcbb64e93b6a98132473929edfce215cd9b16fab91a35050565b6001600160a01b038216612b2d5760405162461bcd60e51b815260206004820152601f60248201527f45524332303a206d696e7420746f20746865207a65726f2061646472657373006044820152606401610d6a565b8060675f828254612b3e9190613b95565b90915550506001600160a01b0382165f818152606560209081526040808320805486019055518481527fddf252ad1be2c89b69c2b068fc378daa952ba7f163c4a11628f55a4df523b3ef910160405180910390a35050565b606060998054610c3190613b19565b6060609a8054610c3190613b19565b6001600160a01b0381165f90815260cb602052604090208054600181018255905b50919050565b5f610cc5612be7612996565b8360405161190160f01b8152600281019290925260228201526042902090565b5f805f612c1687878787613042565b91509150612c23816130ff565b5090505b949350505050565b6001600160a01b038316612c555760405162461bcd60e51b8152600401610d6a90613bee565b6001600160a01b038216612c7b5760405162461bcd60e51b8152600401610d6a90613c33565b6001600160a01b0383165f9081526065602052604090205481811015612cf25760405162461bcd60e51b815260206004820152602660248201527f45524332303a207472616e7366657220616d6f756e7420657863656564732062604482015265616c616e636560d01b6064820152608401610d6a565b6001600160a01b038085165f8181526065602052604080822086860390559286168082529083902080548601905591517fddf252ad1be2c89b69c2b068fc378daa952ba7f163c4a11628f55a4df523b3ef90612d519086815260200190565b60405180910390a361192b565b305f9081526065602052604081205490505f61010e5461010c5461010d54612d869190613b95565b612d909190613b95565b9050811580612d9d575080155b15612da6575050565b61010054612db5906014613b5f565b821115612dce5761010054612dcb906014613b5f565b91505b5f60028261010d5485612de19190613b5f565b612deb9190613b76565b612df59190613b76565b90505f612e028483613248565b905047612e0e82613253565b5f612e194783613248565b90505f612e48600261010d54612e2f9190613b76565b612e399088613c76565b61010c546127db908590612f83565b90505f612e77600261010d54612e5e9190613b76565b612e689089613c76565b61010e546127db908690612f83565b90505f81612e858486613c76565b612e8f9190613c76565b5f61010d81905561010c81905561010e5590508615801590612eb057505f81115b15612f0d57612ec887612ec38584613b95565b6133dc565b61010d54604080518881526020810184905280820192909252517f17bbfb9a6069321b6ded73bd96327c9e6b7212a5cd51ff219cd61370acafb5619181900360600190a15b8115612f78576040515f9073ec3de41d5ead4cebffd656f7fc9d1a8d8ff0f8c09084908381818185875af1925050503d805f8114612f66576040519150601f19603f3d011682016040523d82523d5f602084013e612f6b565b606091505b5050905080611d6a575f80fd5b505050505050505050565b5f612f8e8284613b5f565b9392505050565b5f612f8e8284613b76565b5f7f8b73c3c69bb8fe3d512ecc4cf759cc79239f7b179b0ffacaa9a75d522b39400f612fca61359d565b612fd26135f5565b60408051602081019490945283019190915260608201524660808201523060a082015260c00160405160208183030381529060405280519060200120905090565b5f54610100900460ff166130395760405162461bcd60e51b8152600401610d6a90613c89565b610e213361299f565b5f807f7fffffffffffffffffffffffffffffff5d576e7357a4501ddfe92f46681b20a083111561307757505f905060036130f6565b604080515f8082526020820180845289905260ff881692820192909252606081018690526080810185905260019060a0016020604051602081039080840390855afa1580156130c8573d5f803e3d5ffd5b5050604051601f1901519150506001600160a01b0381166130f0575f600192509250506130f6565b91505f90505b94509492505050565b5f81600481111561311257613112613ddb565b0361311a5750565b600181600481111561312e5761312e613ddb565b0361317b5760405162461bcd60e51b815260206004820152601860248201527f45434453413a20696e76616c6964207369676e617475726500000000000000006044820152606401610d6a565b600281600481111561318f5761318f613ddb565b036131dc5760405162461bcd60e51b815260206004820152601f60248201527f45434453413a20696e76616c6964207369676e6174757265206c656e677468006044820152606401610d6a565b60038160048111156131f0576131f0613ddb565b0361132a5760405162461bcd60e51b815260206004820152602260248201527f45434453413a20696e76616c6964207369676e6174757265202773272076616c604482015261756560f01b6064820152608401610d6a565b5f612f8e8284613c76565b6040805160028082526060820183525f9260208301908036833701905050905030815f8151811061328657613286613def565b60200260200101906001600160a01b031690816001600160a01b031681525050737a250d5630b4cf539739df2c5dacb4c659f2488d6001600160a01b031663ad5c46486040518163ffffffff1660e01b8152600401602060405180830381865afa1580156132f6573d5f803e3d5ffd5b505050506040513d601f19601f8201168201806040525081019061331a9190613e03565b8160018151811061332d5761332d613def565b60200260200101906001600160a01b031690816001600160a01b03168152505061336c30737a250d5630b4cf539739df2c5dacb4c659f2488d84611f69565b60405163791ac94760e01b8152737a250d5630b4cf539739df2c5dacb4c659f2488d9063791ac947906133ab9085905f90869030904290600401613e1e565b5f604051808303815f87803b1580156133c2575f80fd5b505af11580156133d4573d5f803e3d5ffd5b505050505050565b73c02aaa39b223fe8d0a0e5c4f27ead9083c756cc26001600160a01b031663d0e30db0826040518263ffffffff1660e01b81526004015f604051808303818588803b158015613429575f80fd5b505af115801561343b573d5f803e3d5ffd5b50613483935073c02aaa39b223fe8d0a0e5c4f27ead9083c756cc292507f00000000000000000000000000000000000000000000000000000000000000009150849050613625565b60fe54309063a9059cbb90610100900460ff166134b45773ec3de41d5ead4cebffd656f7fc9d1a8d8ff0f8c06134d6565b7f00000000000000000000000000000000000000000000000000000000000000005b6040516001600160e01b031960e084901b1681526001600160a01b039091166004820152602481018590526044016020604051808303815f875af1158015613520573d5f803e3d5ffd5b505050506040513d601f19601f820116820180604052508101906135449190613bd3565b507f00000000000000000000000000000000000000000000000000000000000000006001600160a01b031663fff6cae96040518163ffffffff1660e01b81526004015f604051808303815f87803b1580156133c2575f80fd5b5f806135a7612b96565b8051909150156135be578051602090910120919050565b60975480156135cd5792915050565b7fc5d2460186f7233c927e7db2dcc703c0e500b653ca82273b7bfad8045d85a4709250505090565b5f806135ff612ba5565b805190915015613616578051602090910120919050565b60985480156135cd5792915050565b604080516001600160a01b03848116602483015260448083018590528351808403909101815260649092018352602080830180516001600160e01b031663a9059cbb60e01b17905283518085019094528084527f5361666545524332303a206c6f772d6c6576656c2063616c6c206661696c656490840152610f9b928692915f916136b4918516908490613733565b905080515f14806136d45750808060200190518101906136d49190613bd3565b610f9b5760405162461bcd60e51b815260206004820152602a60248201527f5361666545524332303a204552433230206f7065726174696f6e20646964206e6044820152691bdd081cdd58d8d9595960b21b6064820152608401610d6a565b6060612c2784845f85855f80866001600160a01b031685876040516137589190613e8f565b5f6040518083038185875af1925050503d805f8114613792576040519150601f19603f3d011682016040523d82523d5f602084013e613797565b606091505b50915091506137a8878383876137b3565b979650505050505050565b606083156138215782515f0361381a576001600160a01b0385163b61381a5760405162461bcd60e51b815260206004820152601d60248201527f416464726573733a2063616c6c20746f206e6f6e2d636f6e74726163740000006044820152606401610d6a565b5081612c27565b612c2783838151156138365781518083602001fd5b8060405162461bcd60e51b8152600401610d6a919061389d565b5f5b8381101561386a578181015183820152602001613852565b50505f910152565b5f8151808452613889816020860160208601613850565b601f01601f19169290920160200192915050565b602081525f612f8e6020830184613872565b6001600160a01b038116811461132a575f80fd5b5f80604083850312156138d4575f80fd5b82356138df816138af565b946020939093013593505050565b5f602082840312156138fd575f80fd5b8135612f8e816138af565b5f60208284031215613918575f80fd5b5035919050565b5f805f60608486031215613931575f80fd5b833561393c816138af565b9250602084013561394c816138af565b929592945050506040919091013590565b801515811461132a575f80fd5b5f806040838503121561397b575f80fd5b8235613986816138af565b915060208301356139968161395d565b809150509250929050565b5f805f606084860312156139b3575f80fd5b505081359360208301359350604090920135919050565b60ff60f81b881681525f602060e060208401526139ea60e084018a613872565b83810360408501526139fc818a613872565b606085018990526001600160a01b038816608086015260a0850187905284810360c0860152855180825260208088019350909101905f5b81811015613a4f57835183529284019291840191600101613a33565b50909c9b505050505050505050505050565b5f60208284031215613a71575f80fd5b8135612f8e8161395d565b5f8060408385031215613a8d575f80fd5b8235613a98816138af565b91506020830135613996816138af565b5f805f805f805f60e0888a031215613abe575f80fd5b8735613ac9816138af565b96506020880135613ad9816138af565b95506040880135945060608801359350608088013560ff81168114613afc575f80fd5b9699959850939692959460a0840135945060c09093013592915050565b600181811c90821680613b2d57607f821691505b602082108103612bd557634e487b7160e01b5f52602260045260245ffd5b634e487b7160e01b5f52601160045260245ffd5b8082028115828204841417610cc557610cc5613b4b565b5f82613b9057634e487b7160e01b5f52601260045260245ffd5b500490565b80820180821115610cc557610cc5613b4b565b634e487b7160e01b5f52604160045260245ffd5b5f60208284031215613bcc575f80fd5b5051919050565b5f60208284031215613be3575f80fd5b8151612f8e8161395d565b60208082526025908201527f45524332303a207472616e736665722066726f6d20746865207a65726f206164604082015264647265737360d81b606082015260800190565b60208082526023908201527f45524332303a207472616e7366657220746f20746865207a65726f206164647260408201526265737360e81b606082015260800190565b81810381811115610cc557610cc5613b4b565b6020808252602b908201527f496e697469616c697a61626c653a20636f6e7472616374206973206e6f74206960408201526a6e697469616c697a696e6760a81b606082015260800190565b601f821115610f9b57805f5260205f20601f840160051c81016020851015613cf95750805b601f840160051c820191505b81811015613d18575f8155600101613d05565b5050505050565b815167ffffffffffffffff811115613d3957613d39613ba8565b613d4d81613d478454613b19565b84613cd4565b602080601f831160018114613d80575f8415613d695750858301515b5f19600386901b1c1916600185901b1785556133d4565b5f85815260208120601f198616915b82811015613dae57888601518255948401946001909101908401613d8f565b5085821015613dcb57878501515f19600388901b60f8161c191681555b5050505050600190811b01905550565b634e487b7160e01b5f52602160045260245ffd5b634e487b7160e01b5f52603260045260245ffd5b5f60208284031215613e13575f80fd5b8151612f8e816138af565b5f60a08201878352602087602085015260a0604085015281875180845260c0860191506020890193505f5b81811015613e6e5784516001600160a01b031683529383019391830191600101613e49565b50506001600160a01b03969096166060850152505050608001529392505050565b5f8251613ea0818460208701613850565b919091019291505056fea264697066735822122097f50e39ba6d5b16e049c98eb24a3e471b7569864b06673eaadf08f1bfdab72264736f6c63430008160033","linkReferences":{}},"methodIdentifiers":{"DOMAIN_SEPARATOR()":"3644e515","RATIO()":"59e741d2","_isExcludedMaxTransactionAmount(address)":"10d5de53","allowance(address,address)":"dd62ed3e","approve(address,uint256)":"095ea7b3","automatedMarketMakerPairs(address)":"b62496f5","balanceOf(address)":"70a08231","blacklist(address)":"f9f92be4","blacklistLiquidityPool(address)":"e19b2823","blacklistRenounced()":"3dc599ff","buyLiquidityFee()":"f11a24d3","buyRevShareFee()":"156c2f35","buyTeamFee()":"9c2e4ac6","buyTotalFees()":"d85ba063","deadAddress()":"27c8f835","decimals()":"313ce567","decreaseAllowance(address,uint256)":"a457c2d7","disableStaking()":"28696de2","eip712Domain()":"84b0196e","enableStaking()":"d11aca62","enableTrading()":"8a8c523c","excludeFromFees(address,bool)":"c0246668","excludeFromMaxTransaction(address,bool)":"7571336a","increaseAllowance(address,uint256)":"39509351","initialize()":"8129fc1c","isBlacklisted(address)":"fe575a87","isExcludedFromFees(address)":"4fbee193","limitsInEffect()":"4a62bb65","maxTransactionAmount()":"c8c8ebe4","maxWallet()":"f8b45b05","migrate()":"8fd3ab80","name()":"06fdde03","nonces(address)":"7ecebe00","owner()":"8da5cb5b","pair()":"a8aa1b31","permit(address,address,uint256,uint256,uint8,bytes32,bytes32)":"d505accf","preMigrationPhase()":"0e922ca7","preMigrationTransferrable(address)":"4e29e523","removeLimits()":"751039fc","renounceBlacklist()":"5f189361","renounceOwnership()":"715018a6","sellLiquidityFee()":"f6374342","sellRevShareFee()":"19eab042","sellTeamFee()":"d729715f","sellTotalFees()":"6a486a8e","setAutomatedMarketMakerPair(address,bool)":"9a7a23d6","setPreMigrationTransferable(address,bool)":"aa0e4388","swapEnabled()":"6ddd1713","swapTokensAtAmount()":"e2f45605","symbol()":"95d89b41","tokensForLiquidity()":"1a8145bb","tokensForRevShare()":"24b9f3c1","tokensForTreasury()":"cc2ffe7c","totalSupply()":"18160ddd","tradingActive()":"bbc0c742","transfer(address,uint256)":"a9059cbb","transferFrom(address,address,uint256)":"23b872dd","transferOwnership(address)":"f2fde38b","unblacklist(address)":"75e3661e","updateBuyFees(uint256,uint256,uint256)":"8095d564","updateMaxTxnAmount(uint256)":"203e727e","updateMaxWalletAmount(uint256)":"c18bc195","updateSellFees(uint256,uint256,uint256)":"c17b5b8c","updateSwapEnabled(bool)":"924de9b7","updateSwapTokensAtAmount(uint256)":"d257b34f","ve()":"1f850716","veEnabled()":"2a5af8b7","withdrawStuckEth(address)":"7ca8448a","withdrawStuckPINT()":"b787510b","withdrawStuckToken(address,address)":"bc205ad3"},"id":117}