{"abi":[{"type":"constructor","inputs":[{"name":"_PINTV1","type":"address","internalType":"address"}],"stateMutability":"nonpayable"},{"type":"receive","stateMutability":"payable"},{"type":"function","name":"DOMAIN_SEPARATOR","inputs":[],"outputs":[{"name":"","type":"bytes32","internalType":"bytes32"}],"stateMutability":"view"},{"type":"function","name":"PINTV1","inputs":[],"outputs":[{"name":"","type":"address","internalType":"address"}],"stateMutability":"view"},{"type":"function","name":"RATIO","inputs":[],"outputs":[{"name":"","type":"uint256","internalType":"uint256"}],"stateMutability":"view"},{"type":"function","name":"_isExcludedMaxTransactionAmount","inputs":[{"name":"","type":"address","internalType":"address"}],"outputs":[{"name":"","type":"bool","internalType":"bool"}],"stateMutability":"view"},{"type":"function","name":"allowance","inputs":[{"name":"owner","type":"address","internalType":"address"},{"name":"spender","type":"address","internalType":"address"}],"outputs":[{"name":"","type":"uint256","internalType":"uint256"}],"stateMutability":"view"},{"type":"function","name":"approve","inputs":[{"name":"spender","type":"address","internalType":"address"},{"name":"amount","type":"uint256","internalType":"uint256"}],"outputs":[{"name":"","type":"bool","internalType":"bool"}],"stateMutability":"nonpayable"},{"type":"function","name":"automatedMarketMakerPairs","inputs":[{"name":"","type":"address","internalType":"address"}],"outputs":[{"name":"","type":"bool","internalType":"bool"}],"stateMutability":"view"},{"type":"function","name":"balanceOf","inputs":[{"name":"account","type":"address","internalType":"address"}],"outputs":[{"name":"","type":"uint256","internalType":"uint256"}],"stateMutability":"view"},{"type":"function","name":"blacklist","inputs":[{"name":"_addr","type":"address","internalType":"address"}],"outputs":[],"stateMutability":"nonpayable"},{"type":"function","name":"blacklistLiquidityPool","inputs":[{"name":"lpAddress","type":"address","internalType":"address"}],"outputs":[],"stateMutability":"nonpayable"},{"type":"function","name":"blacklistRenounced","inputs":[],"outputs":[{"name":"","type":"bool","internalType":"bool"}],"stateMutability":"view"},{"type":"function","name":"buyLiquidityFee","inputs":[],"outputs":[{"name":"","type":"uint256","internalType":"uint256"}],"stateMutability":"view"},{"type":"function","name":"buyRevShareFee","inputs":[],"outputs":[{"name":"","type":"uint256","internalType":"uint256"}],"stateMutability":"view"},{"type":"function","name":"buyTeamFee","inputs":[],"outputs":[{"name":"","type":"uint256","internalType":"uint256"}],"stateMutability":"view"},{"type":"function","name":"buyTotalFees","inputs":[],"outputs":[{"name":"","type":"uint256","internalType":"uint256"}],"stateMutability":"view"},{"type":"function","name":"deadAddress","inputs":[],"outputs":[{"name":"","type":"address","internalType":"address"}],"stateMutability":"view"},{"type":"function","name":"decimals","inputs":[],"outputs":[{"name":"","type":"uint8","internalType":"uint8"}],"stateMutability":"view"},{"type":"function","name":"decreaseAllowance","inputs":[{"name":"spender","type":"address","internalType":"address"},{"name":"subtractedValue","type":"uint256","internalType":"uint256"}],"outputs":[{"name":"","type":"bool","internalType":"bool"}],"stateMutability":"nonpayable"},{"type":"function","name":"disableStaking","inputs":[],"outputs":[],"stateMutability":"nonpayable"},{"type":"function","name":"eip712Domain","inputs":[],"outputs":[{"name":"fields","type":"bytes1","internalType":"bytes1"},{"name":"name","type":"string","internalType":"string"},{"name":"version","type":"string","internalType":"string"},{"name":"chainId","type":"uint256","internalType":"uint256"},{"name":"verifyingContract","type":"address","internalType":"address"},{"name":"salt","type":"bytes32","internalType":"bytes32"},{"name":"extensions","type":"uint256[]","internalType":"uint256[]"}],"stateMutability":"view"},{"type":"function","name":"enableStaking","inputs":[],"outputs":[],"stateMutability":"nonpayable"},{"type":"function","name":"enableTrading","inputs":[],"outputs":[],"stateMutability":"nonpayable"},{"type":"function","name":"excludeFromFees","inputs":[{"name":"account","type":"address","internalType":"address"},{"name":"excluded","type":"bool","internalType":"bool"}],"outputs":[],"stateMutability":"nonpayable"},{"type":"function","name":"excludeFromMaxTransaction","inputs":[{"name":"updAds","type":"address","internalType":"address"},{"name":"isEx","type":"bool","internalType":"bool"}],"outputs":[],"stateMutability":"nonpayable"},{"type":"function","name":"increaseAllowance","inputs":[{"name":"spender","type":"address","internalType":"address"},{"name":"addedValue","type":"uint256","internalType":"uint256"}],"outputs":[{"name":"","type":"bool","internalType":"bool"}],"stateMutability":"nonpayable"},{"type":"function","name":"initialize","inputs":[],"outputs":[],"stateMutability":"nonpayable"},{"type":"function","name":"isBlacklisted","inputs":[{"name":"account","type":"address","internalType":"address"}],"outputs":[{"name":"","type":"bool","internalType":"bool"}],"stateMutability":"view"},{"type":"function","name":"isExcludedFromFees","inputs":[{"name":"account","type":"address","internalType":"address"}],"outputs":[{"name":"","type":"bool","internalType":"bool"}],"stateMutability":"view"},{"type":"function","name":"limitsInEffect","inputs":[],"outputs":[{"name":"","type":"bool","internalType":"bool"}],"stateMutability":"view"},{"type":"function","name":"maxTransactionAmount","inputs":[],"outputs":[{"name":"","type":"uint256","internalType":"uint256"}],"stateMutability":"view"},{"type":"function","name":"maxWallet","inputs":[],"outputs":[{"name":"","type":"uint256","internalType":"uint256"}],"stateMutability":"view"},{"type":"function","name":"migrate","inputs":[],"outputs":[],"stateMutability":"nonpayable"},{"type":"function","name":"name","inputs":[],"outputs":[{"name":"","type":"string","internalType":"string"}],"stateMutability":"view"},{"type":"function","name":"nonces","inputs":[{"name":"owner","type":"address","internalType":"address"}],"outputs":[{"name":"","type":"uint256","internalType":"uint256"}],"stateMutability":"view"},{"type":"function","name":"owner","inputs":[],"outputs":[{"name":"","type":"address","internalType":"address"}],"stateMutability":"view"},{"type":"function","name":"pair","inputs":[],"outputs":[{"name":"","type":"address","internalType":"address"}],"stateMutability":"view"},{"type":"function","name":"permit","inputs":[{"name":"owner","type":"address","internalType":"address"},{"name":"spender","type":"address","internalType":"address"},{"name":"value","type":"uint256","internalType":"uint256"},{"name":"deadline","type":"uint256","internalType":"uint256"},{"name":"v","type":"uint8","internalType":"uint8"},{"name":"r","type":"bytes32","internalType":"bytes32"},{"name":"s","type":"bytes32","internalType":"bytes32"}],"outputs":[],"stateMutability":"nonpayable"},{"type":"function","name":"preMigrationPhase","inputs":[],"outputs":[{"name":"","type":"bool","internalType":"bool"}],"stateMutability":"view"},{"type":"function","name":"preMigrationTransferrable","inputs":[{"name":"","type":"address","internalType":"address"}],"outputs":[{"name":"","type":"bool","internalType":"bool"}],"stateMutability":"view"},{"type":"function","name":"removeLimits","inputs":[],"outputs":[{"name":"","type":"bool","internalType":"bool"}],"stateMutability":"nonpayable"},{"type":"function","name":"renounceBlacklist","inputs":[],"outputs":[],"stateMutability":"nonpayable"},{"type":"function","name":"renounceOwnership","inputs":[],"outputs":[],"stateMutability":"nonpayable"},{"type":"function","name":"sellLiquidityFee","inputs":[],"outputs":[{"name":"","type":"uint256","internalType":"uint256"}],"stateMutability":"view"},{"type":"function","name":"sellRevShareFee","inputs":[],"outputs":[{"name":"","type":"uint256","internalType":"uint256"}],"stateMutability":"view"},{"type":"function","name":"sellTeamFee","inputs":[],"outputs":[{"name":"","type":"uint256","internalType":"uint256"}],"stateMutability":"view"},{"type":"function","name":"sellTotalFees","inputs":[],"outputs":[{"name":"","type":"uint256","internalType":"uint256"}],"stateMutability":"view"},{"type":"function","name":"setAutomatedMarketMakerPair","inputs":[{"name":"_pair","type":"address","internalType":"address"},{"name":"value","type":"bool","internalType":"bool"}],"outputs":[],"stateMutability":"nonpayable"},{"type":"function","name":"setPreMigrationTransferable","inputs":[{"name":"_addr","type":"address","internalType":"address"},{"name":"isAuthorized","type":"bool","internalType":"bool"}],"outputs":[],"stateMutability":"nonpayable"},{"type":"function","name":"swapEnabled","inputs":[],"outputs":[{"name":"","type":"bool","internalType":"bool"}],"stateMutability":"view"},{"type":"function","name":"swapTokensAtAmount","inputs":[],"outputs":[{"name":"","type":"uint256","internalType":"uint256"}],"stateMutability":"view"},{"type":"function","name":"symbol","inputs":[],"outputs":[{"name":"","type":"string","internalType":"string"}],"stateMutability":"view"},{"type":"function","name":"tokensForLiquidity","inputs":[],"outputs":[{"name":"","type":"uint256","internalType":"uint256"}],"stateMutability":"view"},{"type":"function","name":"tokensForRevShare","inputs":[],"outputs":[{"name":"","type":"uint256","internalType":"uint256"}],"stateMutability":"view"},{"type":"function","name":"tokensForTreasury","inputs":[],"outputs":[{"name":"","type":"uint256","internalType":"uint256"}],"stateMutability":"view"},{"type":"function","name":"totalSupply","inputs":[],"outputs":[{"name":"","type":"uint256","internalType":"uint256"}],"stateMutability":"view"},{"type":"function","name":"tradingActive","inputs":[],"outputs":[{"name":"","type":"bool","internalType":"bool"}],"stateMutability":"view"},{"type":"function","name":"transfer","inputs":[{"name":"to","type":"address","internalType":"address"},{"name":"amount","type":"uint256","internalType":"uint256"}],"outputs":[{"name":"","type":"bool","internalType":"bool"}],"stateMutability":"nonpayable"},{"type":"function","name":"transferFrom","inputs":[{"name":"from","type":"address","internalType":"address"},{"name":"to","type":"address","internalType":"address"},{"name":"amount","type":"uint256","internalType":"uint256"}],"outputs":[{"name":"","type":"bool","internalType":"bool"}],"stateMutability":"nonpayable"},{"type":"function","name":"transferOwnership","inputs":[{"name":"newOwner","type":"address","internalType":"address"}],"outputs":[],"stateMutability":"nonpayable"},{"type":"function","name":"unblacklist","inputs":[{"name":"_addr","type":"address","internalType":"address"}],"outputs":[],"stateMutability":"nonpayable"},{"type":"function","name":"updateBuyFees","inputs":[{"name":"_revShareFee","type":"uint256","internalType":"uint256"},{"name":"_liquidityFee","type":"uint256","internalType":"uint256"},{"name":"_teamFee","type":"uint256","internalType":"uint256"}],"outputs":[],"stateMutability":"nonpayable"},{"type":"function","name":"updateMaxTxnAmount","inputs":[{"name":"newNum","type":"uint256","internalType":"uint256"}],"outputs":[],"stateMutability":"nonpayable"},{"type":"function","name":"updateMaxWalletAmount","inputs":[{"name":"newNum","type":"uint256","internalType":"uint256"}],"outputs":[],"stateMutability":"nonpayable"},{"type":"function","name":"updateSellFees","inputs":[{"name":"_revShareFee","type":"uint256","internalType":"uint256"},{"name":"_liquidityFee","type":"uint256","internalType":"uint256"},{"name":"_teamFee","type":"uint256","internalType":"uint256"}],"outputs":[],"stateMutability":"nonpayable"},{"type":"function","name":"updateSwapEnabled","inputs":[{"name":"enabled","type":"bool","internalType":"bool"}],"outputs":[],"stateMutability":"nonpayable"},{"type":"function","name":"updateSwapTokensAtAmount","inputs":[{"name":"newAmount","type":"uint256","internalType":"uint256"}],"outputs":[{"name":"","type":"bool","internalType":"bool"}],"stateMutability":"nonpayable"},{"type":"function","name":"ve","inputs":[],"outputs":[{"name":"","type":"address","internalType":"address"}],"stateMutability":"view"},{"type":"function","name":"veEnabled","inputs":[],"outputs":[{"name":"","type":"bool","internalType":"bool"}],"stateMutability":"view"},{"type":"function","name":"withdrawStuckEth","inputs":[{"name":"toAddr","type":"address","internalType":"address"}],"outputs":[],"stateMutability":"nonpayable"},{"type":"function","name":"withdrawStuckPINT","inputs":[],"outputs":[],"stateMutability":"nonpayable"},{"type":"function","name":"withdrawStuckToken","inputs":[{"name":"_token","type":"address","internalType":"address"},{"name":"_to","type":"address","internalType":"address"}],"outputs":[],"stateMutability":"nonpayable"},{"type":"event","name":"Approval","inputs":[{"name":"owner","type":"address","indexed":true,"internalType":"address"},{"name":"spender","type":"address","indexed":true,"internalType":"address"},{"name":"value","type":"uint256","indexed":false,"internalType":"uint256"}],"anonymous":false},{"type":"event","name":"EIP712DomainChanged","inputs":[],"anonymous":false},{"type":"event","name":"ExcludeFromFees","inputs":[{"name":"account","type":"address","indexed":true,"internalType":"address"},{"name":"isExcluded","type":"bool","indexed":false,"internalType":"bool"}],"anonymous":false},{"type":"event","name":"Initialized","inputs":[{"name":"version","type":"uint8","indexed":false,"internalType":"uint8"}],"anonymous":false},{"type":"event","name":"OwnershipTransferred","inputs":[{"name":"previousOwner","type":"address","indexed":true,"internalType":"address"},{"name":"newOwner","type":"address","indexed":true,"internalType":"address"}],"anonymous":false},{"type":"event","name":"SetAutomatedMarketMakerPair","inputs":[{"name":"pair","type":"address","indexed":true,"internalType":"address"},{"name":"value","type":"bool","indexed":true,"internalType":"bool"}],"anonymous":false},{"type":"event","name":"SwapAndLiquify","inputs":[{"name":"tokensSwapped","type":"uint256","indexed":false,"internalType":"uint256"},{"name":"ethReceived","type":"uint256","indexed":false,"internalType":"uint256"},{"name":"tokensIntoLiquidity","type":"uint256","indexed":false,"internalType":"uint256"}],"anonymous":false},{"type":"event","name":"Transfer","inputs":[{"name":"from","type":"address","indexed":true,"internalType":"address"},{"name":"to","type":"address","indexed":true,"internalType":"address"},{"name":"value","type":"uint256","indexed":false,"internalType":"uint256"}],"anonymous":false},{"type":"event","name":"UpdateUniswapV2Router","inputs":[{"name":"newAddress","type":"address","indexed":true,"internalType":"address"},{"name":"oldAddress","type":"address","indexed":true,"internalType":"address"}],"anonymous":false},{"type":"error","name":"ZeroAmount","inputs":[]}],"bytecode":{"object":"0x60e0604052610102805463ff000000191690553480156200001e575f80fd5b5060405162003fec38038062003fec833981016040819052620000419162000053565b6001600160a01b031660c05262000082565b5f6020828403121562000064575f80fd5b81516001600160a01b03811681146200007b575f80fd5b9392505050565b60805160a05160c051613f00620000ec5f395f818161067c0152818161142401526114d901525f818161052501526134d601525f818161098c015281816111500152818161117b015281816115ac01528181611e2f0152818161347a01526135670152613f005ff3fe608060405260043610610403575f3560e01c80638129fc1c11610215578063c17b5b8c1161011e578063dd62ed3e116100a8578063f2fde38b11610078578063f2fde38b14610bdd578063f637434214610bfc578063f8b45b0514610c12578063f9f92be414610b92578063fe575a8714610c28575f80fd5b8063dd62ed3e14610b73578063e19b282314610b92578063e2f4560514610bb1578063f11a24d314610bc7575f80fd5b8063d11aca62116100ee578063d11aca6214610af5578063d257b34f14610b09578063d505accf14610b28578063d729715f14610b47578063d85ba06314610b5d575f80fd5b8063c17b5b8c14610a8c578063c18bc19514610aab578063c8c8ebe414610aca578063cc2ffe7c14610adf575f80fd5b8063a457c2d71161019f578063b62496f51161016f578063b62496f5146109ec578063b787510b14610a1b578063bbc0c74214610a2f578063bc205ad314610a4e578063c024666814610a6d575f80fd5b8063a457c2d71461095c578063a8aa1b311461097b578063a9059cbb146109ae578063aa0e4388146109cd575f80fd5b80638fd3ab80116101e55780638fd3ab80146108e0578063924de9b7146108f457806395d89b41146109135780639a7a23d6146109275780639c2e4ac614610946575f80fd5b80638129fc1c1461087457806384b0196e146108885780638a8c523c146108af5780638da5cb5b146108c3575f80fd5b806339509351116103175780636ddd1713116102a15780637571336a116102715780637571336a146107d957806375e3661e146107f85780637ca8448a146108175780637ecebe00146108365780638095d56414610855575f80fd5b80636ddd17131461075d57806370a082311461077d578063715018a6146107b1578063751039fc146107c5575f80fd5b80634e29e523116102e75780634e29e523146106b85780634fbee193146106e757806359e741d21461071f5780635f189361146107335780636a486a8e14610747575f80fd5b8063395093511461062b5780633dc599ff1461064a5780633e85f79c1461066b5780634a62bb651461069e575f80fd5b80631f8507161161039857806327c8f8351161036857806327c8f835146105b557806328696de2146105ca5780632a5af8b7146105de578063313ce567146105fc5780633644e51514610617575f80fd5b80631f85071614610514578063203e727e1461055f57806323b872dd1461058057806324b9f3c11461059f575f80fd5b8063156c2f35116103d3578063156c2f35146104b057806318160ddd146104d457806319eab042146104e85780631a8145bb146104fe575f80fd5b806306fdde031461040e578063095ea7b3146104385780630e922ca71461046757806310d5de5314610481575f80fd5b3661040a57005b5f80fd5b348015610419575f80fd5b50610422610c60565b60405161042f91906138bd565b60405180910390f35b348015610443575f80fd5b506104576104523660046138e3565b610cf0565b604051901515815260200161042f565b348015610472575f80fd5b50610112546104579060ff1681565b34801561048c575f80fd5b5061045761049b36600461390d565b6101106020525f908152604090205460ff1681565b3480156104bb575f80fd5b506104c66101055481565b60405190815260200161042f565b3480156104df575f80fd5b506067546104c6565b3480156104f3575f80fd5b506104c66101095481565b348015610509575f80fd5b506104c661010d5481565b34801561051f575f80fd5b506105477f000000000000000000000000000000000000000000000000000000000000000081565b6040516001600160a01b03909116815260200161042f565b34801561056a575f80fd5b5061057e610579366004613928565b610d09565b005b34801561058b575f80fd5b5061045761059a36600461393f565b610dc9565b3480156105aa575f80fd5b506104c661010c5481565b3480156105c0575f80fd5b5061054761dead81565b3480156105d5575f80fd5b5061057e610dec565b3480156105e9575f80fd5b5060fe5461045790610100900460ff1681565b348015610607575f80fd5b506040516012815260200161042f565b348015610622575f80fd5b506104c6610e01565b348015610636575f80fd5b506104576106453660046138e3565b610e0f565b348015610655575f80fd5b5061010254610457906301000000900460ff1681565b348015610676575f80fd5b506105477f000000000000000000000000000000000000000000000000000000000000000081565b3480156106a9575f80fd5b50610102546104579060ff1681565b3480156106c3575f80fd5b506104576106d236600461390d565b6101136020525f908152604090205460ff1681565b3480156106f2575f80fd5b5061045761070136600461390d565b6001600160a01b03165f90815261010f602052604090205460ff1690565b34801561072a575f80fd5b506104c6600a81565b34801561073e575f80fd5b5061057e610e30565b348015610752575f80fd5b506104c66101085481565b348015610768575f80fd5b50610102546104579062010000900460ff1681565b348015610788575f80fd5b506104c661079736600461390d565b6001600160a01b03165f9081526065602052604090205490565b3480156107bc575f80fd5b5061057e610e4e565b3480156107d0575f80fd5b50610457610e61565b3480156107e4575f80fd5b5061057e6107f336600461398a565b610e7b565b348015610803575f80fd5b5061057e61081236600461390d565b610eae565b348015610822575f80fd5b5061057e61083136600461390d565b610ed7565b348015610841575f80fd5b506104c661085036600461390d565b610f3e565b348015610860575f80fd5b5061057e61086f3660046139c1565b610f5b565b34801561087f575f80fd5b5061057e610fde565b348015610893575f80fd5b5061089c61134d565b60405161042f97969594939291906139ea565b3480156108ba575f80fd5b5061057e6113e6565b3480156108ce575f80fd5b506033546001600160a01b0316610547565b3480156108eb575f80fd5b5061057e61140d565b3480156108ff575f80fd5b5061057e61090e366004613a81565b611564565b34801561091e575f80fd5b50610422611589565b348015610932575f80fd5b5061057e61094136600461398a565b611598565b348015610951575f80fd5b506104c66101075481565b348015610967575f80fd5b506104576109763660046138e3565b611651565b348015610986575f80fd5b506105477f000000000000000000000000000000000000000000000000000000000000000081565b3480156109b9575f80fd5b506104576109c83660046138e3565b6116cb565b3480156109d8575f80fd5b5061057e6109e736600461398a565b6116d8565b3480156109f7575f80fd5b50610457610a0636600461390d565b6101116020525f908152604090205460ff1681565b348015610a26575f80fd5b5061057e611718565b348015610a3a575f80fd5b506101025461045790610100900460ff1681565b348015610a59575f80fd5b5061057e610a68366004613a9c565b611811565b348015610a78575f80fd5b5061057e610a8736600461398a565b611951565b348015610a97575f80fd5b5061057e610aa63660046139c1565b6119b8565b348015610ab6575f80fd5b5061057e610ac5366004613928565b611a3d565b348015610ad5575f80fd5b506104c660ff5481565b348015610aea575f80fd5b506104c661010e5481565b348015610b00575f80fd5b5061057e611aed565b348015610b14575f80fd5b50610457610b23366004613928565b611b06565b348015610b33575f80fd5b5061057e610b42366004613ac8565b611c35565b348015610b52575f80fd5b506104c661010b5481565b348015610b68575f80fd5b506104c66101045481565b348015610b7e575f80fd5b506104c6610b8d366004613a9c565b611d96565b348015610b9d575f80fd5b5061057e610bac36600461390d565b611dc0565b348015610bbc575f80fd5b506104c66101005481565b348015610bd2575f80fd5b506104c66101065481565b348015610be8575f80fd5b5061057e610bf736600461390d565b611f13565b348015610c07575f80fd5b506104c661010a5481565b348015610c1d575f80fd5b506104c66101015481565b348015610c33575f80fd5b50610457610c4236600461390d565b6001600160a01b03165f908152610103602052604090205460ff1690565b606060688054610c6f90613b39565b80601f0160208091040260200160405190810160405280929190818152602001828054610c9b90613b39565b8015610ce65780601f10610cbd57610100808354040283529160200191610ce6565b820191905f5260205f20905b815481529060010190602001808311610cc957829003601f168201915b5050505050905090565b5f33610cfd818585611f89565b60019150505b92915050565b610d116120ac565b670de0b6b3a76400006103e8610d2660675490565b610d31906005613b7f565b610d3b9190613b96565b610d459190613b96565b811015610db15760405162461bcd60e51b815260206004820152602f60248201527f43616e6e6f7420736574206d61785472616e73616374696f6e416d6f756e742060448201526e6c6f776572207468616e20302e352560881b60648201526084015b60405180910390fd5b610dc381670de0b6b3a7640000613b7f565b60ff5550565b5f33610dd6858285612106565b610de1858585612178565b506001949350505050565b610df46120ac565b60fe805461ff0019169055565b5f610e0a6129b6565b905090565b5f33610cfd818585610e218383611d96565b610e2b9190613bb5565b611f89565b610e386120ac565b610102805463ff00000019166301000000179055565b610e566120ac565b610e5f5f6129bf565b565b5f610e6a6120ac565b50610102805460ff19169055600190565b610e836120ac565b6001600160a01b03919091165f90815261011060205260409020805460ff1916911515919091179055565b610eb66120ac565b6001600160a01b03165f90815261010360205260409020805460ff19169055565b610edf6120ac565b5f816001600160a01b0316476040515f6040518083038185875af1925050503d805f8114610f28576040519150601f19603f3d011682016040523d82523d5f602084013e610f2d565b606091505b5050905080610f3a575f80fd5b5050565b6001600160a01b0381165f90815260cb6020526040812054610d03565b610f636120ac565b61010583905561010682905561010781905580610f808385613bb5565b610f8a9190613bb5565b61010481905560051015610fd95760405162461bcd60e51b8152602060048201526016602482015275213abc903332b2b99036bab9ba103132901e1e901a9760511b6044820152606401610da8565b505050565b5f54610100900460ff1615808015610ffc57505f54600160ff909116105b806110155750303b15801561101557505f5460ff166001145b6110785760405162461bcd60e51b815260206004820152602e60248201527f496e697469616c697a61626c653a20636f6e747261637420697320616c72656160448201526d191e481a5b9a5d1a585b1a5e995960921b6064820152608401610da8565b5f805460ff191660011790558015611099575f805461ff0019166101001790555b6110df604051806040016040528060068152602001652824a72a2b1960d11b815250604051806040016040528060068152602001652824a72a2b1960d11b815250612a10565b611106604051806040016040528060068152602001652824a72a2b1960d11b815250612a4f565b61110e612a75565b6101028054600160ff19918216811790925561011280549091168217905561114b90737a250d5630b4cf539739df2c5dacb4c659f2488d90610e7b565b6111767f00000000000000000000000000000000000000000000000000000000000000006001610e7b565b6111a17f00000000000000000000000000000000000000000000000000000000000000006001612aa3565b6a084595161401484a00000060ff8190556101015560026001818082816a52b7d2dcc80cd2e40000006127106111d8826005613b7f565b6111e29190613b96565b61010055610105879055610106869055610107859055846112038789613bb5565b61120d9190613bb5565b6101045561010984905561010a83905561010b8290558161122e8486613bb5565b6112389190613bb5565b6101085561125b73ec3de41d5ead4cebffd656f7fc9d1a8d8ff0f8c06001611951565b611266306001611951565b61127361dead6001611951565b61129273ec3de41d5ead4cebffd656f7fc9d1a8d8ff0f8c06001610e7b565b61129d306001610e7b565b6112aa61dead6001610e7b565b73ec3de41d5ead4cebffd656f7fc9d1a8d8ff0f8c05f8190526101136020527f781104449b143e435fb102fc142c9f59e2f929290c8f8e6bb569be4278b55cfc805460ff191660011790556112fe90611f13565b50505050505050801561134a575f805461ff0019169055604051600181527f7f26b83ff96e1f2b6a682f133852f6798a09c465da95921460cefb38474024989060200160405180910390a15b50565b5f6060805f805f60606097545f801b1480156113695750609854155b6113ad5760405162461bcd60e51b81526020600482015260156024820152741152540dcc4c8e88155b9a5b9a5d1a585b1a5e9959605a1b6044820152606401610da8565b6113b5612af7565b6113bd612b06565b604080515f80825260208201909252600f60f81b9b939a50919850469750309650945092509050565b6113ee6120ac565b610102805462ffff00191662010100179055610112805460ff19169055565b6040516370a0823160e01b81523360048201525f907f00000000000000000000000000000000000000000000000000000000000000006001600160a01b0316906370a0823190602401602060405180830381865afa158015611471573d5f803e3d5ffd5b505050506040513d601f19601f820116820180604052508101906114959190613bdc565b9050805f036114b757604051631f2a200560e01b815260040160405180910390fd5b6040516323b872dd60e01b8152336004820152306024820152604481018290527f00000000000000000000000000000000000000000000000000000000000000006001600160a01b0316906323b872dd906064016020604051808303815f875af1158015611527573d5f803e3d5ffd5b505050506040513d601f19601f8201168201806040525081019061154b9190613bf3565b505f611558600a83613b96565b9050610f3a3382612b15565b61156c6120ac565b6101028054911515620100000262ff000019909216919091179055565b606060698054610c6f90613b39565b6115a06120ac565b816001600160a01b03167f00000000000000000000000000000000000000000000000000000000000000006001600160a01b0316036116475760405162461bcd60e51b815260206004820152603960248201527f54686520706169722063616e6e6f742062652072656d6f7665642066726f6d2060448201527f6175746f6d617465644d61726b65744d616b65725061697273000000000000006064820152608401610da8565b610f3a8282612aa3565b5f338161165e8286611d96565b9050838110156116be5760405162461bcd60e51b815260206004820152602560248201527f45524332303a2064656372656173656420616c6c6f77616e63652062656c6f77604482015264207a65726f60d81b6064820152608401610da8565b610de18286868403611f89565b5f33610cfd818585612178565b6116e06120ac565b6001600160a01b0382165f90815261011360205260409020805460ff191682151517905561170e8282611951565b610f3a8282610e7b565b6117206120ac565b6040516370a0823160e01b815230600482018190525f916370a0823190602401602060405180830381865afa15801561175b573d5f803e3d5ffd5b505050506040513d601f19601f8201168201806040525081019061177f9190613bdc565b60405163a9059cbb60e01b815233600482015260248101829052909150309063a9059cbb906044016020604051808303815f875af11580156117c3573d5f803e3d5ffd5b505050506040513d601f19601f820116820180604052508101906117e79190613bf3565b5060405133904780156108fc02915f818181858888f19350505050158015610f3a573d5f803e3d5ffd5b6118196120ac565b6001600160a01b03821661186f5760405162461bcd60e51b815260206004820152601a60248201527f5f746f6b656e20616464726573732063616e6e6f7420626520300000000000006044820152606401610da8565b6040516370a0823160e01b81523060048201525f906001600160a01b038416906370a0823190602401602060405180830381865afa1580156118b3573d5f803e3d5ffd5b505050506040513d601f19601f820116820180604052508101906118d79190613bdc565b60405163a9059cbb60e01b81526001600160a01b038481166004830152602482018390529192509084169063a9059cbb906044016020604051808303815f875af1158015611927573d5f803e3d5ffd5b505050506040513d601f19601f8201168201806040525081019061194b9190613bf3565b50505050565b6119596120ac565b6001600160a01b0382165f81815261010f6020908152604091829020805460ff191685151590811790915591519182527f9d8f7706ea1113d1a167b526eca956215946dd36cc7df39eb16180222d8b5df7910160405180910390a25050565b6119c06120ac565b61010983905561010a82905561010b819055806119dd8385613bb5565b6119e79190613bb5565b61010881905560051015610fd95760405162461bcd60e51b815260206004820152601760248201527f53656c6c2066656573206d757374206265203c3d20352e0000000000000000006044820152606401610da8565b611a456120ac565b670de0b6b3a76400006103e8611a5a60675490565b611a6590600a613b7f565b611a6f9190613b96565b611a799190613b96565b811015611ad45760405162461bcd60e51b8152602060048201526024808201527f43616e6e6f7420736574206d617857616c6c6574206c6f776572207468616e20604482015263312e302560e01b6064820152608401610da8565b611ae681670de0b6b3a7640000613b7f565b6101015550565b611af56120ac565b60fe805461ff001916610100179055565b5f611b0f6120ac565b620186a0611b1c60675490565b611b27906001613b7f565b611b319190613b96565b821015611b9e5760405162461bcd60e51b815260206004820152603560248201527f5377617020616d6f756e742063616e6e6f74206265206c6f776572207468616e60448201527410181718181892903a37ba30b61039bab838363c9760591b6064820152608401610da8565b6103e8611baa60675490565b611bb5906005613b7f565b611bbf9190613b96565b821115611c2b5760405162461bcd60e51b815260206004820152603460248201527f5377617020616d6f756e742063616e6e6f742062652068696768657220746861604482015273371018171a92903a37ba30b61039bab838363c9760611b6064820152608401610da8565b5061010055600190565b83421115611c855760405162461bcd60e51b815260206004820152601d60248201527f45524332305065726d69743a206578706972656420646561646c696e650000006044820152606401610da8565b5f7f6e71edae12b1b97f4d1f60370fef10105fa2faae0126114a169c64845d6126c9888888611cb38c612bd4565b6040805160208101969096526001600160a01b0394851690860152929091166060840152608083015260a082015260c0810186905260e0016040516020818303038152906040528051906020012090505f611d0d82612bfb565b90505f611d1c82878787612c27565b9050896001600160a01b0316816001600160a01b031614611d7f5760405162461bcd60e51b815260206004820152601e60248201527f45524332305065726d69743a20696e76616c6964207369676e617475726500006044820152606401610da8565b611d8a8a8a8a611f89565b50505050505050505050565b6001600160a01b039182165f90815260666020908152604080832093909416825291909152205490565b611dc86120ac565b610102546301000000900460ff1615611e2d5760405162461bcd60e51b815260206004820152602160248201527f5465616d20686173207265766f6b656420626c61636b6c6973742072696768746044820152607360f81b6064820152608401610da8565b7f00000000000000000000000000000000000000000000000000000000000000006001600160a01b0316816001600160a01b031614158015611e8c57506001600160a01b038116737a250d5630b4cf539739df2c5dacb4c659f2488d14155b611eef5760405162461bcd60e51b815260206004820152602e60248201527f43616e6e6f7420626c61636b6c69737420746f6b656e277320763220726f757460448201526d32b91037b9103b19103837b7b61760911b6064820152608401610da8565b6001600160a01b03165f90815261010360205260409020805460ff19166001179055565b611f1b6120ac565b6001600160a01b038116611f805760405162461bcd60e51b815260206004820152602660248201527f4f776e61626c653a206e6577206f776e657220697320746865207a65726f206160448201526564647265737360d01b6064820152608401610da8565b61134a816129bf565b6001600160a01b038316611feb5760405162461bcd60e51b8152602060048201526024808201527f45524332303a20617070726f76652066726f6d20746865207a65726f206164646044820152637265737360e01b6064820152608401610da8565b6001600160a01b03821661204c5760405162461bcd60e51b815260206004820152602260248201527f45524332303a20617070726f766520746f20746865207a65726f206164647265604482015261737360f01b6064820152608401610da8565b6001600160a01b038381165f8181526066602090815260408083209487168084529482529182902085905590518481527f8c5be1e5ebec7d5bd14f71427d1e84f3dd0314c0f7b2291e5b200ac8c7c3b925910160405180910390a3505050565b6033546001600160a01b03163314610e5f5760405162461bcd60e51b815260206004820181905260248201527f4f776e61626c653a2063616c6c6572206973206e6f7420746865206f776e65726044820152606401610da8565b5f6121118484611d96565b90505f19811461194b578181101561216b5760405162461bcd60e51b815260206004820152601d60248201527f45524332303a20696e73756666696369656e7420616c6c6f77616e63650000006044820152606401610da8565b61194b8484848403611f89565b6001600160a01b03831661219e5760405162461bcd60e51b8152600401610da890613c0e565b6001600160a01b0382166121c45760405162461bcd60e51b8152600401610da890613c53565b6001600160a01b0383165f908152610103602052604090205460ff16156122225760405162461bcd60e51b815260206004820152601260248201527114d95b99195c88189b1858dadb1a5cdd195960721b6044820152606401610da8565b6001600160a01b0382165f908152610103602052604090205460ff16156122825760405162461bcd60e51b8152602060048201526014602482015273149958d95a5d995c88189b1858dadb1a5cdd195960621b6044820152606401610da8565b6101125460ff1615612308576001600160a01b0383165f908152610113602052604090205460ff166123085760405162461bcd60e51b815260206004820152602960248201527f4e6f7420617574686f72697a656420746f207472616e73666572207072652d6d60448201526834b3b930ba34b7b71760b91b6064820152608401610da8565b805f0361231a57610fd983835f612c4f565b6101025460ff161561268b576033546001600160a01b0384811691161480159061235257506033546001600160a01b03838116911614155b801561236657506001600160a01b03821615155b801561237d57506001600160a01b03821661dead14155b801561238c575060fe5460ff16155b1561268b5761010254610100900460ff16612425576001600160a01b0383165f90815261010f602052604090205460ff16806123e057506001600160a01b0382165f90815261010f602052604090205460ff165b6124255760405162461bcd60e51b81526020600482015260166024820152752a3930b234b7339034b9903737ba1030b1ba34bb329760511b6044820152606401610da8565b6001600160a01b0383165f908152610111602052604090205460ff16801561246657506001600160a01b0382165f908152610110602052604090205460ff16155b1561254a5760ff548111156124db5760405162461bcd60e51b815260206004820152603560248201527f427579207472616e7366657220616d6f756e742065786365656473207468652060448201527436b0bc2a3930b739b0b1ba34b7b720b6b7bab73a1760591b6064820152608401610da8565b610101546001600160a01b0383165f908152606560205260409020546125019083613bb5565b11156125455760405162461bcd60e51b815260206004820152601360248201527213585e081dd85b1b195d08195e18d959591959606a1b6044820152606401610da8565b61268b565b6001600160a01b0382165f908152610111602052604090205460ff16801561258b57506001600160a01b0383165f908152610110602052604090205460ff16155b156126015760ff548111156125455760405162461bcd60e51b815260206004820152603660248201527f53656c6c207472616e7366657220616d6f756e742065786365656473207468656044820152751036b0bc2a3930b739b0b1ba34b7b720b6b7bab73a1760511b6064820152608401610da8565b6001600160a01b0382165f908152610110602052604090205460ff1661268b57610101546001600160a01b0383165f908152606560205260409020546126479083613bb5565b111561268b5760405162461bcd60e51b815260206004820152601360248201527213585e081dd85b1b195d08195e18d959591959606a1b6044820152606401610da8565b305f9081526065602052604090205461010054811080159081906126b857506101025462010000900460ff165b80156126c7575060fe5460ff16155b80156126ec57506001600160a01b0385165f908152610111602052604090205460ff16155b801561271157506001600160a01b0385165f90815261010f602052604090205460ff16155b801561273657506001600160a01b0384165f90815261010f602052604090205460ff16155b1561275b5760fe805460ff19166001179055612750612d7e565b60fe805460ff191690555b60fe546001600160a01b0386165f90815261010f602052604090205460ff918216159116806127a257506001600160a01b0385165f90815261010f602052604090205460ff165b156127aa57505f5b5f81156129a2576001600160a01b0386165f908152610111602052604090205460ff1680156127db57505f61010854115b156128a05761280160646127fb6101085488612fa390919063ffffffff16565b90612fb5565b90506101085461010a54826128169190613b7f565b6128209190613b96565b61010d5f8282546128319190613bb5565b90915550506101085461010b546128489083613b7f565b6128529190613b96565b61010e5f8282546128639190613bb5565b9091555050610108546101095461287a9083613b7f565b6128849190613b96565b61010c5f8282546128959190613bb5565b909155506129849050565b6001600160a01b0387165f908152610111602052604090205460ff1680156128ca57505f61010454115b15612984576128ea60646127fb6101045488612fa390919063ffffffff16565b90506101045461010654826128ff9190613b7f565b6129099190613b96565b61010d5f82825461291a9190613bb5565b909155505061010454610107546129319083613b7f565b61293b9190613b96565b61010e5f82825461294c9190613bb5565b909155505061010454610105546129639083613b7f565b61296d9190613b96565b61010c5f82825461297e9190613bb5565b90915550505b801561299557612995873083612c4f565b61299f8186613c96565b94505b6129ad878787612c4f565b50505050505050565b5f610e0a612fc0565b603380546001600160a01b038381166001600160a01b0319831681179093556040519116919082907f8be0079c531659141344cd1fd0a4f28419497f9722a3daafe3b4186f6b6457e0905f90a35050565b5f54610100900460ff16612a365760405162461bcd60e51b8152600401610da890613ca9565b6068612a428382613d3f565b506069610fd98282613d3f565b5f54610100900460ff1661134a5760405162461bcd60e51b8152600401610da890613ca9565b5f54610100900460ff16612a9b5760405162461bcd60e51b8152600401610da890613ca9565b610e5f613033565b6001600160a01b0382165f8181526101116020526040808220805460ff191685151590811790915590519092917fffa9187bf1f18bf477bd0ea1bcbb64e93b6a98132473929edfce215cd9b16fab91a35050565b606060998054610c6f90613b39565b6060609a8054610c6f90613b39565b6001600160a01b038216612b6b5760405162461bcd60e51b815260206004820152601f60248201527f45524332303a206d696e7420746f20746865207a65726f2061646472657373006044820152606401610da8565b8060675f828254612b7c9190613bb5565b90915550506001600160a01b0382165f818152606560209081526040808320805486019055518481527fddf252ad1be2c89b69c2b068fc378daa952ba7f163c4a11628f55a4df523b3ef910160405180910390a35050565b6001600160a01b0381165f90815260cb602052604090208054600181018255905b50919050565b5f610d03612c076129b6565b8360405161190160f01b8152600281019290925260228201526042902090565b5f805f612c3687878787613062565b91509150612c438161311f565b5090505b949350505050565b6001600160a01b038316612c755760405162461bcd60e51b8152600401610da890613c0e565b6001600160a01b038216612c9b5760405162461bcd60e51b8152600401610da890613c53565b6001600160a01b0383165f9081526065602052604090205481811015612d125760405162461bcd60e51b815260206004820152602660248201527f45524332303a207472616e7366657220616d6f756e7420657863656564732062604482015265616c616e636560d01b6064820152608401610da8565b6001600160a01b038085165f8181526065602052604080822086860390559286168082529083902080548601905591517fddf252ad1be2c89b69c2b068fc378daa952ba7f163c4a11628f55a4df523b3ef90612d719086815260200190565b60405180910390a361194b565b305f9081526065602052604081205490505f61010e5461010c5461010d54612da69190613bb5565b612db09190613bb5565b9050811580612dbd575080155b15612dc6575050565b61010054612dd5906014613b7f565b821115612dee5761010054612deb906014613b7f565b91505b5f60028261010d5485612e019190613b7f565b612e0b9190613b96565b612e159190613b96565b90505f612e228483613268565b905047612e2e82613273565b5f612e394783613268565b90505f612e68600261010d54612e4f9190613b96565b612e599088613c96565b61010c546127fb908590612fa3565b90505f612e97600261010d54612e7e9190613b96565b612e889089613c96565b61010e546127fb908690612fa3565b90505f81612ea58486613c96565b612eaf9190613c96565b5f61010d81905561010c81905561010e5590508615801590612ed057505f81115b15612f2d57612ee887612ee38584613bb5565b6133fc565b61010d54604080518881526020810184905280820192909252517f17bbfb9a6069321b6ded73bd96327c9e6b7212a5cd51ff219cd61370acafb5619181900360600190a15b8115612f98576040515f9073ec3de41d5ead4cebffd656f7fc9d1a8d8ff0f8c09084908381818185875af1925050503d805f8114612f86576040519150601f19603f3d011682016040523d82523d5f602084013e612f8b565b606091505b5050905080611d8a575f80fd5b505050505050505050565b5f612fae8284613b7f565b9392505050565b5f612fae8284613b96565b5f7f8b73c3c69bb8fe3d512ecc4cf759cc79239f7b179b0ffacaa9a75d522b39400f612fea6135bd565b612ff2613615565b60408051602081019490945283019190915260608201524660808201523060a082015260c00160405160208183030381529060405280519060200120905090565b5f54610100900460ff166130595760405162461bcd60e51b8152600401610da890613ca9565b610e5f336129bf565b5f807f7fffffffffffffffffffffffffffffff5d576e7357a4501ddfe92f46681b20a083111561309757505f90506003613116565b604080515f8082526020820180845289905260ff881692820192909252606081018690526080810185905260019060a0016020604051602081039080840390855afa1580156130e8573d5f803e3d5ffd5b5050604051601f1901519150506001600160a01b038116613110575f60019250925050613116565b91505f90505b94509492505050565b5f81600481111561313257613132613dfb565b0361313a5750565b600181600481111561314e5761314e613dfb565b0361319b5760405162461bcd60e51b815260206004820152601860248201527f45434453413a20696e76616c6964207369676e617475726500000000000000006044820152606401610da8565b60028160048111156131af576131af613dfb565b036131fc5760405162461bcd60e51b815260206004820152601f60248201527f45434453413a20696e76616c6964207369676e6174757265206c656e677468006044820152606401610da8565b600381600481111561321057613210613dfb565b0361134a5760405162461bcd60e51b815260206004820152602260248201527f45434453413a20696e76616c6964207369676e6174757265202773272076616c604482015261756560f01b6064820152608401610da8565b5f612fae8284613c96565b6040805160028082526060820183525f9260208301908036833701905050905030815f815181106132a6576132a6613e0f565b60200260200101906001600160a01b031690816001600160a01b031681525050737a250d5630b4cf539739df2c5dacb4c659f2488d6001600160a01b031663ad5c46486040518163ffffffff1660e01b8152600401602060405180830381865afa158015613316573d5f803e3d5ffd5b505050506040513d601f19601f8201168201806040525081019061333a9190613e23565b8160018151811061334d5761334d613e0f565b60200260200101906001600160a01b031690816001600160a01b03168152505061338c30737a250d5630b4cf539739df2c5dacb4c659f2488d84611f89565b60405163791ac94760e01b8152737a250d5630b4cf539739df2c5dacb4c659f2488d9063791ac947906133cb9085905f90869030904290600401613e3e565b5f604051808303815f87803b1580156133e2575f80fd5b505af11580156133f4573d5f803e3d5ffd5b505050505050565b73c02aaa39b223fe8d0a0e5c4f27ead9083c756cc26001600160a01b031663d0e30db0826040518263ffffffff1660e01b81526004015f604051808303818588803b158015613449575f80fd5b505af115801561345b573d5f803e3d5ffd5b506134a3935073c02aaa39b223fe8d0a0e5c4f27ead9083c756cc292507f00000000000000000000000000000000000000000000000000000000000000009150849050613645565b60fe54309063a9059cbb90610100900460ff166134d45773ec3de41d5ead4cebffd656f7fc9d1a8d8ff0f8c06134f6565b7f00000000000000000000000000000000000000000000000000000000000000005b6040516001600160e01b031960e084901b1681526001600160a01b039091166004820152602481018590526044016020604051808303815f875af1158015613540573d5f803e3d5ffd5b505050506040513d601f19601f820116820180604052508101906135649190613bf3565b507f00000000000000000000000000000000000000000000000000000000000000006001600160a01b031663fff6cae96040518163ffffffff1660e01b81526004015f604051808303815f87803b1580156133e2575f80fd5b5f806135c7612af7565b8051909150156135de578051602090910120919050565b60975480156135ed5792915050565b7fc5d2460186f7233c927e7db2dcc703c0e500b653ca82273b7bfad8045d85a4709250505090565b5f8061361f612b06565b805190915015613636578051602090910120919050565b60985480156135ed5792915050565b604080516001600160a01b03848116602483015260448083018590528351808403909101815260649092018352602080830180516001600160e01b031663a9059cbb60e01b17905283518085019094528084527f5361666545524332303a206c6f772d6c6576656c2063616c6c206661696c656490840152610fd9928692915f916136d4918516908490613753565b905080515f14806136f45750808060200190518101906136f49190613bf3565b610fd95760405162461bcd60e51b815260206004820152602a60248201527f5361666545524332303a204552433230206f7065726174696f6e20646964206e6044820152691bdd081cdd58d8d9595960b21b6064820152608401610da8565b6060612c4784845f85855f80866001600160a01b031685876040516137789190613eaf565b5f6040518083038185875af1925050503d805f81146137b2576040519150601f19603f3d011682016040523d82523d5f602084013e6137b7565b606091505b50915091506137c8878383876137d3565b979650505050505050565b606083156138415782515f0361383a576001600160a01b0385163b61383a5760405162461bcd60e51b815260206004820152601d60248201527f416464726573733a2063616c6c20746f206e6f6e2d636f6e74726163740000006044820152606401610da8565b5081612c47565b612c4783838151156138565781518083602001fd5b8060405162461bcd60e51b8152600401610da891906138bd565b5f5b8381101561388a578181015183820152602001613872565b50505f910152565b5f81518084526138a9816020860160208601613870565b601f01601f19169290920160200192915050565b602081525f612fae6020830184613892565b6001600160a01b038116811461134a575f80fd5b5f80604083850312156138f4575f80fd5b82356138ff816138cf565b946020939093013593505050565b5f6020828403121561391d575f80fd5b8135612fae816138cf565b5f60208284031215613938575f80fd5b5035919050565b5f805f60608486031215613951575f80fd5b833561395c816138cf565b9250602084013561396c816138cf565b929592945050506040919091013590565b801515811461134a575f80fd5b5f806040838503121561399b575f80fd5b82356139a6816138cf565b915060208301356139b68161397d565b809150509250929050565b5f805f606084860312156139d3575f80fd5b505081359360208301359350604090920135919050565b60ff60f81b881681525f602060e06020840152613a0a60e084018a613892565b8381036040850152613a1c818a613892565b606085018990526001600160a01b038816608086015260a0850187905284810360c0860152855180825260208088019350909101905f5b81811015613a6f57835183529284019291840191600101613a53565b50909c9b505050505050505050505050565b5f60208284031215613a91575f80fd5b8135612fae8161397d565b5f8060408385031215613aad575f80fd5b8235613ab8816138cf565b915060208301356139b6816138cf565b5f805f805f805f60e0888a031215613ade575f80fd5b8735613ae9816138cf565b96506020880135613af9816138cf565b95506040880135945060608801359350608088013560ff81168114613b1c575f80fd5b9699959850939692959460a0840135945060c09093013592915050565b600181811c90821680613b4d57607f821691505b602082108103612bf557634e487b7160e01b5f52602260045260245ffd5b634e487b7160e01b5f52601160045260245ffd5b8082028115828204841417610d0357610d03613b6b565b5f82613bb057634e487b7160e01b5f52601260045260245ffd5b500490565b80820180821115610d0357610d03613b6b565b634e487b7160e01b5f52604160045260245ffd5b5f60208284031215613bec575f80fd5b5051919050565b5f60208284031215613c03575f80fd5b8151612fae8161397d565b60208082526025908201527f45524332303a207472616e736665722066726f6d20746865207a65726f206164604082015264647265737360d81b606082015260800190565b60208082526023908201527f45524332303a207472616e7366657220746f20746865207a65726f206164647260408201526265737360e81b606082015260800190565b81810381811115610d0357610d03613b6b565b6020808252602b908201527f496e697469616c697a61626c653a20636f6e7472616374206973206e6f74206960408201526a6e697469616c697a696e6760a81b606082015260800190565b601f821115610fd957805f5260205f20601f840160051c81016020851015613d195750805b601f840160051c820191505b81811015613d38575f8155600101613d25565b5050505050565b815167ffffffffffffffff811115613d5957613d59613bc8565b613d6d81613d678454613b39565b84613cf4565b602080601f831160018114613da0575f8415613d895750858301515b5f19600386901b1c1916600185901b1785556133f4565b5f85815260208120601f198616915b82811015613dce57888601518255948401946001909101908401613daf565b5085821015613deb57878501515f19600388901b60f8161c191681555b5050505050600190811b01905550565b634e487b7160e01b5f52602160045260245ffd5b634e487b7160e01b5f52603260045260245ffd5b5f60208284031215613e33575f80fd5b8151612fae816138cf565b5f60a08201878352602087602085015260a0604085015281875180845260c0860191506020890193505f5b81811015613e8e5784516001600160a01b031683529383019391830191600101613e69565b50506001600160a01b03969096166060850152505050608001529392505050565b5f8251613ec0818460208701613870565b919091019291505056fea2646970667358221220cccb39793773ac3c39903a185be962a7e28edc23df75effe6423ccfdd96f7e3f64736f6c63430008160033","linkReferences":{}},"methodIdentifiers":{"DOMAIN_SEPARATOR()":"3644e515","PINTV1()":"3e85f79c","RATIO()":"59e741d2","_isExcludedMaxTransactionAmount(address)":"10d5de53","allowance(address,address)":"dd62ed3e","approve(address,uint256)":"095ea7b3","automatedMarketMakerPairs(address)":"b62496f5","balanceOf(address)":"70a08231","blacklist(address)":"f9f92be4","blacklistLiquidityPool(address)":"e19b2823","blacklistRenounced()":"3dc599ff","buyLiquidityFee()":"f11a24d3","buyRevShareFee()":"156c2f35","buyTeamFee()":"9c2e4ac6","buyTotalFees()":"d85ba063","deadAddress()":"27c8f835","decimals()":"313ce567","decreaseAllowance(address,uint256)":"a457c2d7","disableStaking()":"28696de2","eip712Domain()":"84b0196e","enableStaking()":"d11aca62","enableTrading()":"8a8c523c","excludeFromFees(address,bool)":"c0246668","excludeFromMaxTransaction(address,bool)":"7571336a","increaseAllowance(address,uint256)":"39509351","initialize()":"8129fc1c","isBlacklisted(address)":"fe575a87","isExcludedFromFees(address)":"4fbee193","limitsInEffect()":"4a62bb65","maxTransactionAmount()":"c8c8ebe4","maxWallet()":"f8b45b05","migrate()":"8fd3ab80","name()":"06fdde03","nonces(address)":"7ecebe00","owner()":"8da5cb5b","pair()":"a8aa1b31","permit(address,address,uint256,uint256,uint8,bytes32,bytes32)":"d505accf","preMigrationPhase()":"0e922ca7","preMigrationTransferrable(address)":"4e29e523","removeLimits()":"751039fc","renounceBlacklist()":"5f189361","renounceOwnership()":"715018a6","sellLiquidityFee()":"f6374342","sellRevShareFee()":"19eab042","sellTeamFee()":"d729715f","sellTotalFees()":"6a486a8e","setAutomatedMarketMakerPair(address,bool)":"9a7a23d6","setPreMigrationTransferable(address,bool)":"aa0e4388","swapEnabled()":"6ddd1713","swapTokensAtAmount()":"e2f45605","symbol()":"95d89b41","tokensForLiquidity()":"1a8145bb","tokensForRevShare()":"24b9f3c1","tokensForTreasury()":"cc2ffe7c","totalSupply()":"18160ddd","tradingActive()":"bbc0c742","transfer(address,uint256)":"a9059cbb","transferFrom(address,address,uint256)":"23b872dd","transferOwnership(address)":"f2fde38b","unblacklist(address)":"75e3661e","updateBuyFees(uint256,uint256,uint256)":"8095d564","updateMaxTxnAmount(uint256)":"203e727e","updateMaxWalletAmount(uint256)":"c18bc195","updateSellFees(uint256,uint256,uint256)":"c17b5b8c","updateSwapEnabled(bool)":"924de9b7","updateSwapTokensAtAmount(uint256)":"d257b34f","ve()":"1f850716","veEnabled()":"2a5af8b7","withdrawStuckEth(address)":"7ca8448a","withdrawStuckPINT()":"b787510b","withdrawStuckToken(address,address)":"bc205ad3"},"id":118}