{
  "abi": [
    {
      "inputs": [
        {
          "internalType": "address",
          "name": "_asset",
          "type": "address"
        }
      ],
      "stateMutability": "nonpayable",
      "type": "constructor"
    },
    {
      "inputs": [
        {
          "internalType": "uint256[]",
          "name": "tokenIds",
          "type": "uint256[]"
        }
      ],
      "name": "redeem",
      "outputs": [
        {
          "internalType": "uint256",
          "name": "output",
          "type": "uint256"
        }
      ],
      "stateMutability": "nonpayable",
      "type": "function"
    },
    {
      "inputs": [],
      "name": "startTime",
      "outputs": [
        {
          "internalType": "uint256",
          "name": "",
          "type": "uint256"
        }
      ],
      "stateMutability": "view",
      "type": "function"
    }
  ],
  "bytecode": {
    "object": "0x60a060405234801561001057600080fd5b506040516106fb3803806106fb83398101604081905261002f91610044565b6001600160a01b031660805242600055610074565b60006020828403121561005657600080fd5b81516001600160a01b038116811461006d57600080fd5b9392505050565b60805161066c61008f6000396000610154015261066c6000f3fe608060405234801561001057600080fd5b50600436106100365760003560e01c806378e979251461003b578063f9afb26a14610056575b600080fd5b61004460005481565b60405190815260200160405180910390f35b61004461006436600461047a565b6000805b825181101561012d577255485fca054d165fc0c7d836459722436544c16001600160a01b03166342842e0e3360008685815181106100a8576100a8610538565b60209081029190910101516040516001600160e01b031960e086901b1681526001600160a01b0393841660048201529290911660248301526044820152606401600060405180830381600087803b15801561010257600080fd5b505af1158015610116573d6000803e3d6000fd5b50505050808061012590610564565b915050610068565b5069152d02c7e14af68000008251610145919061057d565b90506101906001600160a01b037f00000000000000000000000000000000000000000000000000000000000000001673ec3de41d5ead4cebffd656f7fc9d1a8d8ff0f8c03384610195565b919050565b604080516001600160a01b0385811660248301528416604482015260648082018490528251808303909101815260849091019091526020810180516001600160e01b03166323b872dd60e01b1790526101ef9085906101f5565b50505050565b600061024a826040518060400160405280602081526020017f5361666545524332303a206c6f772d6c6576656c2063616c6c206661696c6564815250856001600160a01b03166102d49092919063ffffffff16565b905080516000148061026b57508080602001905181019061026b919061059a565b6102cf5760405162461bcd60e51b815260206004820152602a60248201527f5361666545524332303a204552433230206f7065726174696f6e20646964206e6044820152691bdd081cdd58d8d9595960b21b60648201526084015b60405180910390fd5b505050565b60606102e384846000856102eb565b949350505050565b60608247101561034c5760405162461bcd60e51b815260206004820152602660248201527f416464726573733a20696e73756666696369656e742062616c616e636520666f6044820152651c8818d85b1b60d21b60648201526084016102c6565b600080866001600160a01b0316858760405161036891906105e7565b60006040518083038185875af1925050503d80600081146103a5576040519150601f19603f3d011682016040523d82523d6000602084013e6103aa565b606091505b50915091506103bb878383876103c6565b979650505050505050565b6060831561043557825160000361042e576001600160a01b0385163b61042e5760405162461bcd60e51b815260206004820152601d60248201527f416464726573733a2063616c6c20746f206e6f6e2d636f6e747261637400000060448201526064016102c6565b50816102e3565b6102e3838381511561044a5781518083602001fd5b8060405162461bcd60e51b81526004016102c69190610603565b634e487b7160e01b600052604160045260246000fd5b6000602080838503121561048d57600080fd5b823567ffffffffffffffff808211156104a557600080fd5b818501915085601f8301126104b957600080fd5b8135818111156104cb576104cb610464565b8060051b604051601f19603f830116810181811085821117156104f0576104f0610464565b60405291825284820192508381018501918883111561050e57600080fd5b938501935b8285101561052c57843584529385019392850192610513565b98975050505050505050565b634e487b7160e01b600052603260045260246000fd5b634e487b7160e01b600052601160045260246000fd5b6000600182016105765761057661054e565b5060010190565b80820281158282048414176105945761059461054e565b92915050565b6000602082840312156105ac57600080fd5b815180151581146105bc57600080fd5b9392505050565b60005b838110156105de5781810151838201526020016105c6565b50506000910152565b600082516105f98184602087016105c3565b9190910192915050565b60208152600082518060208401526106228160408501602087016105c3565b601f01601f1916919091016040019291505056fea2646970667358221220fd460fbd7cdfdd3fc1bb322efe4794157cda9f6fd46a2670933a544b7259be2e64736f6c63430008150033",
    "linkReferences": {}
  },
  "methodIdentifiers": {
    "redeem(uint256[])": "f9afb26a",
    "startTime()": "78e97925"
  },
  "id": 46
}