{
  "abi": [
    {
      "inputs": [
        {
          "internalType": "address",
          "name": "_asset",
          "type": "address"
        }
      ],
      "stateMutability": "nonpayable",
      "type": "constructor"
    },
    {
      "inputs": [
        {
          "internalType": "uint256[]",
          "name": "tokenIds",
          "type": "uint256[]"
        }
      ],
      "name": "redeem",
      "outputs": [
        {
          "internalType": "uint256",
          "name": "output",
          "type": "uint256"
        }
      ],
      "stateMutability": "nonpayable",
      "type": "function"
    },
    {
      "inputs": [],
      "name": "startTime",
      "outputs": [
        {
          "internalType": "uint256",
          "name": "",
          "type": "uint256"
        }
      ],
      "stateMutability": "view",
      "type": "function"
    }
  ],
  "bytecode": {
    "object": "0x60a060405234801561000f575f80fd5b506040516106cf3803806106cf83398101604081905261002e91610042565b6001600160a01b0316608052425f5561006f565b5f60208284031215610052575f80fd5b81516001600160a01b0381168114610068575f80fd5b9392505050565b6080516106486100875f395f61014b01526106485ff3fe608060405234801561000f575f80fd5b5060043610610034575f3560e01c806378e9792514610038578063f9afb26a14610052575b5f80fd5b6100405f5481565b60405190815260200160405180910390f35b610040610060366004610467565b5f805b8251811015610124577255485fca054d165fc0c7d836459722436544c16001600160a01b03166342842e0e3361dead8685815181106100a4576100a4610520565b60209081029190910101516040516001600160e01b031960e086901b1681526001600160a01b03938416600482015292909116602483015260448201526064015f604051808303815f87803b1580156100fb575f80fd5b505af115801561010d573d5f803e3d5ffd5b50505050808061011c90610548565b915050610063565b5069152d02c7e14af6800000825161013c9190610560565b90506101876001600160a01b037f00000000000000000000000000000000000000000000000000000000000000001673ec3de41d5ead4cebffd656f7fc9d1a8d8ff0f8c0338461018c565b919050565b604080516001600160a01b0385811660248301528416604482015260648082018490528251808303909101815260849091019091526020810180516001600160e01b03166323b872dd60e01b1790526101e69085906101ec565b50505050565b5f610240826040518060400160405280602081526020017f5361666545524332303a206c6f772d6c6576656c2063616c6c206661696c6564815250856001600160a01b03166102c99092919063ffffffff16565b905080515f1480610260575080806020019051810190610260919061057d565b6102c45760405162461bcd60e51b815260206004820152602a60248201527f5361666545524332303a204552433230206f7065726174696f6e20646964206e6044820152691bdd081cdd58d8d9595960b21b60648201526084015b60405180910390fd5b505050565b60606102d784845f856102df565b949350505050565b6060824710156103405760405162461bcd60e51b815260206004820152602660248201527f416464726573733a20696e73756666696369656e742062616c616e636520666f6044820152651c8818d85b1b60d21b60648201526084016102bb565b5f80866001600160a01b0316858760405161035b91906105c5565b5f6040518083038185875af1925050503d805f8114610395576040519150601f19603f3d011682016040523d82523d5f602084013e61039a565b606091505b50915091506103ab878383876103b6565b979650505050505050565b606083156104245782515f0361041d576001600160a01b0385163b61041d5760405162461bcd60e51b815260206004820152601d60248201527f416464726573733a2063616c6c20746f206e6f6e2d636f6e747261637400000060448201526064016102bb565b50816102d7565b6102d783838151156104395781518083602001fd5b8060405162461bcd60e51b81526004016102bb91906105e0565b634e487b7160e01b5f52604160045260245ffd5b5f6020808385031215610478575f80fd5b823567ffffffffffffffff8082111561048f575f80fd5b818501915085601f8301126104a2575f80fd5b8135818111156104b4576104b4610453565b8060051b604051601f19603f830116810181811085821117156104d9576104d9610453565b6040529182528482019250838101850191888311156104f6575f80fd5b938501935b82851015610514578435845293850193928501926104fb565b98975050505050505050565b634e487b7160e01b5f52603260045260245ffd5b634e487b7160e01b5f52601160045260245ffd5b5f6001820161055957610559610534565b5060010190565b808202811582820484141761057757610577610534565b92915050565b5f6020828403121561058d575f80fd5b8151801515811461059c575f80fd5b9392505050565b5f5b838110156105bd5781810151838201526020016105a5565b50505f910152565b5f82516105d68184602087016105a3565b9190910192915050565b602081525f82518060208401526105fe8160408501602087016105a3565b601f01601f1916919091016040019291505056fea2646970667358221220ace182a5d0923bc252e5f0b5cb01d898ecf34007bfd8f0662d0b40a94e772d9264736f6c63430008150033",
    "linkReferences": {}
  },
  "methodIdentifiers": {
    "redeem(uint256[])": "f9afb26a",
    "startTime()": "78e97925"
  },
  "id": 117
}