{
  "abi": [
    {
      "inputs": [
        {
          "internalType": "address",
          "name": "_pint",
          "type": "address"
        }
      ],
      "stateMutability": "nonpayable",
      "type": "constructor"
    },
    {
      "inputs": [
        {
          "internalType": "uint256[]",
          "name": "tokenIds",
          "type": "uint256[]"
        }
      ],
      "name": "redeemTRIS",
      "outputs": [
        {
          "internalType": "uint256",
          "name": "output",
          "type": "uint256"
        }
      ],
      "stateMutability": "nonpayable",
      "type": "function"
    },
    {
      "inputs": [
        {
          "internalType": "uint256[]",
          "name": "tokenIds",
          "type": "uint256[]"
        }
      ],
      "name": "redeemWOCK",
      "outputs": [
        {
          "internalType": "uint256",
          "name": "streamId",
          "type": "uint256"
        }
      ],
      "stateMutability": "nonpayable",
      "type": "function"
    },
    {
      "inputs": [],
      "name": "startTime",
      "outputs": [
        {
          "internalType": "uint256",
          "name": "",
          "type": "uint256"
        }
      ],
      "stateMutability": "view",
      "type": "function"
    }
  ],
  "bytecode": {
    "object": "0x60a060405234801561001057600080fd5b50604051610b8e380380610b8e83398101604081905261002f91610044565b6001600160a01b031660805242600055610074565b60006020828403121561005657600080fd5b81516001600160a01b038116811461006d57600080fd5b9392505050565b608051610af161009d600039600081816101cf015281816102a801526104c80152610af16000f3fe608060405234801561001057600080fd5b50600436106100415760003560e01c806378e97925146100465780639735eddb14610061578063daa7c5fe14610074575b600080fd5b61004f60005481565b60405190815260200160405180910390f35b61004f61006f366004610808565b610087565b61004f610082366004610808565b6103d7565b6000805b82518110156101515773cb72ed407cdb97a7161a2b567b5f50b55585ee6b6001600160a01b03166342842e0e3360008685815181106100cc576100cc6108c6565b60209081029190910101516040516001600160e01b031960e086901b1681526001600160a01b0393841660048201529290911660248301526044820152606401600060405180830381600087803b15801561012657600080fd5b505af115801561013a573d6000803e3d6000fd5b505050508080610149906108f2565b91505061008b565b50600069d3c21bcecceda1000000835161016b919061090b565b905060006101c0826301dfe20084600054426101879190610922565b61019290600361090b565b61019c919061090b565b6101a69190610935565b6101b1600486610935565b6101bb9190610957565b610509565b905061020b6001600160a01b037f00000000000000000000000000000000000000000000000000000000000000001673ec3de41d5ead4cebffd656f7fc9d1a8d8ff0f8c03384610523565b6102656040805160e0810182526000808252602080830182905282840182905260608301829052608083018290528351808501855282815280820183905260a084015283518085019094528184528301529060c082015290565b73ec3de41d5ead4cebffd656f7fc9d1a8d8ff0f8c0815233602082015261028c8284610922565b6001600160801b03166040808301919091526001600160a01b037f000000000000000000000000000000000000000000000000000000000000000016606083015260016080830152805180820190915260008082525460208201906102fb906301dfe200906101bb9042610922565b610309906301dfe200610922565b64ffffffffff16905260a0820152604080518082019091526000808252602082015260c08201526000546301dfe200906103439042610922565b111561035257600093506103cf565b604051631b4103a960e01b815273b10daee1fcf62243ae27776d7a92d39dc8740f9590631b4103a99061038990849060040161096a565b6020604051808303816000875af11580156103a8573d6000803e3d6000fd5b505050506040513d601f19601f820116820180604052508101906103cc9190610a06565b93505b505050919050565b6000805b82518110156104a15773cb72ed407cdb97a7161a2b567b5f50b55585ee6b6001600160a01b03166342842e0e33600086858151811061041c5761041c6108c6565b60209081029190910101516040516001600160e01b031960e086901b1681526001600160a01b0393841660048201529290911660248301526044820152606401600060405180830381600087803b15801561047657600080fd5b505af115801561048a573d6000803e3d6000fd5b505050508080610499906108f2565b9150506103db565b5069152d02c7e14af680000082516104b9919061090b565b90506105046001600160a01b037f00000000000000000000000000000000000000000000000000000000000000001673ec3de41d5ead4cebffd656f7fc9d1a8d8ff0f8c03384610523565b919050565b6000818311610518578161051a565b825b90505b92915050565b604080516001600160a01b0385811660248301528416604482015260648082018490528251808303909101815260849091019091526020810180516001600160e01b03166323b872dd60e01b17905261057d908590610583565b50505050565b60006105d8826040518060400160405280602081526020017f5361666545524332303a206c6f772d6c6576656c2063616c6c206661696c6564815250856001600160a01b03166106629092919063ffffffff16565b90508051600014806105f95750808060200190518101906105f99190610a1f565b61065d5760405162461bcd60e51b815260206004820152602a60248201527f5361666545524332303a204552433230206f7065726174696f6e20646964206e6044820152691bdd081cdd58d8d9595960b21b60648201526084015b60405180910390fd5b505050565b60606106718484600085610679565b949350505050565b6060824710156106da5760405162461bcd60e51b815260206004820152602660248201527f416464726573733a20696e73756666696369656e742062616c616e636520666f6044820152651c8818d85b1b60d21b6064820152608401610654565b600080866001600160a01b031685876040516106f69190610a6c565b60006040518083038185875af1925050503d8060008114610733576040519150601f19603f3d011682016040523d82523d6000602084013e610738565b606091505b509150915061074987838387610754565b979650505050505050565b606083156107c35782516000036107bc576001600160a01b0385163b6107bc5760405162461bcd60e51b815260206004820152601d60248201527f416464726573733a2063616c6c20746f206e6f6e2d636f6e74726163740000006044820152606401610654565b5081610671565b61067183838151156107d85781518083602001fd5b8060405162461bcd60e51b81526004016106549190610a88565b634e487b7160e01b600052604160045260246000fd5b6000602080838503121561081b57600080fd5b823567ffffffffffffffff8082111561083357600080fd5b818501915085601f83011261084757600080fd5b813581811115610859576108596107f2565b8060051b604051601f19603f8301168101818110858211171561087e5761087e6107f2565b60405291825284820192508381018501918883111561089c57600080fd5b938501935b828510156108ba578435845293850193928501926108a1565b98975050505050505050565b634e487b7160e01b600052603260045260246000fd5b634e487b7160e01b600052601160045260246000fd5b600060018201610904576109046108dc565b5060010190565b808202811582820484141761051d5761051d6108dc565b8181038181111561051d5761051d6108dc565b60008261095257634e487b7160e01b600052601260045260246000fd5b500490565b8082018082111561051d5761051d6108dc565b60006101208201905060018060a01b038084511683528060208501511660208401526001600160801b0360408501511660408401528060608501511660608401525060808301511515608083015260a083015164ffffffffff8082511660a08501528060208301511660c0850152505060c08301516109ff60e084018280516001600160a01b03168252602090810151910152565b5092915050565b600060208284031215610a1857600080fd5b5051919050565b600060208284031215610a3157600080fd5b81518015158114610a4157600080fd5b9392505050565b60005b83811015610a63578181015183820152602001610a4b565b50506000910152565b60008251610a7e818460208701610a48565b9190910192915050565b6020815260008251806020840152610aa7816040850160208701610a48565b601f01601f1916919091016040019291505056fea26469706673582212206495e85b131d0b9548718bf5d8a023574c8717820c8ce19e7a28d87984274ceb64736f6c63430008150033",
    "linkReferences": {}
  },
  "methodIdentifiers": {
    "redeemTRIS(uint256[])": "daa7c5fe",
    "redeemWOCK(uint256[])": "9735eddb",
    "startTime()": "78e97925"
  },
  "id": 46
}