{"abi":[{"type":"constructor","inputs":[],"stateMutability":"nonpayable"},{"type":"function","name":"DOMAIN_SEPARATOR","inputs":[],"outputs":[{"name":"","type":"bytes32","internalType":"bytes32"}],"stateMutability":"view"},{"type":"function","name":"PERMIT_TYPEHASH","inputs":[],"outputs":[{"name":"","type":"bytes32","internalType":"bytes32"}],"stateMutability":"view"},{"type":"function","name":"approve","inputs":[{"name":"to","type":"address","internalType":"address"},{"name":"tokenId","type":"uint256","internalType":"uint256"}],"outputs":[],"stateMutability":"nonpayable"},{"type":"function","name":"balanceOf","inputs":[{"name":"owner","type":"address","internalType":"address"}],"outputs":[{"name":"","type":"uint256","internalType":"uint256"}],"stateMutability":"view"},{"type":"function","name":"deployVault","inputs":[{"name":"asset","type":"address","internalType":"address"}],"outputs":[{"name":"clone","type":"address","internalType":"address"}],"stateMutability":"nonpayable"},{"type":"function","name":"getApproved","inputs":[{"name":"tokenId","type":"uint256","internalType":"uint256"}],"outputs":[{"name":"","type":"address","internalType":"address"}],"stateMutability":"view"},{"type":"function","name":"isApprovedForAll","inputs":[{"name":"owner","type":"address","internalType":"address"},{"name":"operator","type":"address","internalType":"address"}],"outputs":[{"name":"","type":"bool","internalType":"bool"}],"stateMutability":"view"},{"type":"function","name":"mint","inputs":[{"name":"_to","type":"address","internalType":"address"},{"name":"_tokenId","type":"uint256","internalType":"uint256"}],"outputs":[],"stateMutability":"nonpayable"},{"type":"function","name":"name","inputs":[],"outputs":[{"name":"","type":"string","internalType":"string"}],"stateMutability":"view"},{"type":"function","name":"nameTaken","inputs":[{"name":"","type":"bytes32","internalType":"bytes32"}],"outputs":[{"name":"","type":"bool","internalType":"bool"}],"stateMutability":"view"},{"type":"function","name":"nonces","inputs":[{"name":"","type":"uint256","internalType":"uint256"}],"outputs":[{"name":"","type":"uint256","internalType":"uint256"}],"stateMutability":"view"},{"type":"function","name":"owner","inputs":[],"outputs":[{"name":"","type":"address","internalType":"address"}],"stateMutability":"view"},{"type":"function","name":"ownerOf","inputs":[{"name":"tokenId","type":"uint256","internalType":"uint256"}],"outputs":[{"name":"","type":"address","internalType":"address"}],"stateMutability":"view"},{"type":"function","name":"permit","inputs":[{"name":"spender","type":"address","internalType":"address"},{"name":"tokenId","type":"uint256","internalType":"uint256"},{"name":"deadline","type":"uint256","internalType":"uint256"},{"name":"v","type":"uint8","internalType":"uint8"},{"name":"r","type":"bytes32","internalType":"bytes32"},{"name":"s","type":"bytes32","internalType":"bytes32"}],"outputs":[],"stateMutability":"payable"},{"type":"function","name":"registerName","inputs":[{"name":"nameHash","type":"bytes32","internalType":"bytes32"}],"outputs":[],"stateMutability":"nonpayable"},{"type":"function","name":"renounceOwnership","inputs":[],"outputs":[],"stateMutability":"nonpayable"},{"type":"function","name":"safeTransferFrom","inputs":[{"name":"from","type":"address","internalType":"address"},{"name":"to","type":"address","internalType":"address"},{"name":"tokenId","type":"uint256","internalType":"uint256"}],"outputs":[],"stateMutability":"nonpayable"},{"type":"function","name":"safeTransferFrom","inputs":[{"name":"from","type":"address","internalType":"address"},{"name":"to","type":"address","internalType":"address"},{"name":"tokenId","type":"uint256","internalType":"uint256"},{"name":"data","type":"bytes","internalType":"bytes"}],"outputs":[],"stateMutability":"nonpayable"},{"type":"function","name":"setApprovalForAll","inputs":[{"name":"operator","type":"address","internalType":"address"},{"name":"approved","type":"bool","internalType":"bool"}],"outputs":[],"stateMutability":"nonpayable"},{"type":"function","name":"setBaseURI","inputs":[{"name":"_uri","type":"string","internalType":"string"}],"outputs":[],"stateMutability":"nonpayable"},{"type":"function","name":"sipHash","inputs":[],"outputs":[{"name":"","type":"bytes32","internalType":"bytes32"}],"stateMutability":"view"},{"type":"function","name":"sipImplementation","inputs":[],"outputs":[{"name":"","type":"address","internalType":"address"}],"stateMutability":"view"},{"type":"function","name":"supportsInterface","inputs":[{"name":"interfaceId","type":"bytes4","internalType":"bytes4"}],"outputs":[{"name":"","type":"bool","internalType":"bool"}],"stateMutability":"view"},{"type":"function","name":"symbol","inputs":[],"outputs":[{"name":"","type":"string","internalType":"string"}],"stateMutability":"view"},{"type":"function","name":"tokenByIndex","inputs":[{"name":"index","type":"uint256","internalType":"uint256"}],"outputs":[{"name":"","type":"uint256","internalType":"uint256"}],"stateMutability":"view"},{"type":"function","name":"tokenOfOwnerByIndex","inputs":[{"name":"owner","type":"address","internalType":"address"},{"name":"index","type":"uint256","internalType":"uint256"}],"outputs":[{"name":"","type":"uint256","internalType":"uint256"}],"stateMutability":"view"},{"type":"function","name":"tokenURI","inputs":[{"name":"tokenId","type":"uint256","internalType":"uint256"}],"outputs":[{"name":"","type":"string","internalType":"string"}],"stateMutability":"view"},{"type":"function","name":"totalSupply","inputs":[],"outputs":[{"name":"","type":"uint256","internalType":"uint256"}],"stateMutability":"view"},{"type":"function","name":"transferFrom","inputs":[{"name":"from","type":"address","internalType":"address"},{"name":"to","type":"address","internalType":"address"},{"name":"tokenId","type":"uint256","internalType":"uint256"}],"outputs":[],"stateMutability":"nonpayable"},{"type":"function","name":"transferOwnership","inputs":[{"name":"newOwner","type":"address","internalType":"address"}],"outputs":[],"stateMutability":"nonpayable"},{"type":"function","name":"vaultFor","inputs":[{"name":"asset","type":"address","internalType":"address"}],"outputs":[{"name":"","type":"address","internalType":"address"}],"stateMutability":"view"},{"type":"function","name":"version","inputs":[],"outputs":[{"name":"","type":"string","internalType":"string"}],"stateMutability":"pure"},{"type":"event","name":"Approval","inputs":[{"name":"owner","type":"address","indexed":true,"internalType":"address"},{"name":"approved","type":"address","indexed":true,"internalType":"address"},{"name":"tokenId","type":"uint256","indexed":true,"internalType":"uint256"}],"anonymous":false},{"type":"event","name":"ApprovalForAll","inputs":[{"name":"owner","type":"address","indexed":true,"internalType":"address"},{"name":"operator","type":"address","indexed":true,"internalType":"address"},{"name":"approved","type":"bool","indexed":false,"internalType":"bool"}],"anonymous":false},{"type":"event","name":"OwnershipTransferred","inputs":[{"name":"previousOwner","type":"address","indexed":true,"internalType":"address"},{"name":"newOwner","type":"address","indexed":true,"internalType":"address"}],"anonymous":false},{"type":"event","name":"Transfer","inputs":[{"name":"from","type":"address","indexed":true,"internalType":"address"},{"name":"to","type":"address","indexed":true,"internalType":"address"},{"name":"tokenId","type":"uint256","indexed":true,"internalType":"uint256"}],"anonymous":false}],"bytecode":{"object":"0x61010060405234801562000011575f80fd5b50604051806040016040528060048152602001634f50505360e01b815250604051806040016040528060048152602001634f50505360e01b815250604051806040016040528060018152602001603160f81b8152508282815f908162000078919062000356565b50600162000087828262000356565b5050835160209485012060805250805192019190912060a05250620000ac336200011f565b620000d060405180608001604052806043815260200162004e666043913962000170565b604051620000de90620002aa565b604051809103905ff080158015620000f8573d5f803e3d5ffd5b506001600160a01b031660c0525f8062000112816200018c565b3f60e05250620004229050565b600a80546001600160a01b038381166001600160a01b0319831681179093556040519116919082907f8be0079c531659141344cd1fd0a4f28419497f9722a3daafe3b4186f6b6457e0905f90a35050565b6200017a620001ac565b600d62000188828262000356565b5050565b60c0515f90620001a6906001600160a01b0384166200020e565b92915050565b600a546001600160a01b031633146200020c5760405162461bcd60e51b815260206004820181905260248201527f4f776e61626c653a2063616c6c6572206973206e6f7420746865206f776e657260448201526064015b60405180910390fd5b565b5f763d602d80600a3d3981f3363d3d373d3d3d363d730000008360601b60e81c175f526e5af43d82803e903d91602b57fd5bf38360781b1760205281603760095ff590506001600160a01b038116620001a65760405162461bcd60e51b815260206004820152601760248201527f455243313136373a2063726561746532206661696c6564000000000000000000604482015260640162000203565b61249d80620029c983390190565b634e487b7160e01b5f52604160045260245ffd5b600181811c90821680620002e157607f821691505b6020821081036200030057634e487b7160e01b5f52602260045260245ffd5b50919050565b601f8211156200035157805f5260205f20601f840160051c810160208510156200032d5750805b601f840160051c820191505b818110156200034e575f815560010162000339565b50505b505050565b81516001600160401b03811115620003725762000372620002b8565b6200038a81620003838454620002cc565b8462000306565b602080601f831160018114620003c0575f8415620003a85750858301515b5f19600386901b1c1916600185901b1785556200041a565b5f85815260208120601f198616915b82811015620003f057888601518255948401946001909101908401620003cf565b50858210156200040e57878501515f19600388901b60f8161c191681555b505060018460011b0185555b505050505050565b60805160a05160c05160e05161255e6200046b5f395f81816104a4015261115301525f8181610471015281816109cf015261173801525f61094e01525f61092d015261255e5ff3fe6080604052600436106101db575f3560e01c80635eb512e7116100fd5780638da5cb5b11610092578063c87b56dd11610062578063c87b56dd146105a9578063d6da0805146105c8578063e985e9c5146105e7578063f2fde38b1461062e575f80fd5b80638da5cb5b1461053a57806395d89b4114610557578063a22cb4651461056b578063b88d4fde1461058a575f80fd5b80636e935422116100cd5780636e935422146104c657806370a08231146104f4578063715018a6146105135780637ac2ff7b14610527575f80fd5b80635eb512e7146104225780636352211e14610441578063689893ee146104605780636dfae1dd14610493575f80fd5b806330adf81f1161017357806342842e0e1161014357806342842e0e1461039c5780634f6ccce7146103bb57806354fd4d50146103da57806355f804b314610403575f80fd5b806330adf81f146103175780633644e5151461034a5780633d77cdcf1461035e57806340c10f191461037d575f80fd5b8063141a468c116101ae578063141a468c1461028c57806318160ddd146102c557806323b872dd146102d95780632f745c59146102f8575f80fd5b806301ffc9a7146101df57806306fdde0314610213578063081812fc14610234578063095ea7b31461026b575b5f80fd5b3480156101ea575f80fd5b506101fe6101f9366004611eb6565b61064d565b60405190151581526020015b60405180910390f35b34801561021e575f80fd5b50610227610677565b60405161020a9190611f1e565b34801561023f575f80fd5b5061025361024e366004611f30565b610706565b6040516001600160a01b03909116815260200161020a565b348015610276575f80fd5b5061028a610285366004611f5b565b61072b565b005b348015610297575f80fd5b506102b76102a6366004611f30565b600b6020525f908152604090205481565b60405190815260200161020a565b3480156102d0575f80fd5b506008546102b7565b3480156102e4575f80fd5b5061028a6102f3366004611f85565b610844565b348015610303575f80fd5b506102b7610312366004611f5b565b610875565b348015610322575f80fd5b506102b77f49ecf333e5b8c95c40fdafc95c1ad136e8914a8fb55e9dc8bb01eaa83a2df9ad81565b348015610355575f80fd5b506102b7610909565b348015610369575f80fd5b50610253610378366004611fc3565b6109ae565b348015610388575f80fd5b5061028a610397366004611f5b565b610a34565b3480156103a7575f80fd5b5061028a6103b6366004611f85565b610a4a565b3480156103c6575f80fd5b506102b76103d5366004611f30565b610a64565b3480156103e5575f80fd5b506040805180820190915260018152603160f81b6020820152610227565b34801561040e575f80fd5b5061028a61041d366004612065565b610af4565b34801561042d575f80fd5b5061025361043c366004611fc3565b610b08565b34801561044c575f80fd5b5061025361045b366004611f30565b610b71565b34801561046b575f80fd5b506102537f000000000000000000000000000000000000000000000000000000000000000081565b34801561049e575f80fd5b506102b77f000000000000000000000000000000000000000000000000000000000000000081565b3480156104d1575f80fd5b506101fe6104e0366004611f30565b600c6020525f908152604090205460ff1681565b3480156104ff575f80fd5b506102b761050e366004611fc3565b610bd0565b34801561051e575f80fd5b5061028a610c54565b61028a6105353660046120aa565b610c67565b348015610545575f80fd5b50600a546001600160a01b0316610253565b348015610562575f80fd5b50610227610ff2565b348015610576575f80fd5b5061028a610585366004612107565b611001565b348015610595575f80fd5b5061028a6105a4366004612142565b61100c565b3480156105b4575f80fd5b506102276105c3366004611f30565b611044565b3480156105d3575f80fd5b5061028a6105e2366004611f30565b6110a8565b3480156105f2575f80fd5b506101fe6106013660046121bd565b6001600160a01b039182165f90815260056020908152604080832093909416825291909152205460ff1690565b348015610639575f80fd5b5061028a610648366004611fc3565b6111c4565b5f6001600160e01b0319821663780e9d6360e01b148061067157506106718261123d565b92915050565b60605f8054610685906121e9565b80601f01602080910402602001604051908101604052809291908181526020018280546106b1906121e9565b80156106fc5780601f106106d3576101008083540402835291602001916106fc565b820191905f5260205f20905b8154815290600101906020018083116106df57829003601f168201915b5050505050905090565b5f6107108261128c565b505f908152600460205260409020546001600160a01b031690565b5f61073582610b71565b9050806001600160a01b0316836001600160a01b0316036107a75760405162461bcd60e51b815260206004820152602160248201527f4552433732313a20617070726f76616c20746f2063757272656e74206f776e656044820152603960f91b60648201526084015b60405180910390fd5b336001600160a01b03821614806107c357506107c38133610601565b6108355760405162461bcd60e51b815260206004820152603d60248201527f4552433732313a20617070726f76652063616c6c6572206973206e6f7420746f60448201527f6b656e206f776e6572206f7220617070726f76656420666f7220616c6c000000606482015260840161079e565b61083f83836112ea565b505050565b61084e3382611357565b61086a5760405162461bcd60e51b815260040161079e90612221565b61083f8383836113d4565b5f61087f83610bd0565b82106108e15760405162461bcd60e51b815260206004820152602b60248201527f455243373231456e756d657261626c653a206f776e657220696e646578206f7560448201526a74206f6620626f756e647360a81b606482015260840161079e565b506001600160a01b03919091165f908152600660209081526040808320938352929052205490565b5f7f8b73c3c69bb8fe3d512ecc4cf759cc79239f7b179b0ffacaa9a75d522b39400f7f00000000000000000000000000000000000000000000000000000000000000007f000000000000000000000000000000000000000000000000000000000000000046604080516020810195909552840192909252606083015260808201523060a082015260c00160405160208183030381529060405280519060200120905090565b6040513060388201526f5af43d82803e903d91602b57fd5bf3ff60248201527f00000000000000000000000000000000000000000000000000000000000000006014820152733d602d80600a3d3981f3363d3d373d3d3d363d7381526001600160a01b03821660588201526037600c820120607882015260556043909101205f90610671565b610a3c611543565b610a46828261159d565b5050565b61083f83838360405180602001604052805f81525061100c565b5f610a6e60085490565b8210610ad15760405162461bcd60e51b815260206004820152602c60248201527f455243373231456e756d657261626c653a20676c6f62616c20696e646578206f60448201526b7574206f6620626f756e647360a01b606482015260840161079e565b60088281548110610ae457610ae461226e565b905f5260205f2001549050919050565b610afc611543565b600d610a4682826122c6565b5f610b1282611732565b60405163189acdbd60e31b81526001600160a01b0384811660048301529192509082169063c4d66de8906024015f604051808303815f87803b158015610b56575f80fd5b505af1158015610b68573d5f803e3d5ffd5b50505050919050565b5f818152600260205260408120546001600160a01b0316806106715760405162461bcd60e51b8152602060048201526018602482015277115490cdcc8c4e881a5b9d985b1a59081d1bdad95b88125160421b604482015260640161079e565b5f6001600160a01b038216610c395760405162461bcd60e51b815260206004820152602960248201527f4552433732313a2061646472657373207a65726f206973206e6f7420612076616044820152683634b21037bbb732b960b91b606482015260840161079e565b506001600160a01b03165f9081526003602052604090205490565b610c5c611543565b610c655f611766565b565b83421115610ca85760405162461bcd60e51b815260206004820152600e60248201526d14195c9b5a5d08195e1c1a5c995960921b604482015260640161079e565b5f610cb1610909565b7f49ecf333e5b8c95c40fdafc95c1ad136e8914a8fb55e9dc8bb01eaa83a2df9ad8888610cdd816117b7565b6040805160208101959095526001600160a01b03909316928401929092526060830152608082015260a0810187905260c00160405160208183030381529060405280519060200120604051602001610d4c92919061190160f01b81526002810192909252602282015260420190565b6040516020818303038152906040528051906020012090505f610d6e87610b71565b9050806001600160a01b0316886001600160a01b031603610de15760405162461bcd60e51b815260206004820152602760248201527f4552433732315065726d69743a20617070726f76616c20746f2063757272656e6044820152663a1037bbb732b960c91b606482015260840161079e565b6001600160a01b0381163b15610ee457604080516020810186905280820185905260f887901b6001600160f81b0319166060820152815160418183030181526061820192839052630b135d3f60e11b9092526001600160a01b03831691631626ba7e91610e52918691606501612386565b602060405180830381865afa158015610e6d573d5f803e3d5ffd5b505050506040513d601f19601f82011682018060405250810190610e91919061239e565b6001600160e01b031916631626ba7e60e01b14610edf5760405162461bcd60e51b815260206004820152600c60248201526b155b985d5d1a1bdc9a5e995960a21b604482015260640161079e565b610fde565b604080515f8082526020820180845285905260ff881692820192909252606081018690526080810185905260019060a0016020604051602081039080840390855afa158015610f35573d5f803e3d5ffd5b5050604051601f1901519150506001600160a01b038116610f8c5760405162461bcd60e51b8152602060048201526011602482015270496e76616c6964207369676e617475726560781b604482015260640161079e565b816001600160a01b0316816001600160a01b031614610fdc5760405162461bcd60e51b815260206004820152600c60248201526b155b985d5d1a1bdc9a5e995960a21b604482015260640161079e565b505b610fe888886112ea565b5050505050505050565b606060018054610685906121e9565b610a463383836117df565b6110163383611357565b6110325760405162461bcd60e51b815260040161079e90612221565b61103e848484846118ac565b50505050565b606061104f8261128c565b5f6110586118df565b90505f8151116110765760405180602001604052805f8152506110a1565b80611080846118ee565b6040516020016110919291906123b9565b6040516020818303038152906040525b9392505050565b306001600160a01b0316336001600160a01b031662840bc26040518163ffffffff1660e01b8152600401602060405180830381865afa1580156110ed573d5f803e3d5ffd5b505050506040513d601f19601f8201168201806040525081019061111191906123e7565b6001600160a01b03161461114f5760405162461bcd60e51b8152602060048201526005602482015264216f70707360d81b604482015260640161079e565b333f7f000000000000000000000000000000000000000000000000000000000000000081146111a95760405162461bcd60e51b815260040161079e906020808252600490820152630217369760e41b604082015260600190565b505f908152600c60205260409020805460ff19166001179055565b6111cc611543565b6001600160a01b0381166112315760405162461bcd60e51b815260206004820152602660248201527f4f776e61626c653a206e6577206f776e657220697320746865207a65726f206160448201526564647265737360d01b606482015260840161079e565b61123a81611766565b50565b5f6001600160e01b031982166380ac58cd60e01b148061126d57506001600160e01b03198216635b5e139f60e01b145b8061067157506301ffc9a760e01b6001600160e01b0319831614610671565b5f818152600260205260409020546001600160a01b031661123a5760405162461bcd60e51b8152602060048201526018602482015277115490cdcc8c4e881a5b9d985b1a59081d1bdad95b88125160421b604482015260640161079e565b5f81815260046020526040902080546001600160a01b0319166001600160a01b038416908117909155819061131e82610b71565b6001600160a01b03167f8c5be1e5ebec7d5bd14f71427d1e84f3dd0314c0f7b2291e5b200ac8c7c3b92560405160405180910390a45050565b5f8061136283610b71565b9050806001600160a01b0316846001600160a01b031614806113a857506001600160a01b038082165f9081526005602090815260408083209388168352929052205460ff165b806113cc5750836001600160a01b03166113c184610706565b6001600160a01b0316145b949350505050565b826001600160a01b03166113e782610b71565b6001600160a01b03161461140d5760405162461bcd60e51b815260040161079e90612402565b6001600160a01b03821661146f5760405162461bcd60e51b8152602060048201526024808201527f4552433732313a207472616e7366657220746f20746865207a65726f206164646044820152637265737360e01b606482015260840161079e565b61147c838383600161197e565b826001600160a01b031661148f82610b71565b6001600160a01b0316146114b55760405162461bcd60e51b815260040161079e90612402565b5f81815260046020908152604080832080546001600160a01b03199081169091556001600160a01b038781168086526003855283862080545f1901905590871680865283862080546001019055868652600290945282852080549092168417909155905184937fddf252ad1be2c89b69c2b068fc378daa952ba7f163c4a11628f55a4df523b3ef91a4505050565b600a546001600160a01b03163314610c655760405162461bcd60e51b815260206004820181905260248201527f4f776e61626c653a2063616c6c6572206973206e6f7420746865206f776e6572604482015260640161079e565b6001600160a01b0382166115f35760405162461bcd60e51b815260206004820181905260248201527f4552433732313a206d696e7420746f20746865207a65726f2061646472657373604482015260640161079e565b5f818152600260205260409020546001600160a01b0316156116575760405162461bcd60e51b815260206004820152601c60248201527f4552433732313a20746f6b656e20616c7265616479206d696e74656400000000604482015260640161079e565b6116645f8383600161197e565b5f818152600260205260409020546001600160a01b0316156116c85760405162461bcd60e51b815260206004820152601c60248201527f4552433732313a20746f6b656e20616c7265616479206d696e74656400000000604482015260640161079e565b6001600160a01b0382165f81815260036020908152604080832080546001019055848352600290915280822080546001600160a01b0319168417905551839291907fddf252ad1be2c89b69c2b068fc378daa952ba7f163c4a11628f55a4df523b3ef908290a45050565b5f6106717f00000000000000000000000000000000000000000000000000000000000000006001600160a01b038416611ab1565b600a80546001600160a01b038381166001600160a01b0319831681179093556040519116919082907f8be0079c531659141344cd1fd0a4f28419497f9722a3daafe3b4186f6b6457e0905f90a35050565b5f818152600b602052604081208054908190836117d38361245b565b90915550909392505050565b816001600160a01b0316836001600160a01b0316036118405760405162461bcd60e51b815260206004820152601960248201527f4552433732313a20617070726f766520746f2063616c6c657200000000000000604482015260640161079e565b6001600160a01b038381165f81815260056020908152604080832094871680845294825291829020805460ff191686151590811790915591519182527f17307eab39ab6107e8899845ad3d59bd9653f200f220920489ca2b5937696c31910160405180910390a3505050565b6118b78484846113d4565b6118c384848484611b4b565b61103e5760405162461bcd60e51b815260040161079e90612473565b6060600d8054610685906121e9565b60605f6118fa83611c48565b60010190505f8167ffffffffffffffff81111561191957611919611fde565b6040519080825280601f01601f191660200182016040528015611943576020820181803683370190505b5090508181016020015b5f19016f181899199a1a9b1b9c1cb0b131b232b360811b600a86061a8153600a850494508461194d57509392505050565b60018111156119ed5760405162461bcd60e51b815260206004820152603560248201527f455243373231456e756d657261626c653a20636f6e7365637574697665207472604482015274185b9cd9995c9cc81b9bdd081cdd5c1c1bdc9d1959605a1b606482015260840161079e565b816001600160a01b038516611a4857611a4381600880545f838152600960205260408120829055600182018355919091527ff3f7a9fe364faab93b216da50a3214154f22a0a2b415b23a84c8169e8b636ee30155565b611a6b565b836001600160a01b0316856001600160a01b031614611a6b57611a6b8582611d1f565b6001600160a01b038416611a8757611a8281611db8565b611aaa565b846001600160a01b0316846001600160a01b031614611aaa57611aaa8482611e5f565b5050505050565b5f763d602d80600a3d3981f3363d3d373d3d3d363d730000008360601b60e81c175f526e5af43d82803e903d91602b57fd5bf38360781b1760205281603760095ff590506001600160a01b0381166106715760405162461bcd60e51b815260206004820152601760248201527f455243313136373a2063726561746532206661696c6564000000000000000000604482015260640161079e565b5f6001600160a01b0384163b15611c3d57604051630a85bd0160e11b81526001600160a01b0385169063150b7a0290611b8e9033908990889088906004016124c5565b6020604051808303815f875af1925050508015611bc8575060408051601f3d908101601f19168201909252611bc59181019061239e565b60015b611c23573d808015611bf5576040519150601f19603f3d011682016040523d82523d5f602084013e611bfa565b606091505b5080515f03611c1b5760405162461bcd60e51b815260040161079e90612473565b805181602001fd5b6001600160e01b031916630a85bd0160e11b1490506113cc565b506001949350505050565b5f8072184f03e93ff9f4daa797ed6e38ed64bf6a1f0160401b8310611c865772184f03e93ff9f4daa797ed6e38ed64bf6a1f0160401b830492506040015b6d04ee2d6d415b85acef81000000008310611cb2576d04ee2d6d415b85acef8100000000830492506020015b662386f26fc100008310611cd057662386f26fc10000830492506010015b6305f5e1008310611ce8576305f5e100830492506008015b6127108310611cfc57612710830492506004015b60648310611d0e576064830492506002015b600a83106106715760010192915050565b5f6001611d2b84610bd0565b611d359190612501565b5f83815260076020526040902054909150808214611d86576001600160a01b0384165f9081526006602090815260408083208584528252808320548484528184208190558352600790915290208190555b505f9182526007602090815260408084208490556001600160a01b039094168352600681528383209183525290812055565b6008545f90611dc990600190612501565b5f8381526009602052604081205460088054939450909284908110611df057611df061226e565b905f5260205f20015490508060088381548110611e0f57611e0f61226e565b5f918252602080832090910192909255828152600990915260408082208490558582528120556008805480611e4657611e46612514565b600190038181905f5260205f20015f9055905550505050565b5f611e6983610bd0565b6001600160a01b039093165f908152600660209081526040808320868452825280832085905593825260079052919091209190915550565b6001600160e01b03198116811461123a575f80fd5b5f60208284031215611ec6575f80fd5b81356110a181611ea1565b5f5b83811015611eeb578181015183820152602001611ed3565b50505f910152565b5f8151808452611f0a816020860160208601611ed1565b601f01601f19169290920160200192915050565b602081525f6110a16020830184611ef3565b5f60208284031215611f40575f80fd5b5035919050565b6001600160a01b038116811461123a575f80fd5b5f8060408385031215611f6c575f80fd5b8235611f7781611f47565b946020939093013593505050565b5f805f60608486031215611f97575f80fd5b8335611fa281611f47565b92506020840135611fb281611f47565b929592945050506040919091013590565b5f60208284031215611fd3575f80fd5b81356110a181611f47565b634e487b7160e01b5f52604160045260245ffd5b5f67ffffffffffffffff8084111561200c5761200c611fde565b604051601f8501601f19908116603f0116810190828211818310171561203457612034611fde565b8160405280935085815286868601111561204c575f80fd5b858560208301375f602087830101525050509392505050565b5f60208284031215612075575f80fd5b813567ffffffffffffffff81111561208b575f80fd5b8201601f8101841361209b575f80fd5b6113cc84823560208401611ff2565b5f805f805f8060c087890312156120bf575f80fd5b86356120ca81611f47565b95506020870135945060408701359350606087013560ff811681146120ed575f80fd5b9598949750929560808101359460a0909101359350915050565b5f8060408385031215612118575f80fd5b823561212381611f47565b915060208301358015158114612137575f80fd5b809150509250929050565b5f805f8060808587031215612155575f80fd5b843561216081611f47565b9350602085013561217081611f47565b925060408501359150606085013567ffffffffffffffff811115612192575f80fd5b8501601f810187136121a2575f80fd5b6121b187823560208401611ff2565b91505092959194509250565b5f80604083850312156121ce575f80fd5b82356121d981611f47565b9150602083013561213781611f47565b600181811c908216806121fd57607f821691505b60208210810361221b57634e487b7160e01b5f52602260045260245ffd5b50919050565b6020808252602d908201527f4552433732313a2063616c6c6572206973206e6f7420746f6b656e206f776e6560408201526c1c881bdc88185c1c1c9bdd9959609a1b606082015260800190565b634e487b7160e01b5f52603260045260245ffd5b601f82111561083f57805f5260205f20601f840160051c810160208510156122a75750805b601f840160051c820191505b81811015611aaa575f81556001016122b3565b815167ffffffffffffffff8111156122e0576122e0611fde565b6122f4816122ee84546121e9565b84612282565b602080601f831160018114612327575f84156123105750858301515b5f19600386901b1c1916600185901b17855561237e565b5f85815260208120601f198616915b8281101561235557888601518255948401946001909101908401612336565b508582101561237257878501515f19600388901b60f8161c191681555b505060018460011b0185555b505050505050565b828152604060208201525f6113cc6040830184611ef3565b5f602082840312156123ae575f80fd5b81516110a181611ea1565b5f83516123ca818460208801611ed1565b8351908301906123de818360208801611ed1565b01949350505050565b5f602082840312156123f7575f80fd5b81516110a181611f47565b60208082526025908201527f4552433732313a207472616e736665722066726f6d20696e636f72726563742060408201526437bbb732b960d91b606082015260800190565b634e487b7160e01b5f52601160045260245ffd5b5f6001820161246c5761246c612447565b5060010190565b60208082526032908201527f4552433732313a207472616e7366657220746f206e6f6e20455243373231526560408201527131b2b4bb32b91034b6b83632b6b2b73a32b960711b606082015260800190565b6001600160a01b03858116825284166020820152604081018390526080606082018190525f906124f790830184611ef3565b9695505050505050565b8181038181111561067157610671612447565b634e487b7160e01b5f52603160045260245ffdfea2646970667358221220d56908e4aa4ba5a1e2d7b4ee8afd7e6932e55d15061798bd9fd1821de201688464736f6c63430008160033608060405234801561000f575f80fd5b506124808061001d5f395ff3fe608060405234801561000f575f80fd5b50600436106101f0575f3560e01c806370a0823111610114578063c30a62d8116100a9578063ce96cb7711610079578063ce96cb7714610411578063d905777e14610424578063dd1b613714610437578063dd62ed3e1461044a578063ef8b30f7146103fe575f80fd5b8063c30a62d8146103d8578063c4d66de8146103eb578063c63d75b614610306578063c6e6f592146103fe575f80fd5b8063a9059cbb116100e4578063a9059cbb1461038c578063b3d7f6b91461039f578063b460af94146103b2578063ba087652146103c5575f80fd5b806370a082311461033657806394bf804d1461035e57806395d89b4114610371578063a457c2d714610379575f80fd5b806323b872dd1161018a578063402d267d1161015a578063402d267d146103065780634cdad506146102645780635426fa8a1461031a5780636e553f6514610323575f80fd5b806323b872dd146102b5578063313ce567146102c857806338d52e0f146102e257806339509351146102f3575f80fd5b806307a2d13a116101c557806307a2d13a14610264578063095ea7b3146102775780630a28a4771461029a57806318160ddd146102ad575f80fd5b80625888d3146101f4578062840bc21461020957806301e1d1141461023957806306fdde031461024f575b5f80fd5b610207610202366004611dc2565b61045d565b005b60985461021c906001600160a01b031681565b6040516001600160a01b0390911681526020015b60405180910390f35b61024161054a565b604051908152602001610230565b610257610565565b6040516102309190611dfb565b610241610272366004611dc2565b6105f5565b61028a610285366004611e41565b610606565b6040519015158152602001610230565b6102416102a8366004611dc2565b61061d565b603554610241565b61028a6102c3366004611e6b565b610629565b6102d061064e565b60405160ff9091168152602001610230565b6065546001600160a01b031661021c565b61028a610301366004611e41565b610667565b610241610314366004611ea9565b505f1990565b61024160975481565b610241610331366004611ec4565b610688565b610241610344366004611ea9565b6001600160a01b03165f9081526033602052604090205490565b61024161036c366004611ec4565b6106a1565b6102576106ba565b61028a610387366004611e41565b6106c4565b61028a61039a366004611e41565b610749565b6102416103ad366004611dc2565b610756565b6102416103c0366004611ef2565b610762565b6102416103d3366004611ef2565b6107dc565b6102576103e6366004611ea9565b61084e565b6102076103f9366004611ea9565b61091a565b61024161040c366004611dc2565b610aa6565b61024161041f366004611ea9565b610ab1565b610241610432366004611ea9565b610ad3565b610207610445366004611f31565b610af0565b610241610458366004611f51565b610bd1565b609854604051632f745c5960e01b81523360048201525f60248201819052916001600160a01b031690632f745c5990604401602060405180830381865afa1580156104aa573d5f803e3d5ffd5b505050506040513d601f19601f820116820180604052508101906104ce9190611f7d565b10156105095760405162461bcd60e51b8152602060048201526005602482015264216f70707360d81b60448201526064015b60405180910390fd5b8060975f82825461051a9190611fa8565b90915550610547905033826105376065546001600160a01b031690565b6001600160a01b03169190610bfb565b50565b5f609754610556610c63565b6105609190611fa8565b905090565b60606036805461057490611fbb565b80601f01602080910402602001604051908101604052809291908181526020018280546105a090611fbb565b80156105eb5780601f106105c2576101008083540402835291602001916105eb565b820191905f5260205f20905b8154815290600101906020018083116105ce57829003601f168201915b5050505050905090565b5f610600825f610ccd565b92915050565b5f33610613818585610d05565b5060019392505050565b5f610600826001610e28565b5f33610636858285610e57565b610641858585610ecf565b60019150505b9392505050565b5f806065546105609190600160a01b900460ff16611ff3565b5f336106138185856106798383610bd1565b6106839190611fa8565b610d05565b5f8061069384610aa6565b905061064733848684611078565b5f806106ac84610756565b905061064733848387611078565b60606105606110f6565b5f33816106d18286610bd1565b9050838110156107315760405162461bcd60e51b815260206004820152602560248201527f45524332303a2064656372656173656420616c6c6f77616e63652062656c6f77604482015264207a65726f60d81b6064820152608401610500565b61073e8286868403610d05565b506001949350505050565b5f33610613818585610ecf565b5f610600826001610ccd565b5f61076c82610ab1565b8411156107bb5760405162461bcd60e51b815260206004820152601f60248201527f455243343632363a207769746864726177206d6f7265207468616e206d6178006044820152606401610500565b5f6107c58561061d565b90506107d43385858885611105565b949350505050565b5f6107e682610ad3565b8411156108355760405162461bcd60e51b815260206004820152601d60248201527f455243343632363a2072656465656d206d6f7265207468616e206d61780000006044820152606401610500565b5f61083f856105f5565b90506107d43385858489611105565b6040516395d89b4160e01b60208201526060905f9081906001600160a01b0385169060240160408051601f198184030181529082905261088d9161200c565b5f60405180830381855afa9150503d805f81146108c5576040519150601f19603f3d011682016040523d82523d5f602084013e6108ca565b606091505b5091509150816109065760405162461bcd60e51b8152602060048201526007602482015266085cde5b589bdb60ca1b6044820152606401610500565b808060200190518101906107d4919061203b565b5f54610100900460ff161580801561093857505f54600160ff909116105b806109515750303b15801561095157505f5460ff166001145b6109b45760405162461bcd60e51b815260206004820152602e60248201527f496e697469616c697a61626c653a20636f6e747261637420697320616c72656160448201526d191e481a5b9a5d1a585b1a5e995960921b6064820152608401610500565b5f805460ff1916600117905580156109d5575f805461ff0019166101001790555b609880546001600160a01b031916331790556109f0826111b1565b610a5d610a256109ff846111e0565b604051602001610a0f91906120d8565b604051602081830303815290604052845f6112b6565b610a58610a31856111e0565b604051602001610a4191906120d8565b6040516020818303038152906040528560016112b6565b6113ec565b8015610aa2575f805461ff0019169055604051600181527f7f26b83ff96e1f2b6a682f133852f6798a09c465da95921460cefb38474024989060200160405180910390a15b5050565b5f610600825f610e28565b6001600160a01b0381165f90815260336020526040812054610600905f610ccd565b6001600160a01b0381165f90815260336020526040812054610600565b609854604051632f745c5960e01b81523360048201525f60248201819052916001600160a01b031690632f745c5990604401602060405180830381865afa158015610b3d573d5f803e3d5ffd5b505050506040513d601f19601f82011682018060405250810190610b619190611f7d565b1015610b975760405162461bcd60e51b8152602060048201526005602482015264216f70707360d81b6044820152606401610500565b8160975f828254610ba89190612102565b90915550610aa290503330610bbd8486611fa8565b6065546001600160a01b031692919061142b565b6001600160a01b039182165f90815260346020908152604080832093909416825291909152205490565b6040516001600160a01b038316602482015260448101829052610c5e90849063a9059cbb60e01b906064015b60408051601f198184030181529190526020810180516001600160e01b03166001600160e01b031990931692909217909152611463565b505050565b6065546040516370a0823160e01b81523060048201525f916001600160a01b0316906370a0823190602401602060405180830381865afa158015610ca9573d5f803e3d5ffd5b505050506040513d601f19601f820116820180604052508101906105609190611f7d565b5f610647610cd961054a565b610ce4906001611fa8565b610cef5f600a6121f5565b603554610cfc9190611fa8565b85919085611536565b6001600160a01b038316610d675760405162461bcd60e51b8152602060048201526024808201527f45524332303a20617070726f76652066726f6d20746865207a65726f206164646044820152637265737360e01b6064820152608401610500565b6001600160a01b038216610dc85760405162461bcd60e51b815260206004820152602260248201527f45524332303a20617070726f766520746f20746865207a65726f206164647265604482015261737360f01b6064820152608401610500565b6001600160a01b038381165f8181526034602090815260408083209487168084529482529182902085905590518481527f8c5be1e5ebec7d5bd14f71427d1e84f3dd0314c0f7b2291e5b200ac8c7c3b925910160405180910390a3505050565b5f610647610e3782600a6121f5565b603554610e449190611fa8565b610e4c61054a565b610cfc906001611fa8565b5f610e628484610bd1565b90505f198114610ec95781811015610ebc5760405162461bcd60e51b815260206004820152601d60248201527f45524332303a20696e73756666696369656e7420616c6c6f77616e63650000006044820152606401610500565b610ec98484848403610d05565b50505050565b6001600160a01b038316610f335760405162461bcd60e51b815260206004820152602560248201527f45524332303a207472616e736665722066726f6d20746865207a65726f206164604482015264647265737360d81b6064820152608401610500565b6001600160a01b038216610f955760405162461bcd60e51b815260206004820152602360248201527f45524332303a207472616e7366657220746f20746865207a65726f206164647260448201526265737360e81b6064820152608401610500565b6001600160a01b0383165f908152603360205260409020548181101561100c5760405162461bcd60e51b815260206004820152602660248201527f45524332303a207472616e7366657220616d6f756e7420657863656564732062604482015265616c616e636560d01b6064820152608401610500565b6001600160a01b038085165f8181526033602052604080822086860390559286168082529083902080548601905591517fddf252ad1be2c89b69c2b068fc378daa952ba7f163c4a11628f55a4df523b3ef9061106b9086815260200190565b60405180910390a3610ec9565b606554611090906001600160a01b031685308561142b565b61109a8382611591565b826001600160a01b0316846001600160a01b03167fdcbc1c05240f31ff3ad067ef1ee35ce4997762752e3a095284754544f4c709d784846040516110e8929190918252602082015260400190565b60405180910390a350505050565b60606037805461057490611fbb565b826001600160a01b0316856001600160a01b03161461112957611129838683610e57565b6111338382611650565b60655461114a906001600160a01b03168584610bfb565b826001600160a01b0316846001600160a01b0316866001600160a01b03167ffbde797d201c681b91056529119e0b02407c7bb96a4a2c75c01fc9667232c8db85856040516111a2929190918252602082015260400190565b60405180910390a45050505050565b5f54610100900460ff166111d75760405162461bcd60e51b815260040161050090612203565b61054781611782565b604080516001600160a01b03831660208201526060915f91829130916318614c5b60e31b910160408051601f1981840301815290829052611224929160200161224e565b60408051601f198184030181529082905261123e9161200c565b5f60405180830381855afa9150503d805f8114611276576040519150601f19603f3d011682016040523d82523d5f602084013e61127b565b606091505b5091509150816109065761128e84611805565b60405160200161129e919061227e565b60405160208183030381529060405292505050919050565b60605f846040516020016112ca919061200c565b60408051808303601f19018152908290528051602090910120609854633749aa1160e11b8352600483018290529092506001600160a01b031690636e93542290602401602060405180830381865afa158015611328573d5f803e3d5ffd5b505050506040513d601f19601f8201168201806040525081019061134c91906122b6565b156113805761135a84611805565b60405160200161136a919061227e565b60405160208183030381529060405291506113e4565b82156113e05760985460405163d6da080560e01b8152600481018390526001600160a01b039091169063d6da0805906024015f604051808303815f87803b1580156113c9575f80fd5b505af11580156113db573d5f803e3d5ffd5b505050505b8491505b509392505050565b5f54610100900460ff166114125760405162461bcd60e51b815260040161050090612203565b603661141e8382612320565b506037610c5e8282612320565b6040516001600160a01b0380851660248301528316604482015260648101829052610ec99085906323b872dd60e01b90608401610c27565b5f6114b7826040518060400160405280602081526020017f5361666545524332303a206c6f772d6c6576656c2063616c6c206661696c6564815250856001600160a01b0316611a859092919063ffffffff16565b905080515f14806114d75750808060200190518101906114d791906122b6565b610c5e5760405162461bcd60e51b815260206004820152602a60248201527f5361666545524332303a204552433230206f7065726174696f6e20646964206e6044820152691bdd081cdd58d8d9595960b21b6064820152608401610500565b5f80611543868686611a93565b90506001836002811115611559576115596123e0565b14801561157557505f8480611570576115706123f4565b868809115b1561158857611585600182611fa8565b90505b95945050505050565b6001600160a01b0382166115e75760405162461bcd60e51b815260206004820152601f60248201527f45524332303a206d696e7420746f20746865207a65726f2061646472657373006044820152606401610500565b8060355f8282546115f89190611fa8565b90915550506001600160a01b0382165f818152603360209081526040808320805486019055518481527fddf252ad1be2c89b69c2b068fc378daa952ba7f163c4a11628f55a4df523b3ef910160405180910390a35050565b6001600160a01b0382166116b05760405162461bcd60e51b815260206004820152602160248201527f45524332303a206275726e2066726f6d20746865207a65726f206164647265736044820152607360f81b6064820152608401610500565b6001600160a01b0382165f90815260336020526040902054818110156117235760405162461bcd60e51b815260206004820152602260248201527f45524332303a206275726e20616d6f756e7420657863656564732062616c616e604482015261636560f01b6064820152608401610500565b6001600160a01b0383165f8181526033602090815260408083208686039055603580548790039055518581529192917fddf252ad1be2c89b69c2b068fc378daa952ba7f163c4a11628f55a4df523b3ef910160405180910390a3505050565b5f54610100900460ff166117a85760405162461bcd60e51b815260040161050090612203565b5f806117b383611b78565b91509150816117c35760126117c5565b805b606580546001600160a01b039095166001600160a01b031960ff93909316600160a01b02929092166001600160a81b031990951694909417179092555050565b604051712f70696e74737761702f636865636b73756d60701b6020820152606082811b6bffffffffffffffffffffffff19166032830152905f9060460160408051601f198184030181528282528051602091820120908301520160405160208183030381529060405290505f815f8151811061188357611883612408565b01602090810151604080516102408101825260016102008201818152600360fc1b610220840152825282518084018452818152603160f81b818701528286015282518084018452818152601960f91b818701528284015282518084018452818152603360f81b81870152606083015282518084018452818152600d60fa1b81870152608083015282518084018452818152603560f81b8187015260a083015282518084018452818152601b60f91b8187015260c083015282518084018452818152603760f81b8187015260e083015282518084018452818152600760fb1b8187015261010083015282518084018452818152603960f81b8187015261012083015282518084018452818152606160f81b8187015261014083015282518084018452818152603160f91b8187015261016083015282518084018452818152606360f81b8187015261018083015282518084018452818152601960fa1b818701526101a083015282518084018452818152606560f81b818701526101c083015282518084019093528252603360f91b938201939093526101e083015260f881901c925060fc1c600f8316828260108110611a3d57611a3d612408565b6020020151838260108110611a5457611a54612408565b6020020151604051602001611a6a92919061241c565b60405160208183030381529060405295505050505050919050565b60606107d484845f85611c4e565b5f80805f19858709858702925082811083820303915050805f03611aca57838281611ac057611ac06123f4565b0492505050610647565b808411611b115760405162461bcd60e51b81526020600482015260156024820152744d6174683a206d756c446976206f766572666c6f7760581b6044820152606401610500565b5f8486880960026001871981018816978890046003810283188082028403028082028403028082028403028082028403028082028403029081029092039091025f889003889004909101858311909403939093029303949094049190911702949350505050565b60408051600481526024810182526020810180516001600160e01b031663313ce56760e01b17905290515f918291829182916001600160a01b03871691611bbe9161200c565b5f60405180830381855afa9150503d805f8114611bf6576040519150601f19603f3d011682016040523d82523d5f602084013e611bfb565b606091505b5091509150818015611c0f57506020815110155b15611c42575f81806020019051810190611c299190611f7d565b905060ff8111611c40576001969095509350505050565b505b505f9485945092505050565b606082471015611caf5760405162461bcd60e51b815260206004820152602660248201527f416464726573733a20696e73756666696369656e742062616c616e636520666f6044820152651c8818d85b1b60d21b6064820152608401610500565b5f80866001600160a01b03168587604051611cca919061200c565b5f6040518083038185875af1925050503d805f8114611d04576040519150601f19603f3d011682016040523d82523d5f602084013e611d09565b606091505b5091509150611d1a87838387611d25565b979650505050505050565b60608315611d935782515f03611d8c576001600160a01b0385163b611d8c5760405162461bcd60e51b815260206004820152601d60248201527f416464726573733a2063616c6c20746f206e6f6e2d636f6e74726163740000006044820152606401610500565b50816107d4565b6107d48383815115611da85781518083602001fd5b8060405162461bcd60e51b81526004016105009190611dfb565b5f60208284031215611dd2575f80fd5b5035919050565b5f5b83811015611df3578181015183820152602001611ddb565b50505f910152565b602081525f8251806020840152611e19816040850160208701611dd9565b601f01601f19169190910160400192915050565b6001600160a01b0381168114610547575f80fd5b5f8060408385031215611e52575f80fd5b8235611e5d81611e2d565b946020939093013593505050565b5f805f60608486031215611e7d575f80fd5b8335611e8881611e2d565b92506020840135611e9881611e2d565b929592945050506040919091013590565b5f60208284031215611eb9575f80fd5b813561064781611e2d565b5f8060408385031215611ed5575f80fd5b823591506020830135611ee781611e2d565b809150509250929050565b5f805f60608486031215611f04575f80fd5b833592506020840135611f1681611e2d565b91506040840135611f2681611e2d565b809150509250925092565b5f8060408385031215611f42575f80fd5b50508035926020909101359150565b5f8060408385031215611f62575f80fd5b8235611f6d81611e2d565b91506020830135611ee781611e2d565b5f60208284031215611f8d575f80fd5b5051919050565b634e487b7160e01b5f52601160045260245ffd5b8082018082111561060057610600611f94565b600181811c90821680611fcf57607f821691505b602082108103611fed57634e487b7160e01b5f52602260045260245ffd5b50919050565b60ff818116838216019081111561060057610600611f94565b5f825161201d818460208701611dd9565b9190910192915050565b634e487b7160e01b5f52604160045260245ffd5b5f6020828403121561204b575f80fd5b815167ffffffffffffffff80821115612062575f80fd5b818401915084601f830112612075575f80fd5b81518181111561208757612087612027565b604051601f8201601f19908116603f011681019083821181831017156120af576120af612027565b816040528281528760208487010111156120c7575f80fd5b611d1a836020830160208801611dd9565b6207369760ec1b81525f82516120f5816003850160208701611dd9565b9190910160030192915050565b8181038181111561060057610600611f94565b600181815b8085111561214f57815f190482111561213557612135611f94565b8085161561214257918102915b93841c939080029061211a565b509250929050565b5f8261216557506001610600565b8161217157505f610600565b81600181146121875760028114612191576121ad565b6001915050610600565b60ff8411156121a2576121a2611f94565b50506001821b610600565b5060208310610133831016604e8410600b84101617156121d0575081810a610600565b6121da8383612115565b805f19048211156121ed576121ed611f94565b029392505050565b5f61064760ff841683612157565b6020808252602b908201527f496e697469616c697a61626c653a20636f6e7472616374206973206e6f74206960408201526a6e697469616c697a696e6760a81b606082015260800190565b6001600160e01b03198316815281515f90612270816004850160208701611dd9565b919091016004019392505050565b650a68aa8aaa0560d31b81525f825161229e816006850160208701611dd9565b602960f81b6006939091019283015250600701919050565b5f602082840312156122c6575f80fd5b81518015158114610647575f80fd5b601f821115610c5e57805f5260205f20601f840160051c810160208510156122fa5750805b601f840160051c820191505b81811015612319575f8155600101612306565b5050505050565b815167ffffffffffffffff81111561233a5761233a612027565b61234e816123488454611fbb565b846122d5565b602080601f831160018114612381575f841561236a5750858301515b5f19600386901b1c1916600185901b1785556123d8565b5f85815260208120601f198616915b828110156123af57888601518255948401946001909101908401612390565b50858210156123cc57878501515f19600388901b60f8161c191681555b505060018460011b0185555b505050505050565b634e487b7160e01b5f52602160045260245ffd5b634e487b7160e01b5f52601260045260245ffd5b634e487b7160e01b5f52603260045260245ffd5b5f835161242d818460208801611dd9565b835190830190612441818360208801611dd9565b0194935050505056fea26469706673582212204edde5c9ba33296707433437b0ccadffe95c73d88ef18bdd99ff83f5adba746464736f6c63430008160033697066733a2f2f62616679626569657a7062717136666176707337346572776e3335697263616532787171646d637a786a7337696d6f73646b6e3661686d75786d652f","linkReferences":{}},"methodIdentifiers":{"DOMAIN_SEPARATOR()":"3644e515","PERMIT_TYPEHASH()":"30adf81f","approve(address,uint256)":"095ea7b3","balanceOf(address)":"70a08231","deployVault(address)":"5eb512e7","getApproved(uint256)":"081812fc","isApprovedForAll(address,address)":"e985e9c5","mint(address,uint256)":"40c10f19","name()":"06fdde03","nameTaken(bytes32)":"6e935422","nonces(uint256)":"141a468c","owner()":"8da5cb5b","ownerOf(uint256)":"6352211e","permit(address,uint256,uint256,uint8,bytes32,bytes32)":"7ac2ff7b","registerName(bytes32)":"d6da0805","renounceOwnership()":"715018a6","safeTransferFrom(address,address,uint256)":"42842e0e","safeTransferFrom(address,address,uint256,bytes)":"b88d4fde","setApprovalForAll(address,bool)":"a22cb465","setBaseURI(string)":"55f804b3","sipHash()":"6dfae1dd","sipImplementation()":"689893ee","supportsInterface(bytes4)":"01ffc9a7","symbol()":"95d89b41","tokenByIndex(uint256)":"4f6ccce7","tokenOfOwnerByIndex(address,uint256)":"2f745c59","tokenURI(uint256)":"c87b56dd","totalSupply()":"18160ddd","transferFrom(address,address,uint256)":"23b872dd","transferOwnership(address)":"f2fde38b","vaultFor(address)":"3d77cdcf","version()":"54fd4d50"},"id":114}