{
  "abi": [
    {
      "anonymous": false,
      "inputs": [
        {
          "indexed": true,
          "internalType": "address",
          "name": "owner",
          "type": "address"
        },
        {
          "indexed": true,
          "internalType": "address",
          "name": "spender",
          "type": "address"
        },
        {
          "indexed": false,
          "internalType": "uint256",
          "name": "value",
          "type": "uint256"
        }
      ],
      "name": "Approval",
      "type": "event"
    },
    {
      "anonymous": false,
      "inputs": [
        {
          "indexed": true,
          "internalType": "address",
          "name": "sender",
          "type": "address"
        },
        {
          "indexed": true,
          "internalType": "address",
          "name": "owner",
          "type": "address"
        },
        {
          "indexed": false,
          "internalType": "uint256",
          "name": "assets",
          "type": "uint256"
        },
        {
          "indexed": false,
          "internalType": "uint256",
          "name": "shares",
          "type": "uint256"
        }
      ],
      "name": "Deposit",
      "type": "event"
    },
    {
      "anonymous": false,
      "inputs": [
        {
          "indexed": false,
          "internalType": "uint8",
          "name": "version",
          "type": "uint8"
        }
      ],
      "name": "Initialized",
      "type": "event"
    },
    {
      "anonymous": false,
      "inputs": [
        {
          "indexed": true,
          "internalType": "address",
          "name": "from",
          "type": "address"
        },
        {
          "indexed": true,
          "internalType": "address",
          "name": "to",
          "type": "address"
        },
        {
          "indexed": false,
          "internalType": "uint256",
          "name": "value",
          "type": "uint256"
        }
      ],
      "name": "Transfer",
      "type": "event"
    },
    {
      "anonymous": false,
      "inputs": [
        {
          "indexed": true,
          "internalType": "address",
          "name": "sender",
          "type": "address"
        },
        {
          "indexed": true,
          "internalType": "address",
          "name": "receiver",
          "type": "address"
        },
        {
          "indexed": true,
          "internalType": "address",
          "name": "owner",
          "type": "address"
        },
        {
          "indexed": false,
          "internalType": "uint256",
          "name": "assets",
          "type": "uint256"
        },
        {
          "indexed": false,
          "internalType": "uint256",
          "name": "shares",
          "type": "uint256"
        }
      ],
      "name": "Withdraw",
      "type": "event"
    },
    {
      "inputs": [
        {
          "internalType": "contract IERC20",
          "name": "_asset",
          "type": "address"
        }
      ],
      "name": "_tryGetSymbolFrame",
      "outputs": [
        {
          "internalType": "string",
          "name": "_symbol",
          "type": "string"
        }
      ],
      "stateMutability": "view",
      "type": "function"
    },
    {
      "inputs": [
        {
          "internalType": "address",
          "name": "owner",
          "type": "address"
        },
        {
          "internalType": "address",
          "name": "spender",
          "type": "address"
        }
      ],
      "name": "allowance",
      "outputs": [
        {
          "internalType": "uint256",
          "name": "",
          "type": "uint256"
        }
      ],
      "stateMutability": "view",
      "type": "function"
    },
    {
      "inputs": [
        {
          "internalType": "address",
          "name": "spender",
          "type": "address"
        },
        {
          "internalType": "uint256",
          "name": "amount",
          "type": "uint256"
        }
      ],
      "name": "approve",
      "outputs": [
        {
          "internalType": "bool",
          "name": "",
          "type": "bool"
        }
      ],
      "stateMutability": "nonpayable",
      "type": "function"
    },
    {
      "inputs": [],
      "name": "asset",
      "outputs": [
        {
          "internalType": "address",
          "name": "",
          "type": "address"
        }
      ],
      "stateMutability": "view",
      "type": "function"
    },
    {
      "inputs": [
        {
          "internalType": "address",
          "name": "account",
          "type": "address"
        }
      ],
      "name": "balanceOf",
      "outputs": [
        {
          "internalType": "uint256",
          "name": "",
          "type": "uint256"
        }
      ],
      "stateMutability": "view",
      "type": "function"
    },
    {
      "inputs": [
        {
          "internalType": "uint256",
          "name": "shares",
          "type": "uint256"
        }
      ],
      "name": "convertToAssets",
      "outputs": [
        {
          "internalType": "uint256",
          "name": "",
          "type": "uint256"
        }
      ],
      "stateMutability": "view",
      "type": "function"
    },
    {
      "inputs": [
        {
          "internalType": "uint256",
          "name": "assets",
          "type": "uint256"
        }
      ],
      "name": "convertToShares",
      "outputs": [
        {
          "internalType": "uint256",
          "name": "",
          "type": "uint256"
        }
      ],
      "stateMutability": "view",
      "type": "function"
    },
    {
      "inputs": [],
      "name": "decimals",
      "outputs": [
        {
          "internalType": "uint8",
          "name": "",
          "type": "uint8"
        }
      ],
      "stateMutability": "view",
      "type": "function"
    },
    {
      "inputs": [
        {
          "internalType": "address",
          "name": "spender",
          "type": "address"
        },
        {
          "internalType": "uint256",
          "name": "subtractedValue",
          "type": "uint256"
        }
      ],
      "name": "decreaseAllowance",
      "outputs": [
        {
          "internalType": "bool",
          "name": "",
          "type": "bool"
        }
      ],
      "stateMutability": "nonpayable",
      "type": "function"
    },
    {
      "inputs": [],
      "name": "deficit",
      "outputs": [
        {
          "internalType": "uint256",
          "name": "",
          "type": "uint256"
        }
      ],
      "stateMutability": "view",
      "type": "function"
    },
    {
      "inputs": [
        {
          "internalType": "uint256",
          "name": "assets",
          "type": "uint256"
        },
        {
          "internalType": "address",
          "name": "receiver",
          "type": "address"
        }
      ],
      "name": "deposit",
      "outputs": [
        {
          "internalType": "uint256",
          "name": "",
          "type": "uint256"
        }
      ],
      "stateMutability": "nonpayable",
      "type": "function"
    },
    {
      "inputs": [
        {
          "internalType": "uint256",
          "name": "value",
          "type": "uint256"
        }
      ],
      "name": "finna",
      "outputs": [],
      "stateMutability": "nonpayable",
      "type": "function"
    },
    {
      "inputs": [
        {
          "internalType": "address",
          "name": "spender",
          "type": "address"
        },
        {
          "internalType": "uint256",
          "name": "addedValue",
          "type": "uint256"
        }
      ],
      "name": "increaseAllowance",
      "outputs": [
        {
          "internalType": "bool",
          "name": "",
          "type": "bool"
        }
      ],
      "stateMutability": "nonpayable",
      "type": "function"
    },
    {
      "inputs": [
        {
          "internalType": "address",
          "name": "underlying",
          "type": "address"
        }
      ],
      "name": "initialize",
      "outputs": [],
      "stateMutability": "nonpayable",
      "type": "function"
    },
    {
      "inputs": [
        {
          "internalType": "address",
          "name": "",
          "type": "address"
        }
      ],
      "name": "maxDeposit",
      "outputs": [
        {
          "internalType": "uint256",
          "name": "",
          "type": "uint256"
        }
      ],
      "stateMutability": "view",
      "type": "function"
    },
    {
      "inputs": [
        {
          "internalType": "address",
          "name": "",
          "type": "address"
        }
      ],
      "name": "maxMint",
      "outputs": [
        {
          "internalType": "uint256",
          "name": "",
          "type": "uint256"
        }
      ],
      "stateMutability": "view",
      "type": "function"
    },
    {
      "inputs": [
        {
          "internalType": "address",
          "name": "owner",
          "type": "address"
        }
      ],
      "name": "maxRedeem",
      "outputs": [
        {
          "internalType": "uint256",
          "name": "",
          "type": "uint256"
        }
      ],
      "stateMutability": "view",
      "type": "function"
    },
    {
      "inputs": [
        {
          "internalType": "address",
          "name": "owner",
          "type": "address"
        }
      ],
      "name": "maxWithdraw",
      "outputs": [
        {
          "internalType": "uint256",
          "name": "",
          "type": "uint256"
        }
      ],
      "stateMutability": "view",
      "type": "function"
    },
    {
      "inputs": [
        {
          "internalType": "uint256",
          "name": "shares",
          "type": "uint256"
        },
        {
          "internalType": "address",
          "name": "receiver",
          "type": "address"
        }
      ],
      "name": "mint",
      "outputs": [
        {
          "internalType": "uint256",
          "name": "",
          "type": "uint256"
        }
      ],
      "stateMutability": "nonpayable",
      "type": "function"
    },
    {
      "inputs": [],
      "name": "name",
      "outputs": [
        {
          "internalType": "string",
          "name": "",
          "type": "string"
        }
      ],
      "stateMutability": "view",
      "type": "function"
    },
    {
      "inputs": [],
      "name": "opps",
      "outputs": [
        {
          "internalType": "address",
          "name": "",
          "type": "address"
        }
      ],
      "stateMutability": "view",
      "type": "function"
    },
    {
      "inputs": [
        {
          "internalType": "uint256",
          "name": "assets",
          "type": "uint256"
        }
      ],
      "name": "previewDeposit",
      "outputs": [
        {
          "internalType": "uint256",
          "name": "",
          "type": "uint256"
        }
      ],
      "stateMutability": "view",
      "type": "function"
    },
    {
      "inputs": [
        {
          "internalType": "uint256",
          "name": "shares",
          "type": "uint256"
        }
      ],
      "name": "previewMint",
      "outputs": [
        {
          "internalType": "uint256",
          "name": "",
          "type": "uint256"
        }
      ],
      "stateMutability": "view",
      "type": "function"
    },
    {
      "inputs": [
        {
          "internalType": "uint256",
          "name": "shares",
          "type": "uint256"
        }
      ],
      "name": "previewRedeem",
      "outputs": [
        {
          "internalType": "uint256",
          "name": "",
          "type": "uint256"
        }
      ],
      "stateMutability": "view",
      "type": "function"
    },
    {
      "inputs": [
        {
          "internalType": "uint256",
          "name": "assets",
          "type": "uint256"
        }
      ],
      "name": "previewWithdraw",
      "outputs": [
        {
          "internalType": "uint256",
          "name": "",
          "type": "uint256"
        }
      ],
      "stateMutability": "view",
      "type": "function"
    },
    {
      "inputs": [
        {
          "internalType": "uint256",
          "name": "value",
          "type": "uint256"
        },
        {
          "internalType": "uint256",
          "name": "profit",
          "type": "uint256"
        }
      ],
      "name": "push",
      "outputs": [],
      "stateMutability": "nonpayable",
      "type": "function"
    },
    {
      "inputs": [
        {
          "internalType": "uint256",
          "name": "shares",
          "type": "uint256"
        },
        {
          "internalType": "address",
          "name": "receiver",
          "type": "address"
        },
        {
          "internalType": "address",
          "name": "owner",
          "type": "address"
        }
      ],
      "name": "redeem",
      "outputs": [
        {
          "internalType": "uint256",
          "name": "",
          "type": "uint256"
        }
      ],
      "stateMutability": "nonpayable",
      "type": "function"
    },
    {
      "inputs": [],
      "name": "symbol",
      "outputs": [
        {
          "internalType": "string",
          "name": "result",
          "type": "string"
        }
      ],
      "stateMutability": "view",
      "type": "function"
    },
    {
      "inputs": [],
      "name": "totalAssets",
      "outputs": [
        {
          "internalType": "uint256",
          "name": "result",
          "type": "uint256"
        }
      ],
      "stateMutability": "view",
      "type": "function"
    },
    {
      "inputs": [],
      "name": "totalSupply",
      "outputs": [
        {
          "internalType": "uint256",
          "name": "",
          "type": "uint256"
        }
      ],
      "stateMutability": "view",
      "type": "function"
    },
    {
      "inputs": [
        {
          "internalType": "address",
          "name": "to",
          "type": "address"
        },
        {
          "internalType": "uint256",
          "name": "amount",
          "type": "uint256"
        }
      ],
      "name": "transfer",
      "outputs": [
        {
          "internalType": "bool",
          "name": "",
          "type": "bool"
        }
      ],
      "stateMutability": "nonpayable",
      "type": "function"
    },
    {
      "inputs": [
        {
          "internalType": "address",
          "name": "from",
          "type": "address"
        },
        {
          "internalType": "address",
          "name": "to",
          "type": "address"
        },
        {
          "internalType": "uint256",
          "name": "amount",
          "type": "uint256"
        }
      ],
      "name": "transferFrom",
      "outputs": [
        {
          "internalType": "bool",
          "name": "",
          "type": "bool"
        }
      ],
      "stateMutability": "nonpayable",
      "type": "function"
    },
    {
      "inputs": [
        {
          "internalType": "uint256",
          "name": "assets",
          "type": "uint256"
        },
        {
          "internalType": "address",
          "name": "receiver",
          "type": "address"
        },
        {
          "internalType": "address",
          "name": "owner",
          "type": "address"
        }
      ],
      "name": "withdraw",
      "outputs": [
        {
          "internalType": "uint256",
          "name": "",
          "type": "uint256"
        }
      ],
      "stateMutability": "nonpayable",
      "type": "function"
    }
  ],
  "bytecode": {
    "object": "0x608060405234801561000f575f80fd5b5061247e8061001d5f395ff3fe608060405234801561000f575f80fd5b50600436106101f0575f3560e01c806370a0823111610114578063c30a62d8116100a9578063ce96cb7711610079578063ce96cb7714610411578063d905777e14610424578063dd1b613714610437578063dd62ed3e1461044a578063ef8b30f7146103fe575f80fd5b8063c30a62d8146103d8578063c4d66de8146103eb578063c63d75b614610306578063c6e6f592146103fe575f80fd5b8063a9059cbb116100e4578063a9059cbb1461038c578063b3d7f6b91461039f578063b460af94146103b2578063ba087652146103c5575f80fd5b806370a082311461033657806394bf804d1461035e57806395d89b4114610371578063a457c2d714610379575f80fd5b806323b872dd1161018a578063402d267d1161015a578063402d267d146103065780634cdad506146102645780635426fa8a1461031a5780636e553f6514610323575f80fd5b806323b872dd146102b5578063313ce567146102c857806338d52e0f146102e257806339509351146102f3575f80fd5b806307a2d13a116101c557806307a2d13a14610264578063095ea7b3146102775780630a28a4771461029a57806318160ddd146102ad575f80fd5b80625888d3146101f4578062840bc21461020957806301e1d1141461023957806306fdde031461024f575b5f80fd5b610207610202366004611dc2565b61045d565b005b60985461021c906001600160a01b031681565b6040516001600160a01b0390911681526020015b60405180910390f35b61024161054a565b604051908152602001610230565b610257610565565b6040516102309190611dfb565b610241610272366004611dc2565b6105f5565b61028a610285366004611e41565b610606565b6040519015158152602001610230565b6102416102a8366004611dc2565b61061d565b603554610241565b61028a6102c3366004611e6b565b610629565b6102d061064e565b60405160ff9091168152602001610230565b6065546001600160a01b031661021c565b61028a610301366004611e41565b610667565b610241610314366004611ea9565b505f1990565b61024160975481565b610241610331366004611ec4565b610688565b610241610344366004611ea9565b6001600160a01b03165f9081526033602052604090205490565b61024161036c366004611ec4565b6106a1565b6102576106ba565b61028a610387366004611e41565b6106c4565b61028a61039a366004611e41565b610749565b6102416103ad366004611dc2565b610756565b6102416103c0366004611ef2565b610762565b6102416103d3366004611ef2565b6107dc565b6102576103e6366004611ea9565b61084e565b6102076103f9366004611ea9565b61091a565b61024161040c366004611dc2565b610aa6565b61024161041f366004611ea9565b610ab1565b610241610432366004611ea9565b610ad3565b610207610445366004611f31565b610af0565b610241610458366004611f51565b610bd1565b609854604051632f745c5960e01b81523360048201525f60248201819052916001600160a01b031690632f745c5990604401602060405180830381865afa1580156104aa573d5f803e3d5ffd5b505050506040513d601f19601f820116820180604052508101906104ce9190611f7d565b10156105095760405162461bcd60e51b8152602060048201526005602482015264216f70707360d81b60448201526064015b60405180910390fd5b8060975f82825461051a9190611fa8565b90915550610547905033826105376065546001600160a01b031690565b6001600160a01b03169190610bfb565b50565b5f609754610556610c63565b6105609190611fa8565b905090565b60606036805461057490611fbb565b80601f01602080910402602001604051908101604052809291908181526020018280546105a090611fbb565b80156105eb5780601f106105c2576101008083540402835291602001916105eb565b820191905f5260205f20905b8154815290600101906020018083116105ce57829003601f168201915b5050505050905090565b5f610600825f610ccd565b92915050565b5f33610613818585610d05565b5060019392505050565b5f610600826001610e28565b5f33610636858285610e57565b610641858585610ecf565b60019150505b9392505050565b5f806065546105609190600160a01b900460ff16611ff3565b5f336106138185856106798383610bd1565b6106839190611fa8565b610d05565b5f8061069384610aa6565b905061064733848684611078565b5f806106ac84610756565b905061064733848387611078565b60606105606110f6565b5f33816106d18286610bd1565b9050838110156107315760405162461bcd60e51b815260206004820152602560248201527f45524332303a2064656372656173656420616c6c6f77616e63652062656c6f77604482015264207a65726f60d81b6064820152608401610500565b61073e8286868403610d05565b506001949350505050565b5f33610613818585610ecf565b5f610600826001610ccd565b5f61076c82610ab1565b8411156107bb5760405162461bcd60e51b815260206004820152601f60248201527f455243343632363a207769746864726177206d6f7265207468616e206d6178006044820152606401610500565b5f6107c58561061d565b90506107d43385858885611105565b949350505050565b5f6107e682610ad3565b8411156108355760405162461bcd60e51b815260206004820152601d60248201527f455243343632363a2072656465656d206d6f7265207468616e206d61780000006044820152606401610500565b5f61083f856105f5565b90506107d43385858489611105565b6040516395d89b4160e01b60208201526060905f9081906001600160a01b0385169060240160408051601f198184030181529082905261088d9161200c565b5f60405180830381855afa9150503d805f81146108c5576040519150601f19603f3d011682016040523d82523d5f602084013e6108ca565b606091505b5091509150816109065760405162461bcd60e51b8152602060048201526007602482015266085cde5b589bdb60ca1b6044820152606401610500565b808060200190518101906107d4919061203b565b5f54610100900460ff161580801561093857505f54600160ff909116105b806109515750303b15801561095157505f5460ff166001145b6109b45760405162461bcd60e51b815260206004820152602e60248201527f496e697469616c697a61626c653a20636f6e747261637420697320616c72656160448201526d191e481a5b9a5d1a585b1a5e995960921b6064820152608401610500565b5f805460ff1916600117905580156109d5575f805461ff0019166101001790555b609880546001600160a01b031916331790556109f0826111b1565b610a5d610a256109ff846111e0565b604051602001610a0f91906120d8565b604051602081830303815290604052845f6112b6565b610a58610a31856111e0565b604051602001610a4191906120d8565b6040516020818303038152906040528560016112b6565b6113ec565b8015610aa2575f805461ff0019169055604051600181527f7f26b83ff96e1f2b6a682f133852f6798a09c465da95921460cefb38474024989060200160405180910390a15b5050565b5f610600825f610e28565b6001600160a01b0381165f90815260336020526040812054610600905f610ccd565b6001600160a01b0381165f90815260336020526040812054610600565b609854604051632f745c5960e01b81523360048201525f60248201819052916001600160a01b031690632f745c5990604401602060405180830381865afa158015610b3d573d5f803e3d5ffd5b505050506040513d601f19601f82011682018060405250810190610b619190611f7d565b1015610b975760405162461bcd60e51b8152602060048201526005602482015264216f70707360d81b6044820152606401610500565b8160975f828254610ba89190612102565b90915550610aa290503330610bbd8486611fa8565b6065546001600160a01b031692919061142b565b6001600160a01b039182165f90815260346020908152604080832093909416825291909152205490565b6040516001600160a01b038316602482015260448101829052610c5e90849063a9059cbb60e01b906064015b60408051601f198184030181529190526020810180516001600160e01b03166001600160e01b031990931692909217909152611463565b505050565b6065546040516370a0823160e01b81523060048201525f916001600160a01b0316906370a0823190602401602060405180830381865afa158015610ca9573d5f803e3d5ffd5b505050506040513d601f19601f820116820180604052508101906105609190611f7d565b5f610647610cd961054a565b610ce4906001611fa8565b610cef5f600a6121f5565b603554610cfc9190611fa8565b85919085611536565b6001600160a01b038316610d675760405162461bcd60e51b8152602060048201526024808201527f45524332303a20617070726f76652066726f6d20746865207a65726f206164646044820152637265737360e01b6064820152608401610500565b6001600160a01b038216610dc85760405162461bcd60e51b815260206004820152602260248201527f45524332303a20617070726f766520746f20746865207a65726f206164647265604482015261737360f01b6064820152608401610500565b6001600160a01b038381165f8181526034602090815260408083209487168084529482529182902085905590518481527f8c5be1e5ebec7d5bd14f71427d1e84f3dd0314c0f7b2291e5b200ac8c7c3b925910160405180910390a3505050565b5f610647610e3782600a6121f5565b603554610e449190611fa8565b610e4c61054a565b610cfc906001611fa8565b5f610e628484610bd1565b90505f198114610ec95781811015610ebc5760405162461bcd60e51b815260206004820152601d60248201527f45524332303a20696e73756666696369656e7420616c6c6f77616e63650000006044820152606401610500565b610ec98484848403610d05565b50505050565b6001600160a01b038316610f335760405162461bcd60e51b815260206004820152602560248201527f45524332303a207472616e736665722066726f6d20746865207a65726f206164604482015264647265737360d81b6064820152608401610500565b6001600160a01b038216610f955760405162461bcd60e51b815260206004820152602360248201527f45524332303a207472616e7366657220746f20746865207a65726f206164647260448201526265737360e81b6064820152608401610500565b6001600160a01b0383165f908152603360205260409020548181101561100c5760405162461bcd60e51b815260206004820152602660248201527f45524332303a207472616e7366657220616d6f756e7420657863656564732062604482015265616c616e636560d01b6064820152608401610500565b6001600160a01b038085165f8181526033602052604080822086860390559286168082529083902080548601905591517fddf252ad1be2c89b69c2b068fc378daa952ba7f163c4a11628f55a4df523b3ef9061106b9086815260200190565b60405180910390a3610ec9565b606554611090906001600160a01b031685308561142b565b61109a8382611591565b826001600160a01b0316846001600160a01b03167fdcbc1c05240f31ff3ad067ef1ee35ce4997762752e3a095284754544f4c709d784846040516110e8929190918252602082015260400190565b60405180910390a350505050565b60606037805461057490611fbb565b826001600160a01b0316856001600160a01b03161461112957611129838683610e57565b6111338382611650565b60655461114a906001600160a01b03168584610bfb565b826001600160a01b0316846001600160a01b0316866001600160a01b03167ffbde797d201c681b91056529119e0b02407c7bb96a4a2c75c01fc9667232c8db85856040516111a2929190918252602082015260400190565b60405180910390a45050505050565b5f54610100900460ff166111d75760405162461bcd60e51b815260040161050090612203565b61054781611782565b604080516001600160a01b03831660208201526060915f91829130916318614c5b60e31b910160408051601f1981840301815290829052611224929160200161224e565b60408051601f198184030181529082905261123e9161200c565b5f60405180830381855afa9150503d805f8114611276576040519150601f19603f3d011682016040523d82523d5f602084013e61127b565b606091505b5091509150816109065761128e84611805565b60405160200161129e919061227e565b60405160208183030381529060405292505050919050565b60605f846040516020016112ca919061200c565b60408051808303601f19018152908290528051602090910120609854633749aa1160e11b8352600483018290529092506001600160a01b031690636e93542290602401602060405180830381865afa158015611328573d5f803e3d5ffd5b505050506040513d601f19601f8201168201806040525081019061134c91906122b6565b156113805761135a84611805565b60405160200161136a919061227e565b60405160208183030381529060405291506113e4565b82156113e05760985460405163d6da080560e01b8152600481018390526001600160a01b039091169063d6da0805906024015f604051808303815f87803b1580156113c9575f80fd5b505af11580156113db573d5f803e3d5ffd5b505050505b8491505b509392505050565b5f54610100900460ff166114125760405162461bcd60e51b815260040161050090612203565b603661141e8382612322565b506037610c5e8282612322565b6040516001600160a01b0380851660248301528316604482015260648101829052610ec99085906323b872dd60e01b90608401610c27565b5f6114b7826040518060400160405280602081526020017f5361666545524332303a206c6f772d6c6576656c2063616c6c206661696c6564815250856001600160a01b0316611a859092919063ffffffff16565b905080515f14806114d75750808060200190518101906114d791906122b6565b610c5e5760405162461bcd60e51b815260206004820152602a60248201527f5361666545524332303a204552433230206f7065726174696f6e20646964206e6044820152691bdd081cdd58d8d9595960b21b6064820152608401610500565b5f80611543868686611a93565b90506001836002811115611559576115596123de565b14801561157557505f8480611570576115706123f2565b868809115b1561158857611585600182611fa8565b90505b95945050505050565b6001600160a01b0382166115e75760405162461bcd60e51b815260206004820152601f60248201527f45524332303a206d696e7420746f20746865207a65726f2061646472657373006044820152606401610500565b8060355f8282546115f89190611fa8565b90915550506001600160a01b0382165f818152603360209081526040808320805486019055518481527fddf252ad1be2c89b69c2b068fc378daa952ba7f163c4a11628f55a4df523b3ef910160405180910390a35050565b6001600160a01b0382166116b05760405162461bcd60e51b815260206004820152602160248201527f45524332303a206275726e2066726f6d20746865207a65726f206164647265736044820152607360f81b6064820152608401610500565b6001600160a01b0382165f90815260336020526040902054818110156117235760405162461bcd60e51b815260206004820152602260248201527f45524332303a206275726e20616d6f756e7420657863656564732062616c616e604482015261636560f01b6064820152608401610500565b6001600160a01b0383165f8181526033602090815260408083208686039055603580548790039055518581529192917fddf252ad1be2c89b69c2b068fc378daa952ba7f163c4a11628f55a4df523b3ef910160405180910390a3505050565b5f54610100900460ff166117a85760405162461bcd60e51b815260040161050090612203565b5f806117b383611b78565b91509150816117c35760126117c5565b805b606580546001600160a01b039095166001600160a01b031960ff93909316600160a01b02929092166001600160a81b031990951694909417179092555050565b604051712f70696e74737761702f636865636b73756d60701b6020820152606082811b6bffffffffffffffffffffffff19166032830152905f9060460160408051601f198184030181528282528051602091820120908301520160405160208183030381529060405290505f815f8151811061188357611883612406565b01602090810151604080516102408101825260016102008201818152600360fc1b610220840152825282518084018452818152603160f81b818701528286015282518084018452818152601960f91b818701528284015282518084018452818152603360f81b81870152606083015282518084018452818152600d60fa1b81870152608083015282518084018452818152603560f81b8187015260a083015282518084018452818152601b60f91b8187015260c083015282518084018452818152603760f81b8187015260e083015282518084018452818152600760fb1b8187015261010083015282518084018452818152603960f81b8187015261012083015282518084018452818152606160f81b8187015261014083015282518084018452818152603160f91b8187015261016083015282518084018452818152606360f81b8187015261018083015282518084018452818152601960fa1b818701526101a083015282518084018452818152606560f81b818701526101c083015282518084019093528252603360f91b938201939093526101e083015260f881901c925060fc1c600f8316828260108110611a3d57611a3d612406565b6020020151838260108110611a5457611a54612406565b6020020151604051602001611a6a92919061241a565b60405160208183030381529060405295505050505050919050565b60606107d484845f85611c4e565b5f80805f19858709858702925082811083820303915050805f03611aca57838281611ac057611ac06123f2565b0492505050610647565b808411611b115760405162461bcd60e51b81526020600482015260156024820152744d6174683a206d756c446976206f766572666c6f7760581b6044820152606401610500565b5f8486880960026001871981018816978890046003810283188082028403028082028403028082028403028082028403028082028403029081029092039091025f889003889004909101858311909403939093029303949094049190911702949350505050565b60408051600481526024810182526020810180516001600160e01b031663313ce56760e01b17905290515f918291829182916001600160a01b03871691611bbe9161200c565b5f60405180830381855afa9150503d805f8114611bf6576040519150601f19603f3d011682016040523d82523d5f602084013e611bfb565b606091505b5091509150818015611c0f57506020815110155b15611c42575f81806020019051810190611c299190611f7d565b905060ff8111611c40576001969095509350505050565b505b505f9485945092505050565b606082471015611caf5760405162461bcd60e51b815260206004820152602660248201527f416464726573733a20696e73756666696369656e742062616c616e636520666f6044820152651c8818d85b1b60d21b6064820152608401610500565b5f80866001600160a01b03168587604051611cca919061200c565b5f6040518083038185875af1925050503d805f8114611d04576040519150601f19603f3d011682016040523d82523d5f602084013e611d09565b606091505b5091509150611d1a87838387611d25565b979650505050505050565b60608315611d935782515f03611d8c576001600160a01b0385163b611d8c5760405162461bcd60e51b815260206004820152601d60248201527f416464726573733a2063616c6c20746f206e6f6e2d636f6e74726163740000006044820152606401610500565b50816107d4565b6107d48383815115611da85781518083602001fd5b8060405162461bcd60e51b81526004016105009190611dfb565b5f60208284031215611dd2575f80fd5b5035919050565b5f5b83811015611df3578181015183820152602001611ddb565b50505f910152565b602081525f8251806020840152611e19816040850160208701611dd9565b601f01601f19169190910160400192915050565b6001600160a01b0381168114610547575f80fd5b5f8060408385031215611e52575f80fd5b8235611e5d81611e2d565b946020939093013593505050565b5f805f60608486031215611e7d575f80fd5b8335611e8881611e2d565b92506020840135611e9881611e2d565b929592945050506040919091013590565b5f60208284031215611eb9575f80fd5b813561064781611e2d565b5f8060408385031215611ed5575f80fd5b823591506020830135611ee781611e2d565b809150509250929050565b5f805f60608486031215611f04575f80fd5b833592506020840135611f1681611e2d565b91506040840135611f2681611e2d565b809150509250925092565b5f8060408385031215611f42575f80fd5b50508035926020909101359150565b5f8060408385031215611f62575f80fd5b8235611f6d81611e2d565b91506020830135611ee781611e2d565b5f60208284031215611f8d575f80fd5b5051919050565b634e487b7160e01b5f52601160045260245ffd5b8082018082111561060057610600611f94565b600181811c90821680611fcf57607f821691505b602082108103611fed57634e487b7160e01b5f52602260045260245ffd5b50919050565b60ff818116838216019081111561060057610600611f94565b5f825161201d818460208701611dd9565b9190910192915050565b634e487b7160e01b5f52604160045260245ffd5b5f6020828403121561204b575f80fd5b815167ffffffffffffffff80821115612062575f80fd5b818401915084601f830112612075575f80fd5b81518181111561208757612087612027565b604051601f8201601f19908116603f011681019083821181831017156120af576120af612027565b816040528281528760208487010111156120c7575f80fd5b611d1a836020830160208801611dd9565b6207369760ec1b81525f82516120f5816003850160208701611dd9565b9190910160030192915050565b8181038181111561060057610600611f94565b600181815b8085111561214f57815f190482111561213557612135611f94565b8085161561214257918102915b93841c939080029061211a565b509250929050565b5f8261216557506001610600565b8161217157505f610600565b81600181146121875760028114612191576121ad565b6001915050610600565b60ff8411156121a2576121a2611f94565b50506001821b610600565b5060208310610133831016604e8410600b84101617156121d0575081810a610600565b6121da8383612115565b805f19048211156121ed576121ed611f94565b029392505050565b5f61064760ff841683612157565b6020808252602b908201527f496e697469616c697a61626c653a20636f6e7472616374206973206e6f74206960408201526a6e697469616c697a696e6760a81b606082015260800190565b6001600160e01b03198316815281515f90612270816004850160208701611dd9565b919091016004019392505050565b650a68aa8aaa0560d31b81525f825161229e816006850160208701611dd9565b602960f81b6006939091019283015250600701919050565b5f602082840312156122c6575f80fd5b81518015158114610647575f80fd5b601f821115610c5e575f81815260208120601f850160051c810160208610156122fb5750805b601f850160051c820191505b8181101561231a57828155600101612307565b505050505050565b815167ffffffffffffffff81111561233c5761233c612027565b6123508161234a8454611fbb565b846122d5565b602080601f831160018114612383575f841561236c5750858301515b5f19600386901b1c1916600185901b17855561231a565b5f85815260208120601f198616915b828110156123b157888601518255948401946001909101908401612392565b50858210156123ce57878501515f19600388901b60f8161c191681555b5050505050600190811b01905550565b634e487b7160e01b5f52602160045260245ffd5b634e487b7160e01b5f52601260045260245ffd5b634e487b7160e01b5f52603260045260245ffd5b5f835161242b818460208801611dd9565b83519083019061243f818360208801611dd9565b0194935050505056fea26469706673582212207edd8f44503c2f8fc7f4c9c0dd30e8f8ab897a4f9351b04b0d7630ad0d1d0c1564736f6c63430008150033",
    "linkReferences": {}
  },
  "methodIdentifiers": {
    "_tryGetSymbolFrame(address)": "c30a62d8",
    "allowance(address,address)": "dd62ed3e",
    "approve(address,uint256)": "095ea7b3",
    "asset()": "38d52e0f",
    "balanceOf(address)": "70a08231",
    "convertToAssets(uint256)": "07a2d13a",
    "convertToShares(uint256)": "c6e6f592",
    "decimals()": "313ce567",
    "decreaseAllowance(address,uint256)": "a457c2d7",
    "deficit()": "5426fa8a",
    "deposit(uint256,address)": "6e553f65",
    "finna(uint256)": "005888d3",
    "increaseAllowance(address,uint256)": "39509351",
    "initialize(address)": "c4d66de8",
    "maxDeposit(address)": "402d267d",
    "maxMint(address)": "c63d75b6",
    "maxRedeem(address)": "d905777e",
    "maxWithdraw(address)": "ce96cb77",
    "mint(uint256,address)": "94bf804d",
    "name()": "06fdde03",
    "opps()": "00840bc2",
    "previewDeposit(uint256)": "ef8b30f7",
    "previewMint(uint256)": "b3d7f6b9",
    "previewRedeem(uint256)": "4cdad506",
    "previewWithdraw(uint256)": "0a28a477",
    "push(uint256,uint256)": "dd1b6137",
    "redeem(uint256,address,address)": "ba087652",
    "symbol()": "95d89b41",
    "totalAssets()": "01e1d114",
    "totalSupply()": "18160ddd",
    "transfer(address,uint256)": "a9059cbb",
    "transferFrom(address,address,uint256)": "23b872dd",
    "withdraw(uint256,address,address)": "b460af94"
  },
  "id": 126
}