{
  "abi": [
    {
      "inputs": [],
      "name": "NonTransferable",
      "type": "error"
    },
    {
      "anonymous": false,
      "inputs": [
        {
          "indexed": true,
          "internalType": "address",
          "name": "owner",
          "type": "address"
        },
        {
          "indexed": true,
          "internalType": "address",
          "name": "spender",
          "type": "address"
        },
        {
          "indexed": false,
          "internalType": "uint256",
          "name": "value",
          "type": "uint256"
        }
      ],
      "name": "Approval",
      "type": "event"
    },
    {
      "anonymous": false,
      "inputs": [
        {
          "indexed": true,
          "internalType": "address",
          "name": "sender",
          "type": "address"
        },
        {
          "indexed": true,
          "internalType": "address",
          "name": "owner",
          "type": "address"
        },
        {
          "indexed": false,
          "internalType": "uint256",
          "name": "assets",
          "type": "uint256"
        },
        {
          "indexed": false,
          "internalType": "uint256",
          "name": "shares",
          "type": "uint256"
        }
      ],
      "name": "Deposit",
      "type": "event"
    },
    {
      "anonymous": false,
      "inputs": [
        {
          "indexed": false,
          "internalType": "uint8",
          "name": "version",
          "type": "uint8"
        }
      ],
      "name": "Initialized",
      "type": "event"
    },
    {
      "anonymous": false,
      "inputs": [
        {
          "indexed": true,
          "internalType": "address",
          "name": "from",
          "type": "address"
        },
        {
          "indexed": true,
          "internalType": "address",
          "name": "to",
          "type": "address"
        },
        {
          "indexed": false,
          "internalType": "uint256",
          "name": "value",
          "type": "uint256"
        }
      ],
      "name": "Transfer",
      "type": "event"
    },
    {
      "anonymous": false,
      "inputs": [
        {
          "indexed": true,
          "internalType": "address",
          "name": "sender",
          "type": "address"
        },
        {
          "indexed": true,
          "internalType": "address",
          "name": "receiver",
          "type": "address"
        },
        {
          "indexed": true,
          "internalType": "address",
          "name": "owner",
          "type": "address"
        },
        {
          "indexed": false,
          "internalType": "uint256",
          "name": "assets",
          "type": "uint256"
        },
        {
          "indexed": false,
          "internalType": "uint256",
          "name": "shares",
          "type": "uint256"
        }
      ],
      "name": "Withdraw",
      "type": "event"
    },
    {
      "inputs": [
        {
          "internalType": "address",
          "name": "owner",
          "type": "address"
        },
        {
          "internalType": "address",
          "name": "spender",
          "type": "address"
        }
      ],
      "name": "allowance",
      "outputs": [
        {
          "internalType": "uint256",
          "name": "",
          "type": "uint256"
        }
      ],
      "stateMutability": "view",
      "type": "function"
    },
    {
      "inputs": [
        {
          "internalType": "address",
          "name": "spender",
          "type": "address"
        },
        {
          "internalType": "uint256",
          "name": "amount",
          "type": "uint256"
        }
      ],
      "name": "approve",
      "outputs": [
        {
          "internalType": "bool",
          "name": "",
          "type": "bool"
        }
      ],
      "stateMutability": "nonpayable",
      "type": "function"
    },
    {
      "inputs": [],
      "name": "asset",
      "outputs": [
        {
          "internalType": "address",
          "name": "",
          "type": "address"
        }
      ],
      "stateMutability": "view",
      "type": "function"
    },
    {
      "inputs": [
        {
          "internalType": "address",
          "name": "account",
          "type": "address"
        }
      ],
      "name": "balanceOf",
      "outputs": [
        {
          "internalType": "uint256",
          "name": "",
          "type": "uint256"
        }
      ],
      "stateMutability": "view",
      "type": "function"
    },
    {
      "inputs": [
        {
          "internalType": "uint256",
          "name": "shares",
          "type": "uint256"
        }
      ],
      "name": "convertToAssets",
      "outputs": [
        {
          "internalType": "uint256",
          "name": "",
          "type": "uint256"
        }
      ],
      "stateMutability": "view",
      "type": "function"
    },
    {
      "inputs": [
        {
          "internalType": "uint256",
          "name": "assets",
          "type": "uint256"
        }
      ],
      "name": "convertToShares",
      "outputs": [
        {
          "internalType": "uint256",
          "name": "",
          "type": "uint256"
        }
      ],
      "stateMutability": "view",
      "type": "function"
    },
    {
      "inputs": [],
      "name": "decimals",
      "outputs": [
        {
          "internalType": "uint8",
          "name": "",
          "type": "uint8"
        }
      ],
      "stateMutability": "view",
      "type": "function"
    },
    {
      "inputs": [
        {
          "internalType": "address",
          "name": "spender",
          "type": "address"
        },
        {
          "internalType": "uint256",
          "name": "subtractedValue",
          "type": "uint256"
        }
      ],
      "name": "decreaseAllowance",
      "outputs": [
        {
          "internalType": "bool",
          "name": "",
          "type": "bool"
        }
      ],
      "stateMutability": "nonpayable",
      "type": "function"
    },
    {
      "inputs": [
        {
          "internalType": "uint256",
          "name": "assets",
          "type": "uint256"
        },
        {
          "internalType": "address",
          "name": "receiver",
          "type": "address"
        }
      ],
      "name": "deposit",
      "outputs": [
        {
          "internalType": "uint256",
          "name": "",
          "type": "uint256"
        }
      ],
      "stateMutability": "nonpayable",
      "type": "function"
    },
    {
      "inputs": [
        {
          "internalType": "address",
          "name": "spender",
          "type": "address"
        },
        {
          "internalType": "uint256",
          "name": "addedValue",
          "type": "uint256"
        }
      ],
      "name": "increaseAllowance",
      "outputs": [
        {
          "internalType": "bool",
          "name": "",
          "type": "bool"
        }
      ],
      "stateMutability": "nonpayable",
      "type": "function"
    },
    {
      "inputs": [
        {
          "internalType": "contract IERC20Upgradeable",
          "name": "underlying",
          "type": "address"
        }
      ],
      "name": "initialize",
      "outputs": [],
      "stateMutability": "nonpayable",
      "type": "function"
    },
    {
      "inputs": [
        {
          "internalType": "address",
          "name": "",
          "type": "address"
        }
      ],
      "name": "maxDeposit",
      "outputs": [
        {
          "internalType": "uint256",
          "name": "",
          "type": "uint256"
        }
      ],
      "stateMutability": "view",
      "type": "function"
    },
    {
      "inputs": [
        {
          "internalType": "address",
          "name": "",
          "type": "address"
        }
      ],
      "name": "maxMint",
      "outputs": [
        {
          "internalType": "uint256",
          "name": "",
          "type": "uint256"
        }
      ],
      "stateMutability": "view",
      "type": "function"
    },
    {
      "inputs": [
        {
          "internalType": "address",
          "name": "owner",
          "type": "address"
        }
      ],
      "name": "maxRedeem",
      "outputs": [
        {
          "internalType": "uint256",
          "name": "",
          "type": "uint256"
        }
      ],
      "stateMutability": "view",
      "type": "function"
    },
    {
      "inputs": [
        {
          "internalType": "address",
          "name": "owner",
          "type": "address"
        }
      ],
      "name": "maxWithdraw",
      "outputs": [
        {
          "internalType": "uint256",
          "name": "",
          "type": "uint256"
        }
      ],
      "stateMutability": "view",
      "type": "function"
    },
    {
      "inputs": [
        {
          "internalType": "uint256",
          "name": "shares",
          "type": "uint256"
        },
        {
          "internalType": "address",
          "name": "receiver",
          "type": "address"
        }
      ],
      "name": "mint",
      "outputs": [
        {
          "internalType": "uint256",
          "name": "",
          "type": "uint256"
        }
      ],
      "stateMutability": "nonpayable",
      "type": "function"
    },
    {
      "inputs": [],
      "name": "name",
      "outputs": [
        {
          "internalType": "string",
          "name": "",
          "type": "string"
        }
      ],
      "stateMutability": "view",
      "type": "function"
    },
    {
      "inputs": [
        {
          "internalType": "uint256",
          "name": "assets",
          "type": "uint256"
        }
      ],
      "name": "previewDeposit",
      "outputs": [
        {
          "internalType": "uint256",
          "name": "",
          "type": "uint256"
        }
      ],
      "stateMutability": "view",
      "type": "function"
    },
    {
      "inputs": [
        {
          "internalType": "uint256",
          "name": "shares",
          "type": "uint256"
        }
      ],
      "name": "previewMint",
      "outputs": [
        {
          "internalType": "uint256",
          "name": "",
          "type": "uint256"
        }
      ],
      "stateMutability": "view",
      "type": "function"
    },
    {
      "inputs": [
        {
          "internalType": "uint256",
          "name": "shares",
          "type": "uint256"
        }
      ],
      "name": "previewRedeem",
      "outputs": [
        {
          "internalType": "uint256",
          "name": "",
          "type": "uint256"
        }
      ],
      "stateMutability": "view",
      "type": "function"
    },
    {
      "inputs": [
        {
          "internalType": "uint256",
          "name": "assets",
          "type": "uint256"
        }
      ],
      "name": "previewWithdraw",
      "outputs": [
        {
          "internalType": "uint256",
          "name": "",
          "type": "uint256"
        }
      ],
      "stateMutability": "view",
      "type": "function"
    },
    {
      "inputs": [
        {
          "internalType": "uint256",
          "name": "shares",
          "type": "uint256"
        },
        {
          "internalType": "address",
          "name": "receiver",
          "type": "address"
        },
        {
          "internalType": "address",
          "name": "owner",
          "type": "address"
        }
      ],
      "name": "redeem",
      "outputs": [
        {
          "internalType": "uint256",
          "name": "",
          "type": "uint256"
        }
      ],
      "stateMutability": "nonpayable",
      "type": "function"
    },
    {
      "inputs": [],
      "name": "symbol",
      "outputs": [
        {
          "internalType": "string",
          "name": "",
          "type": "string"
        }
      ],
      "stateMutability": "view",
      "type": "function"
    },
    {
      "inputs": [],
      "name": "totalAssets",
      "outputs": [
        {
          "internalType": "uint256",
          "name": "",
          "type": "uint256"
        }
      ],
      "stateMutability": "view",
      "type": "function"
    },
    {
      "inputs": [],
      "name": "totalSupply",
      "outputs": [
        {
          "internalType": "uint256",
          "name": "",
          "type": "uint256"
        }
      ],
      "stateMutability": "view",
      "type": "function"
    },
    {
      "inputs": [
        {
          "internalType": "address",
          "name": "",
          "type": "address"
        },
        {
          "internalType": "uint256",
          "name": "",
          "type": "uint256"
        }
      ],
      "name": "transfer",
      "outputs": [
        {
          "internalType": "bool",
          "name": "",
          "type": "bool"
        }
      ],
      "stateMutability": "pure",
      "type": "function"
    },
    {
      "inputs": [
        {
          "internalType": "address",
          "name": "",
          "type": "address"
        },
        {
          "internalType": "address",
          "name": "",
          "type": "address"
        },
        {
          "internalType": "uint256",
          "name": "",
          "type": "uint256"
        }
      ],
      "name": "transferFrom",
      "outputs": [
        {
          "internalType": "bool",
          "name": "",
          "type": "bool"
        }
      ],
      "stateMutability": "pure",
      "type": "function"
    },
    {
      "inputs": [
        {
          "internalType": "uint256",
          "name": "assets",
          "type": "uint256"
        },
        {
          "internalType": "address",
          "name": "receiver",
          "type": "address"
        },
        {
          "internalType": "address",
          "name": "owner",
          "type": "address"
        }
      ],
      "name": "withdraw",
      "outputs": [
        {
          "internalType": "uint256",
          "name": "",
          "type": "uint256"
        }
      ],
      "stateMutability": "nonpayable",
      "type": "function"
    }
  ],
  "bytecode": {
    "object": "0x608060405234801561001057600080fd5b5061192e806100206000396000f3fe608060405234801561001057600080fd5b50600436106101c45760003560e01c806394bf804d116100f9578063c4d66de811610097578063ce96cb7711610071578063ce96cb7714610393578063d905777e146103a6578063dd62ed3e146103b9578063ef8b30f71461038057600080fd5b8063c4d66de81461036b578063c63d75b6146102a5578063c6e6f5921461038057600080fd5b8063a9059cbb116100d3578063a9059cbb14610324578063b3d7f6b914610332578063b460af9414610345578063ba0876521461035857600080fd5b806394bf804d146102f657806395d89b4114610309578063a457c2d71461031157600080fd5b8063313ce56711610166578063402d267d11610140578063402d267d146102a55780634cdad506146101f95780636e553f65146102ba57806370a08231146102cd57600080fd5b8063313ce5671461025d57806338d52e0f14610277578063395093511461029257600080fd5b8063095ea7b3116101a2578063095ea7b31461020c5780630a28a4771461022f57806318160ddd1461024257806323b872dd1461024a57600080fd5b806301e1d114146101c957806306fdde03146101e457806307a2d13a146101f9575b600080fd5b6101d16103cc565b6040519081526020015b60405180910390f35b6101ec61043e565b6040516101db919061140c565b6101d161020736600461143f565b6104d0565b61021f61021a36600461146d565b6104e3565b60405190151581526020016101db565b6101d161023d36600461143f565b6104fb565b6035546101d1565b61021f610258366004611499565b610508565b610265610523565b60405160ff90911681526020016101db565b6065546040516001600160a01b0390911681526020016101db565b61021f6102a036600461146d565b61053d565b6101d16102b33660046114da565b5060001990565b6101d16102c83660046114f7565b61055f565b6101d16102db3660046114da565b6001600160a01b031660009081526033602052604090205490565b6101d16103043660046114f7565b61058f565b6101ec6105a9565b61021f61031f36600461146d565b6105b8565b61021f61025836600461146d565b6101d161034036600461143f565b61063e565b6101d1610353366004611527565b61064b565b6101d1610366366004611527565b6106c7565b61037e6103793660046114da565b61073b565b005b6101d161038e36600461143f565b610894565b6101d16103a13660046114da565b6108a1565b6101d16103b43660046114da565b6108c5565b6101d16103c7366004611569565b6108e3565b6065546040516370a0823160e01b81523060048201526000916001600160a01b0316906370a0823190602401602060405180830381865afa158015610415573d6000803e3d6000fd5b505050506040513d601f19601f820116820180604052508101906104399190611597565b905090565b60606036805461044d906115b0565b80601f0160208091040260200160405190810160405280929190818152602001828054610479906115b0565b80156104c65780601f1061049b576101008083540402835291602001916104c6565b820191906000526020600020905b8154815290600101906020018083116104a957829003601f168201915b5050505050905090565b60006104dd82600061090e565b92915050565b6000336104f1818585610948565b5060019392505050565b60006104dd826001610a6c565b6000604051639cbe235760e01b815260040160405180910390fd5b6000806065546104399190600160a01b900460ff16611600565b6000336104f181858561055083836108e3565b61055a9190611619565b610948565b600061056f565b60405180910390fd5b600061057a84610894565b905061058833848684610a9c565b9392505050565b60008061059b8461063e565b905061058833848387610a9c565b60606037805461044d906115b0565b600033816105c682866108e3565b9050838110156106265760405162461bcd60e51b815260206004820152602560248201527f45524332303a2064656372656173656420616c6c6f77616e63652062656c6f77604482015264207a65726f60d81b6064820152608401610566565b6106338286868403610948565b506001949350505050565b60006104dd82600161090e565b6000610656826108a1565b8411156106a55760405162461bcd60e51b815260206004820152601f60248201527f455243343632363a207769746864726177206d6f7265207468616e206d6178006044820152606401610566565b60006106b0856104fb565b90506106bf3385858885610b1a565b949350505050565b60006106d2826108c5565b8411156107215760405162461bcd60e51b815260206004820152601d60248201527f455243343632363a2072656465656d206d6f7265207468616e206d61780000006044820152606401610566565b600061072c856104d0565b90506106bf3385858489610b1a565b600054610100900460ff161580801561075b5750600054600160ff909116105b806107755750303b158015610775575060005460ff166001145b6107d85760405162461bcd60e51b815260206004820152602e60248201527f496e697469616c697a61626c653a20636f6e747261637420697320616c72656160448201526d191e481a5b9a5d1a585b1a5e995960921b6064820152608401610566565b6000805460ff1916600117905580156107fb576000805461ff0019166101001790555b610841604051806040016040528060068152602001651d995412539560d21b815250604051806040016040528060068152602001651d995412539560d21b815250610bc6565b61084a82610c0b565b8015610890576000805461ff0019169055604051600181527f7f26b83ff96e1f2b6a682f133852f6798a09c465da95921460cefb38474024989060200160405180910390a15b5050565b60006104dd826000610a6c565b6001600160a01b0381166000908152603360205260408120546104dd90600061090e565b6001600160a01b0381166000908152603360205260408120546104dd565b6001600160a01b03918216600090815260346020908152604080832093909416825291909152205490565b600061058861091b6103cc565b610926906001611619565b6109326000600a611710565b60355461093f9190611619565b85919085610c3e565b6001600160a01b0383166109aa5760405162461bcd60e51b8152602060048201526024808201527f45524332303a20617070726f76652066726f6d20746865207a65726f206164646044820152637265737360e01b6064820152608401610566565b6001600160a01b038216610a0b5760405162461bcd60e51b815260206004820152602260248201527f45524332303a20617070726f766520746f20746865207a65726f206164647265604482015261737360f01b6064820152608401610566565b6001600160a01b0383811660008181526034602090815260408083209487168084529482529182902085905590518481527f8c5be1e5ebec7d5bd14f71427d1e84f3dd0314c0f7b2291e5b200ac8c7c3b925910160405180910390a3505050565b6000610588610a7c82600a611710565b603554610a899190611619565b610a916103cc565b61093f906001611619565b606554610ab4906001600160a01b0316853085610c9b565b610abe8382610d0c565b826001600160a01b0316846001600160a01b03167fdcbc1c05240f31ff3ad067ef1ee35ce4997762752e3a095284754544f4c709d78484604051610b0c929190918252602082015260400190565b60405180910390a350505050565b826001600160a01b0316856001600160a01b031614610b3e57610b3e838683610dcd565b610b488382610e41565b606554610b5f906001600160a01b03168584610f75565b826001600160a01b0316846001600160a01b0316866001600160a01b03167ffbde797d201c681b91056529119e0b02407c7bb96a4a2c75c01fc9667232c8db8585604051610bb7929190918252602082015260400190565b60405180910390a45050505050565b600054610100900460ff16610bed5760405162461bcd60e51b81526004016105669061171f565b6036610bf983826117ce565b506037610c0682826117ce565b505050565b600054610100900460ff16610c325760405162461bcd60e51b81526004016105669061171f565b610c3b81610fa5565b50565b600080610c4c86868661102a565b90506001836002811115610c6257610c6261188e565b148015610c7f575060008480610c7a57610c7a6118a4565b868809115b15610c9257610c8f600182611619565b90505b95945050505050565b6040516001600160a01b0380851660248301528316604482015260648101829052610d069085906323b872dd60e01b906084015b60408051601f198184030181529190526020810180516001600160e01b03166001600160e01b031990931692909217909152611114565b50505050565b6001600160a01b038216610d625760405162461bcd60e51b815260206004820152601f60248201527f45524332303a206d696e7420746f20746865207a65726f2061646472657373006044820152606401610566565b8060356000828254610d749190611619565b90915550506001600160a01b0382166000818152603360209081526040808320805486019055518481527fddf252ad1be2c89b69c2b068fc378daa952ba7f163c4a11628f55a4df523b3ef910160405180910390a35050565b6000610dd984846108e3565b90506000198114610d065781811015610e345760405162461bcd60e51b815260206004820152601d60248201527f45524332303a20696e73756666696369656e7420616c6c6f77616e63650000006044820152606401610566565b610d068484848403610948565b6001600160a01b038216610ea15760405162461bcd60e51b815260206004820152602160248201527f45524332303a206275726e2066726f6d20746865207a65726f206164647265736044820152607360f81b6064820152608401610566565b6001600160a01b03821660009081526033602052604090205481811015610f155760405162461bcd60e51b815260206004820152602260248201527f45524332303a206275726e20616d6f756e7420657863656564732062616c616e604482015261636560f01b6064820152608401610566565b6001600160a01b03831660008181526033602090815260408083208686039055603580548790039055518581529192917fddf252ad1be2c89b69c2b068fc378daa952ba7f163c4a11628f55a4df523b3ef910160405180910390a3505050565b6040516001600160a01b038316602482015260448101829052610c0690849063a9059cbb60e01b90606401610ccf565b600054610100900460ff16610fcc5760405162461bcd60e51b81526004016105669061171f565b600080610fd8836111e9565b9150915081610fe8576012610fea565b805b606580546001600160a01b039095166001600160a01b031960ff93909316600160a01b02929092166001600160a81b031990951694909417179092555050565b60008080600019858709858702925082811083820303915050806000036110645783828161105a5761105a6118a4565b0492505050610588565b8084116110ab5760405162461bcd60e51b81526020600482015260156024820152744d6174683a206d756c446976206f766572666c6f7760581b6044820152606401610566565b60008486880960026001871981018816978890046003810283188082028403028082028403028082028403028082028403028082028403029081029092039091026000889003889004909101858311909403939093029303949094049190911702949350505050565b6000611169826040518060400160405280602081526020017f5361666545524332303a206c6f772d6c6576656c2063616c6c206661696c6564815250856001600160a01b03166112c59092919063ffffffff16565b905080516000148061118a57508080602001905181019061118a91906118ba565b610c065760405162461bcd60e51b815260206004820152602a60248201527f5361666545524332303a204552433230206f7065726174696f6e20646964206e6044820152691bdd081cdd58d8d9595960b21b6064820152608401610566565b60408051600481526024810182526020810180516001600160e01b031663313ce56760e01b17905290516000918291829182916001600160a01b03871691611230916118dc565b600060405180830381855afa9150503d806000811461126b576040519150601f19603f3d011682016040523d82523d6000602084013e611270565b606091505b509150915081801561128457506020815110155b156112b85760008180602001905181019061129f9190611597565b905060ff81116112b6576001969095509350505050565b505b5060009485945092505050565b60606106bf848460008585600080866001600160a01b031685876040516112ec91906118dc565b60006040518083038185875af1925050503d8060008114611329576040519150601f19603f3d011682016040523d82523d6000602084013e61132e565b606091505b509150915061133f8783838761134a565b979650505050505050565b606083156113b95782516000036113b2576001600160a01b0385163b6113b25760405162461bcd60e51b815260206004820152601d60248201527f416464726573733a2063616c6c20746f206e6f6e2d636f6e74726163740000006044820152606401610566565b50816106bf565b6106bf83838151156113ce5781518083602001fd5b8060405162461bcd60e51b8152600401610566919061140c565b60005b838110156114035781810151838201526020016113eb565b50506000910152565b602081526000825180602084015261142b8160408501602087016113e8565b601f01601f19169190910160400192915050565b60006020828403121561145157600080fd5b5035919050565b6001600160a01b0381168114610c3b57600080fd5b6000806040838503121561148057600080fd5b823561148b81611458565b946020939093013593505050565b6000806000606084860312156114ae57600080fd5b83356114b981611458565b925060208401356114c981611458565b929592945050506040919091013590565b6000602082840312156114ec57600080fd5b813561058881611458565b6000806040838503121561150a57600080fd5b82359150602083013561151c81611458565b809150509250929050565b60008060006060848603121561153c57600080fd5b83359250602084013561154e81611458565b9150604084013561155e81611458565b809150509250925092565b6000806040838503121561157c57600080fd5b823561158781611458565b9150602083013561151c81611458565b6000602082840312156115a957600080fd5b5051919050565b600181811c908216806115c457607f821691505b6020821081036115e457634e487b7160e01b600052602260045260246000fd5b50919050565b634e487b7160e01b600052601160045260246000fd5b60ff81811683821601908111156104dd576104dd6115ea565b808201808211156104dd576104dd6115ea565b600181815b8085111561166757816000190482111561164d5761164d6115ea565b8085161561165a57918102915b93841c9390800290611631565b509250929050565b60008261167e575060016104dd565b8161168b575060006104dd565b81600181146116a157600281146116ab576116c7565b60019150506104dd565b60ff8411156116bc576116bc6115ea565b50506001821b6104dd565b5060208310610133831016604e8410600b84101617156116ea575081810a6104dd565b6116f4838361162c565b8060001904821115611708576117086115ea565b029392505050565b600061058860ff84168361166f565b6020808252602b908201527f496e697469616c697a61626c653a20636f6e7472616374206973206e6f74206960408201526a6e697469616c697a696e6760a81b606082015260800190565b634e487b7160e01b600052604160045260246000fd5b601f821115610c0657600081815260208120601f850160051c810160208610156117a75750805b601f850160051c820191505b818110156117c6578281556001016117b3565b505050505050565b815167ffffffffffffffff8111156117e8576117e861176a565b6117fc816117f684546115b0565b84611780565b602080601f83116001811461183157600084156118195750858301515b600019600386901b1c1916600185901b1785556117c6565b600085815260208120601f198616915b8281101561186057888601518255948401946001909101908401611841565b508582101561187e5787850151600019600388901b60f8161c191681555b5050505050600190811b01905550565b634e487b7160e01b600052602160045260246000fd5b634e487b7160e01b600052601260045260246000fd5b6000602082840312156118cc57600080fd5b8151801515811461058857600080fd5b600082516118ee8184602087016113e8565b919091019291505056fea2646970667358221220ae18c642fb5150df453473f6cf626dca23188bc5f6bc5d09cc33e26b4d8b58b464736f6c63430008150033",
    "linkReferences": {}
  },
  "methodIdentifiers": {
    "allowance(address,address)": "dd62ed3e",
    "approve(address,uint256)": "095ea7b3",
    "asset()": "38d52e0f",
    "balanceOf(address)": "70a08231",
    "convertToAssets(uint256)": "07a2d13a",
    "convertToShares(uint256)": "c6e6f592",
    "decimals()": "313ce567",
    "decreaseAllowance(address,uint256)": "a457c2d7",
    "deposit(uint256,address)": "6e553f65",
    "increaseAllowance(address,uint256)": "39509351",
    "initialize(address)": "c4d66de8",
    "maxDeposit(address)": "402d267d",
    "maxMint(address)": "c63d75b6",
    "maxRedeem(address)": "d905777e",
    "maxWithdraw(address)": "ce96cb77",
    "mint(uint256,address)": "94bf804d",
    "name()": "06fdde03",
    "previewDeposit(uint256)": "ef8b30f7",
    "previewMint(uint256)": "b3d7f6b9",
    "previewRedeem(uint256)": "4cdad506",
    "previewWithdraw(uint256)": "0a28a477",
    "redeem(uint256,address,address)": "ba087652",
    "symbol()": "95d89b41",
    "totalAssets()": "01e1d114",
    "totalSupply()": "18160ddd",
    "transfer(address,uint256)": "a9059cbb",
    "transferFrom(address,address,uint256)": "23b872dd",
    "withdraw(uint256,address,address)": "b460af94"
  },
  "id": 87
}